:100000000C9446000C9465000C9465000C946500FB
:100010000C9465000C9465000C9465000C946500CC
:100020000C9465000C9465000C9465000C946500BC
:100030000C9465000C9465000C9465000C946500AC
:100040000C9465000C9465000C9465000C9465009C
:100050000C9465000C9465000C9465000C9465008C
:100060000C9465000C9465000C9465000C9465007C
:100070000C9465000C9465000C9465000C9465006C
:100080000C9465000C9465000C94650011241FBE4F
:10009000CFEFD0E1DEBFCDBF11E0A0E0B1E0E0E402
:1000A000F1E000E00BBF02C007900D92A030B10755
:1000B000D9F711E0A0E0B1E001C01D92A530B10771
:1000C000E1F70E946E000C949E000C94000018BA98
:1000D0008FEF87BB089580E58DB9089518BA8FEF2B
:1000E00087BB80E58DB980E090E043E357E01FC017
:1000F0009C01220F331F220F331FC098C90180704B
:100100009FB9CA010197F1F780E02115310509F087
:1001100081E08FB9CA010197F1F7C09ACA0101972E
:10012000F1F7C9019695879596958795019623E0F5
:100130008F3F9207E8F280E090E0F9CFF894FFCF8C
:00000001FF
