:100000000C9446000C9465000C9465000C946500FB
:100010000C9465000C9465000C9465000C946500CC
:100020000C9465000C9465000C9465000C946500BC
:100030000C9465000C9465000C9465000C946500AC
:100040000C9465000C9465000C9465000C9465009C
:100050000C9465000C9465000C9465000C9465008C
:100060000C9465000C9465000C9465000C9465007C
:100070000C9465000C9465000C9465000C9465006C
:100080000C9465000C9465000C94650011241FBE4F
:10009000CFEFD0E1DEBFCDBF12E0A0E0B1E0E0E302
:1000A000F0E100E00BBF02C007900D92A831B1074C
:1000B000D9F712E0A8E1B2E001C01D92A432B10765
:1000C000E1F70E94E3010C9416080C9400008FEFF6
:1000D0008BBB8ABB82BB81BB08951F930E946700C4
:1000E00020E011E0E2E3F0E0ABE3B0E043E357E00F
:1000F000808180618083808180628083812F809570
:100100008C9380818F7D8083110F1C9280818F7EE4
:100110008083CA010197F1F72F5F253049F7A2E3E9
:10012000B0E08C9180618C938C9180628C93812F54
:1001300080952BE330E0F90180838C918F7D8C9347
:10014000110F40E051E08091220290912302FA01C8
:10015000E80FF91F8081F90180838C918F7E8C9349
:1001600063E377E0CB010197F1F78C9180618C9389
:100170008C9180628C93812F809580838C918F7D70
:100180008C9380911F0290912002FA01E80FF91FD1
:1001900080818068F90180838C918F7E8C93CB0164
:1001A0000197F1F78C9180618C938C9180628C9394
:1001B000110F109510838C918F7D8C938091180274
:1001C00090911902480F591FFA018081F90180832B
:1001D0008C918F7E8C93CB010197F1F78C9180618C
:1001E0008C938C9180628C938FEF80838C918F7D28
:1001F0008C931F910895A2E2B0E08C9180618C9362
:10020000E3E2F0E080818F7E808329E933E0C90159
:100210000197F1F78081806180838C918F7E8C9330
:1002200084EC8A95F1F781B1F9013197F1F7829564
:100230008F70809581700895CF93DF9328E090E0D0
:10024000A2E2B0E0E3E2F0E059E048E1C1E2D0E050
:1002500033E996958C9180618C9380818F7E808329
:10026000852F8A95F1F78081806180838C918F7EC4
:100270008C93842F8A95F1F7888184FD9068832F71
:100280008A95F1F7215029F7892FDF91CF910895B1
:10029000282F98E0A2E2B0E0E3E2F0E049E034EC9D
:1002A0008C9180618C9380818F7E8083842F8A954E
:1002B000F1F720FF03C0808180618083832F8A95BE
:1002C000F1F7808180618083915011F02695E8CF0D
:1002D00008950E94FB008CEC0E94480184E40E9477
:1002E00048010895EF92FF920F931F93DF93CF93EE
:1002F000CDB7DEB729970FB6F894DEBF0FBECDBFDE
:100300000E94FB008CEC0E9448018EEB0E94480189
:100310008E010F5F1F4F0F2EFAE0EF2EFF24F02DFE
:10032000EC0EFD1E0E941C01F80181938F01EE1559
:10033000FF05C1F71A8100E0898190E0082B192B95
:10034000B80180E090E00E945D0520E030E040E2EE
:100350005FE30E94DF030E94090270931D02609315
:100360001C02802F912F29960FB6F894DEBF0FBE86
:10037000CDBFCF91DF911F910F91FF90EF90089526
:100380009C0164E670E00E94CB07709323026093A7
:100390002202C90164E670E00E94CB07282F392FA2
:1003A0006AE070E00E94CB077093200260931F0206
:1003B000822F932F6AE070E00E94CB07909319027E
:1003C0008093180208950F931F93CF93DF930E9499
:1003D000FB0000E010E00E9469010E947201809120
:1003E0001C0290911D020E94C001E80160911F0251
:1003F00070912002409118025091190280912202BE
:10040000909123020E946D002196C83CD10571F79E
:10041000E2CFEF92FF920F931F937B018C0120E0BC
:1004200030E040E05FE40E94D90488238CF0C801EA
:10043000B70120E030E040E05FE40E9481030E94C9
:1004400009059B01AC01205030404040504806C097
:10045000C801B7010E9409059B01AC01B901CA019D
:100460001F910F91FF90EF900895A0E0B0E0EBE3B3
:10047000F2E00C94DF07DC012B01FA019C91923031
:1004800008F439C1EB018881823008F433C194301B
:1004900069F4843009F02FC111969C9111978981DC
:1004A000981709F428C1A0E1B1E025C1843009F40E
:1004B00021C18230A9F4923009F01DC19A01AD0129
:1004C00088E0EA010990AE01E90109929E0181509C
:1004D000C1F7E201898111969C918923818308C12A
:1004E000923009F407C112962D903C901397EB01BE
:1004F0008A819B811496AD90BD90CD90DC9017972A
:10050000EC80FD800E811F819101281B390BB90100
:1005100037FF04C066277727621B730B60327105B3
:100520000CF061C0121613066CF537014801062E57
:1005300004C096948794779467940A94D2F721E044
:1005400030E040E050E004C0220F331F441F551F2D
:100550006A95D2F721503040404050402E213F2133
:1005600040235123211531054105510521F021E09A
:1005700030E040E050E079018A01E628F7280829B8
:1005800019293CC0232BD1F1260E371E3501460117
:10059000062E04C096948794779467940A94D2F7B1
:1005A00021E030E040E050E004C0220F331F441F40
:1005B000551F6A95D2F721503040404050402A21C3
:1005C0003B214C215D21211531054105510521F0CB
:1005D00021E030E040E050E059016A01A628B72848
:1005E000C828D9280BC0821593052CF01C01AA2419
:1005F000BB24650103C0EE24FF24870111969C9162
:10060000D20111968C91981709F445C0992339F0BD
:10061000A80197012A193B094C095D0906C0A601EA
:1006200095012E193F09400B510B57FD08C011824F
:100630003382228224833583468357831DC081E021
:1006400081833382228288279927DC01821B930BC6
:10065000A40BB50B84839583A683B7830DC0220FAB
:10066000331F441F551F248335834683578382815C
:1006700093810197938382832481358146815781B9
:10068000DA01C9010197A109B1098F5F9F4FAF4FEF
:10069000BF4328F30BC0918333822282EA0CFB1CF8
:1006A0000C1D1D1DE482F5820683178383E0808381
:1006B000248135814681578157FF1AC0C901AA2775
:1006C00097FDA095BA2F81709070A070B07056956C
:1006D000479537952795822B932BA42BB52B848395
:1006E0009583A683B78382819381019693838283C6
:1006F000DF0101C0D201CD01CDB7DEB7E2E10C943C
:10070000FB07A0E2B0E0E7E8F3E00C94EB076983B5
:100710007A838B839C832D833E834F835887E9E0C4
:10072000EE2EF12CEC0EFD1ECE010196B7010E94BB
:10073000FA068E010F5E1F4FCE010596B8010E948A
:10074000FA068A8991E089278A8BC701B801AE0130
:10075000475E5F4F0E9435020E942506A096E6E0A4
:100760000C940708A0E2B0E0E8EBF3E00C94EB0790
:1007700069837A838B839C832D833E834F83588741
:10078000F9E0EF2EF12CEC0EFD1ECE010196B70123
:100790000E94FA068E010F5E1F4FCE010596B8012A
:1007A0000E94FA06C701B801AE01475E5F4F0E9482
:1007B00035020E942506A096E6E00C940708A0E208
:1007C000B0E0E5EEF3E00C94DF0769837A838B8376
:1007D0009C832D833E834F835887CE010196BE01B3
:1007E000675F7F4F0E94FA06CE010596BE016F5EDD
:1007F0007F4F0E94FA069985923088F0898982306D
:10080000C8F0943019F4823051F404C0843029F4D3
:10081000923081F480E191E0C6C0923049F420E04A
:100820009A858A89981321E02A87CE010996BBC050
:10083000823049F420E09A858A89981321E02A8B36
:10084000CE014196B0C02D843E844F8458886D8877
:100850007E888F88988CEE24FF248701AA24BB24ED
:10086000650140E050E060E070E0E0E0F0E0C101F0
:1008700081709070892BE9F0E60CF71C081D191D9A
:100880009A01AB012A0D3B1D4C1D5D1D80E090E0DF
:10089000A0E0B0E0E614F7040805190520F481E0B3
:1008A00090E0A0E0B0E0BA01A901480F591F6A1F0B
:1008B0007B1FAA0CBB1CCC1CDD1C97FE08C081E072
:1008C00090E0A0E0B0E0A82AB92ACA2ADB2A319633
:1008D000E032F10549F0660C771C881C991C56948F
:1008E000479437942794C3CFFA85EA892B893C89AA
:1008F0008B859C85280F391F2E5F3F4F17C0CA017B
:1009000081709070892B61F016950795F794E794A4
:1009100080E090E0A0E0B0E8E82AF92A0A2B1B2B3F
:1009200076956795579547952F5F3F4F77FDE7CFB2
:100930000CC0440F551F661F771F17FD4160EE0C5A
:10094000FF1C001F111F21503040403090E059071C
:1009500090E0690790E4790760F32B8F3C8FDB010F
:10096000CA018F779070A070B07080349105A10596
:10097000B10561F447FD0AC0E114F1040105110558
:1009800029F0405C5F4F6F4F7F4F40781A8EFE1703
:1009900011F081E08A8F4D8F5E8F6F8F78A383E097
:1009A000898FCE0149960E942506A096E2E10C941B
:1009B000FB07A8E1B0E0EFEDF4E00C94EB076983EE
:1009C0007A838B839C832D833E834F83588789E072
:1009D000E82EF12CEC0EFD1ECE010196B7010E940F
:1009E000FA068E010F5E1F4FCE010596B8010E94D8
:1009F000FA068985823040F08989823028F0C70163
:100A0000B8010E94720701C08FEF6896E6E00C946F
:100A10000708ACE0B0E0EFE0F5E00C94EF07698385
:100A20007A838B839C83CE010196BE016B5F7F4FDF
:100A30000E94FA068D81823061F1823050F184305B
:100A400021F48E81882351F12EC02F81388537FD06
:100A500020C06E812F3131051CF06623F9F023C0D0
:100A60008EE190E0821B930B29853A854B855C854E
:100A700004C056954795379527958A95D2F76623F2
:100A8000B1F050954095309521953F4F4F4F5F4FB6
:100A90000EC020E030E040E050E009C02FEF3FEF13
:100AA0004FEF5FE704C020E030E040E050E8B901DC
:100AB000CA012C96E2E00C940B08A8E0B0E0E3E653
:100AC000F5E00C94E7077B018C0161157105810548
:100AD000910519F482E0898360C083E089838EE107
:100AE000C82ED12CDC82CB82ED82FE820F83188748
:100AF000C801B7010E94D605FC013197F7FF3BC042
:100B0000222733272E1B3F0B57016801022E04C0FA
:100B1000D694C794B794A7940A94D2F740E050E0D3
:100B200060E070E081E090E0A0E0B0E004C0880FF9
:100B3000991FAA1FBB1F2A95D2F70197A109B109D6
:100B40008E219F21A023B1230097A105B10521F09B
:100B500041E050E060E070E04A295B296C297D2982
:100B60004D835E836F8378878EE190E08E1B9F0BB1
:100B70009C838B8312C0309781F00E2E04C0EE0C44
:100B8000FF1C001F111F0A94D2F7ED82FE820F8313
:100B90001887CE1ADF0ADC82CB821A82CE01019638
:100BA0000E9425062896EAE00C940308EF92FF9233
:100BB0000F931F937B018C0180E0E81680E0F8061C
:100BC00081E0080780E0180788F48FEFE816F10449
:100BD0000105110531F028F088E090E0A0E0B0E0D8
:100BE00017C080E090E0A0E0B0E012C080E0E8161E
:100BF00080E0F80680E0080781E0180728F088E127
:100C000090E0A0E0B0E004C080E190E0A0E0B0E0BF
:100C100020E230E040E050E0281B390B4A0B5B0B30
:100C200004C016950795F794E7948A95D2F7F701D3
:100C3000E85EFE4F8081281B310941095109C90135
:100C40001F910F91FF90EF900895DF92EF92FF9226
:100C50000F931F93FC01E480F58006811781D180FA
:100C60008081823048F480E090E0A0E1B0E0E82AA2
:100C7000F92A0A2B1B2BA5C0843009F49FC08230AF
:100C800021F4EE24FF24870105C0E114F1040105DD
:100C9000110519F4E0E0F0E096C0628173819FEFE6
:100CA000623879070CF05BC022E83FEF261B370B58
:100CB0002A3131052CF020E030E040E050E02AC03D
:100CC000B801A701022E04C0769567955795479500
:100CD0000A94D2F781E090E0A0E0B0E004C0880F71
:100CE000991FAA1FBB1F2A95D2F70197A109B10925
:100CF0008E219F21A023B1230097A105B10521F0EA
:100D000081E090E0A0E0B0E09A01AB01282B392B04
:100D10004A2B5B2BDA01C9018F779070A070B070FD
:100D200080349105A105B10539F427FF09C0205C85
:100D30003F4F4F4F5F4F04C0215C3F4F4F4F5F4FBE
:100D4000E0E0F0E02030A0E03A07A0E04A07A0E4AD
:100D50005A0710F0E1E0F0E079018A0127C060381D
:100D6000710564F5FB01E158FF4FD801C7018F778A
:100D70009070A070B07080349105A105B10539F470
:100D8000E7FE0DC080E490E0A0E0B0E004C08FE397
:100D900090E0A0E0B0E0E80EF91E0A1F1B1F17FF4D
:100DA00005C016950795F794E794319687E0169558
:100DB0000795F794E7948A95D1F705C0EE24FF24B0
:100DC0008701EFEFF0E06E2F679566276795902F0C
:100DD0009F77D794DD24D7948E2F8695492F462B65
:100DE000582F5D29B701CA011F910F91FF90EF9015
:100DF000DF900895FC01DB01408151812281622F47
:100E00006F7770E0221F2227221F9381892F880F7E
:100E1000822B282F30E0991F9927991F11969C93B8
:100E2000119721153105A9F5411551056105710588
:100E300011F482E037C082E89FEF13969C938E9363
:100E400012979A01AB0167E0220F331F441F551F11
:100E50006A95D1F783E08C930DC0220F331F441F96
:100E6000551F12968D919C911397019713969C9301
:100E70008E931297203080E0380780E0480780E4A6
:100E8000580758F314962D933D934D935C93179701
:100E900008952F3F310579F441155105610571051C
:100EA00019F484E08C93089564FF03C081E08C936F
:100EB00012C01C9210C02F57304013963C932E93B3
:100EC000129783E08C9387E0440F551F661F771FAE
:100ED0008A95D1F7706414964D935D936D937C93CE
:100EE000179708951F93DC01FB019C91923008F441
:100EF00047C08081823008F443C0943051F4119689
:100F00001C91843099F58181682F70E0611B710913
:100F10003FC0843021F0923031F48230B9F18181C8
:100F2000882389F12DC011961C9111978230F1F020
:100F300081811817D9F412962D913C9113978281D3
:100F400093818217930794F028173907BCF0149601
:100F50008D919D910D90BC91A02D2481358146816C
:100F60005781281739074A075B0718F4112341F006
:100F70000AC082179307A407B50740F4112319F09C
:100F800061E070E005C06FEF7FEF02C060E070E0ED
:100F9000CB011F910895AA1BBB1B51E107C0AA1FDB
:100FA000BB1FA617B70710F0A61BB70B881F991F0A
:100FB0005A95A9F780959095BC01CD0108952F927F
:100FC0003F924F925F926F927F928F929F92AF92D9
:100FD000BF92CF92DF92EF92FF920F931F93CF9326
:100FE000DF93CDB7DEB7CA1BDB0B0FB6F894DEBFBD
:100FF0000FBECDBF09942A88398848885F846E84E3
:101000007D848C849B84AA84B984C884DF80EE802C
:10101000FD800C811B81AA81B981CE0FD11D0FB635
:10102000F894DEBF0FBECDBFED010895F894FFCF59
:101030003F065B4F666D7D077F6F777C395E797108
:10104000000000000000000000010202030303038F
:101050000404040404040404050505050505050548
:101060000505050505050505060606060606060628
:101070000606060606060606060606060606060610
:1010800006060606060606060707070707070707F8
:1010900007070707070707070707070707070707E0
:1010A00007070707070707070707070707070707D0
:1010B00007070707070707070707070707070707C0
:1010C00007070707070707070808080808080808A8
:1010D0000808080808080808080808080808080890
:1010E0000808080808080808080808080808080880
:1010F0000808080808080808080808080808080870
:10110000080808080808080808080808080808085F
:10111000080808080808080808080808080808084F
:10112000080808080808080808080808080808083F
:10113000080808080808080808080808080808082F
:08114000080808080808080867
:00000001FF
