:080000000C94D1000C94A00245
:14008C000E60157116311A7A1B731C611D771E322163227884
:1400A000236424652534263329202A762B662C742D722E356E
:1400B400316E32623368346735793636392C3A6D3B6A3C7553
:1400C8003D373E38412C426B4369446F45304639492E4A2FDD
:1400DC004B6C4C3B4D704E2D5227545B553D5B5D5D5C613CD2
:1400F00069316B346C377030712E7232733574367538792B9A
:140104007A337B2D7C2A7D3900000E7E155116211A5A1B532B
:140118001C411D571E4021432258234424452524262329201B
:14012C002A562B462C542D522E3E314E3242334834473559EC
:14014000365E394C3A4D3B4A3C553D263E2A413C424B434994
:14015400444F45294628493E4A3F4B4C4C3A4D504E5F52223D
:14016800547B552B5B7D5D7C613E69316B346C377030712EC9
:14017C007232733574367538792B7A337B2D7C2A7D39000077
:11019000300000546865204B657976616C75653A006D
:1401A200CFEFD0E1CDBFDEBFCE51D0400AEA08830024E5E119
:1401B600F2E012E0EC31F10711F00192FBCF0083ECE8F0E0D7
:1401CA00A0E0B1E011E0E13AF10721F0C89531960D92F9CF70
:1401DE000E941403FFCF0000000000000000000000000895E9
:1401F2000000000000000000000000000000000000000000F9
:140206000000000000000000000000000000000000000000E4
:14021A0000000895E9DFE8DFE7DF0895FBDFFADFF9DFF8DFDF
:14022E000895FADFF9DF08950E944503402F01C0F8DF242E8E
:14024200332441502220D1F70E9448030895EFDFEEDFEDDFC5
:14025600ECDFEBDFEADFE9DFE8DFE7DFE6DF08950E94450395
:14026A00A80101C0F0DF1A01415050402220D1F73320C1F7F6
:14027E000E94480308950E944503402F03C008EE13E0EADF14
:14029200242E332441502220C1F70E94480308958FEF8BBBD6
:1402A6008ABB809362008093610082BB81BB949A959A8BBBFA
:1402BA00959808950E944503402F809162008D7F8093620019
:1402CE00809162008B7F80936200809162008860809362005A
:1402E2004BBB05E010E0BEDF80916200877F809362000E9400
:1402F600480308950E944503402F80916200826080936200E9
:14030A00809162008B7F80936200809162008860809362001D
:14031E004BBB05E010E0A0DF80916200877F809362000E94E1
:140332004803089501E0C2DF05E010E093DF08950E94430381
:14034600622F402F662321F4042F0058B5DF03C0042F00549C
:14035A00B1DF0C81CDDF0E94370308950E944103A22E602F08
:14036E004E815F81AA2021F4062F0058A1DF09C0062F00548E
:140382009DDF05C0FA010081B7DF4F5F5F4FFA0120802220DB
:14039600B9F70E943A03089508E38EDF05E010E05FDF08E0D4
:1403AA0089DF05E010E05ADF01E084DF05E010E055DF06E096
:1403BE007FDF05E010E050DF0CE07ADF05E010E04BDF0895E8
:1403D20089B7836089BF8AE080936A00222424BE20921B02CE
:1403E600909A8898AF9AA79808950E944503209005022220B1
:1403FA0009F06DC0402F55274935E0E05E07B9F089E590E0B4
:14040E00841795072CF04231E0E05E0751F011C0403FE0E09E
:140422005E0709F00CC081E0809305026DC081E08093060278
:1404360069C081E08093060265C020900602222019F5442775
:14044A0001C0439582E0849FF00180E091E0E80FF91F20800F
:14045E002016A9F782E0849FF00180E091E0E80FF91F2080BE
:14047200201609F049C082E0849FF00181E091E0E80FF91FE7
:140486002080209204023EC0442701C0439582E0849FF00192
:14049A0082E891E0E80FF91F20802016A9F782E0849FF00178
:1404AE0082E891E0E80FF91F2080201639F582E0849FF001D6
:1404C20083E891E0E80FF91F208020920402222420920602E3
:1404D60019C0222420920502402F55274231E0E05E0749F07E
:1404EA004231E0E05E0764F04935E0E05E0729F007C0222449
:1404FE002092060203C02224209206020E94480308950E9441
:1405120045034427552720901A02220C20921A02802F81703E
:14052600282A20921A0206954F5F5F4F4830E0E05E077CF39E
:14053A000E94480308950E945C030E94430380911B028F5F1E
:14054E0080931B0240901802509019022090160230901702E3
:14056200220C331C441C551C30921702209216025092190295
:140576004092180227E030E003B31127007810700E943003B3
:14058A001801442437FC4094552447FC5094809018029090EB
:14059E0019026090160270901702622873288428952870927D
:1405B200170260921602909219028092180280911B028132C8
:1405C60059F5222420921B0281E0809315024CEF53E060E085
:1405DA0070E013012401242235224622572230921702209279
:1405EE001602509219024092180282E090E08A9381019201F4
:140602000E948A0310931702009316023093190220931802A3
:140616007CDF00911A02E9DE0E9437030E94730318952297A7
:14062A003BDE04E610E01ADEB5DECEDE87E092E09983888392
:14063E002227002791DE02E010E00EDE789406C02090040283
:14065200288221E004E074DEF9CF22960895222321F0159596
:1406660007952A95FACF0895E2E00C944903E4E00C94490361
:14067A00FA92EA92DA92CA92BA92AA927A936A935A934A9340
:14068E000895E1E049915991E0FD089569917991E1FD08953D
:1406A200A990B990E2FD0895C990D990E3FD0895E990F99005
:1406B6000895FA93EA93BA93AA939A938A933A932A931A937E
:1406CA000A939A928A927A926A925A924A923A922A921A9233
:1406DE000A920FB60A92089509900FBE099019902990399044
:1406F200499059906990799089909990099119912991399126
:1407060089919991A991B991E991F99108950F92099000201C
:12071A0031F036952795179507950A94F8CF0F9008953C
:00000001FF
