:040000000C94460016
:14008C00CFEFD0E1CDBFDEBFCE51D0400AEA08830024E0E036
:1400A000F1E011E0E030F10711F00192FBCF0083ECE8F0E0FD
:1400B400A0E0B1E010E000E00BBFEC38F10721F0C89531963C
:1400C8000D92F9CF0E94D200FFCF000000000000000000007B
:1400DC00000008950000000000000000000000000000000073
:1400F0000000000000000000000000000000000000000000FC
:140104000000000000000895E9DFE8DFE7CFFCDFFBDFFADF77
:14011800F9CFFBDFFACF4A93402F01C0FADF242E3324415048
:14012C002220D1F749910895F2DFF1DFF0DFEFDFEEDFEDDF67
:14014000ECDFEBDFEADFE9CF4A935A93A80101C0F1DF1A0176
:14015400415050402220D1F73320C1F75991499108954A9323
:14016800402F03C008EE13E0EBDF242E332441502220C1F76A
:14017C00499108958FEF82BB81BB88BB87BB0895AA92CA9247
:14019000C22EA02E0A2D1C2D0E94F400A02EC990A99008958A
:1401A400EDDF41E050E01CC068E070E014C008EC10E0C8DF57
:1401B800969A0CE211E0C4DF96985A016501C094D094C8BA58
:1401CC0021E0042FDDDF5801A501615070406030670749F791
:1401E00041E050E0E3CF0895112319F0000F1A95FBCF089509
:00000001FF
