:100000002030840055301A200F30EF00E730EE002A
:10001000553084006E301F200F30EF00AC30EE0002
:10002000A0308400DB301F200A168A11D62E040669
:100030008001840A0406031D172864000034FA00B6
:100040000A128A112F200A128A118000840A0408D9
:100050007A0603190034202883120313EE00EF1BE5
:100060003A286F1B42286F088A006E08EE0A0319AF
:10007000EF0A820083136F1883176E08EE0A84005C
:100080000008080000340034003400340034003428
:1000900000340034003400340034003400340034C0
:1000A0000034003400340034003410341034103480
:1000B0001034103410341034003400341834183430
:1000C00000340034003412343634243448340034DC
:1000D0000034003400340034003400340034003480
:1000E0000034003400340034003424342434243404
:1000F000FE34483448344834FE34483448344834B4
:10010000003400340034003410343834543454345F
:10011000503430341834143414345434543438349F
:10012000103410340034003400344434A434A8347F
:10013000A834A83454341A342A342A342A3444349F
:10014000003400340034003400343034483448344F
:10015000483450346E34A43494348834893476343A
:10016000003400340034603460342034C03400344F
:1001700000340034003400340034003400340034DF
:1001800000340034003402340434083408341034A9
:10019000103410341034103410340834083404345B
:1001A0000234003400344034203410341034083425
:1001B0000834083408340834083410341034203437
:1001C000403400340034003400340034103410342F
:1001D000D63438343834D634103410340034003443
:1001E000003400340034003400340034103410344F
:1001F00010341034FE341034103410341034003401
:10020000003400340034003400340034003400344E
:10021000003400340034003400340034603460347E
:100220002034C0340034003400340034003400344E
:10023000003400347F34003400340034003400349F
:10024000003400340034003400340034003400340E
:10025000003400340034003400340034603460343E
:1002600000340034003400340134023402340434E5
:10027000043408340834103410342034203440342A
:100280004034003400340034003418342434423410
:1002900042344234423442344234423424341834F6
:1002A000003400340034003400341034703410341E
:1002B00010341034103410341034103410347C34B2
:1002C000003400340034003400343C3442344234CE
:1002D00042340434043408341034203442347E343C
:1002E000003400340034003400343C3442344234AE
:1002F000043418340434023402344234443438347C
:100300000034003400340034003404340C34143429
:1003100024342434443444347E34043404341E34C9
:10032000003400340034003400347E34403440342F
:10033000403458346434023402344234443438345F
:10034000003400340034003400341C34243440348D
:1003500040345834643442344234423424341834FF
:10036000003400340034003400347E3444344434E7
:10037000083408341034103410341034103410346D
:10038000003400340034003400343C34423442340D
:1003900042342434183424344234423442343C3419
:1003A000003400340034003400341834243442342F
:1003B0004234423426341A34023402342434383479
:1003C000003400340034003400340034003400348D
:1003D000183418340034003400340034183418341D
:1003E000003400340034003400340034003400346D
:1003F000003410340034003400340034003410343D
:10040000103420340034003400340234043408340E
:10041000103420344034203410340834043402348E
:10042000003400340034003400340034003400342C
:10043000FE34003400340034FE3400340034003420
:10044000003400340034003400344034203410349C
:100450000834043402340434083410342034403472
:10046000003400340034003400343C34423442342C
:100470006234023404340834083400341834183434
:1004800000340034003400340034383444345A34F6
:10049000AA34AA34AA34AA34B434423444343834A2
:1004A0000034003400340034003410341034183474
:1004B0002834283424343C34443442344234E7343D
:1004C00000340034003400340034F834443444340C
:1004D0004434783444344234423442344434F8347A
:1004E000003400340034003400343E3442344234AA
:1004F000803480348034803480344234443438341E
:1005000000340034003400340034F83444344234CD
:100510004234423442344234423442344434F83473
:1005200000340034003400340034FC3442344834A5
:100530004834783448344834403442344234FC340B
:1005400000340034003400340034FC344234483485
:100550004834783448344834403440344034E0340B
:10056000003400340034003400343C344434443427
:100570008034803480348E34843444344434383489
:1005800000340034003400340034E7344234423460
:10059000423442347E344234423442344234E734CA
:1005A000003400340034003400347C34103410340F
:1005B00010341034103410341034103410347C34AF
:1005C000003400340034003400343E34083408343D
:1005D000083408340834083408340834083408343B
:1005E0008834F034003400340034EE344434483479
:1005F0005034703450344834483444344434EE3445
:1006000000340034003400340034E03440344034EA
:100610004034403440344034403440344234FE347A
:1006200000340034003400340034EE346C346C3464
:100630006C346C3454345434543454345434D634C8
:1006400000340034003400340034C734623462347F
:10065000523452344A344A344A3446344634E2340A
:1006600000340034003400340034383444348234EC
:100670008234823482348234823482344434383452
:1006800000340034003400340034FC34423442344A
:10069000423442347C344034403440344034E034DA
:1006A00000340034003400340034383444348234AC
:1006B0008234823482348234B234CA344C34383492
:1006C00006340034003400340034FC344234423404
:1006D00042347C3448344834443444344234E3347F
:1006E000003400340034003400343E3442344234A8
:1006F00040342034183404340234423442347C34DC
:1007000000340034003400340034FE3492341034A9
:100710001034103410341034103410341034383491
:1007200000340034003400340034E73442344234BE
:1007300042344234423442344234423442343C340F
:1007400000340034003400340034E734423442349E
:1007500044342434243428342834183410341034E5
:1007600000340034003400340034D63492349234EF
:1007700092349234AA34AA346C3444344434443429
:1007800000340034003400340034E734423424347C
:100790002434183418341834243424344234E734DC
:1007A00000340034003400340034EE344434443433
:1007B00028342834103410341034103410343834C1
:1007C000003400340034003400347E348434043483
:1007D0000834083410342034203442344234FC3499
:1007E0000034003400341E3410341034103410340B
:1007F00010341034103410341034103410341034D9
:100800001E3400340034003440344034203420346A
:1008100010341034103408340834043404340434EC
:10082000023402340034783408340834083408348C
:1008300008340834083408340834083408340834D8
:100840007834003400341C34223400340034003452
:1008500000340034003400340034003400340034F8
:1008600000340034003400340034003400340034E8
:1008700000340034003400340034003400340034D8
:100880000034FF3400346034103400340034003459
:1008900000340034003400340034003400340034B8
:1008A00000340034003400340034003400340034A8
:1008B00000343C3442341E342234423442343F3417
:1008C00000340034003400340034C0344034403448
:1008D00040345834643442344234423464345834FA
:1008E0000034003400340034003400340034003468
:1008F00000341C34223440344034403422341C341C
:10090000003400340034003400340634023402343D
:1009100002341E34223442344234423426341B34EE
:100920000034003400340034003400340034003427
:1009300000343C3442347E344034403442343C341D
:10094000003400340034003400340F3411341034D7
:1009500010347E34103410341034103410347C349D
:1009600000340034003400340034003400340034E7
:1009700000343E3444344434383440343C3442341B
:1009800042343C34003400340034C0344034403409
:1009900040345C3462344234423442344234E734CA
:1009A0000034003400340034003430343034003447
:1009B00000347034103410341034103410347C345B
:1009C000003400340034003400340C340C3400346F
:1009D00000341C3404340434043404340434043443
:1009E00044347834003400340034C034403440346B
:1009F00040344E3448345034683448344434EE344F
:100A000000340034003400340034703410341034B6
:100A100010341034103410341034103410347C344A
:100A20000034003400340034003400340034003426
:100A30000034FE3449344934493449344934ED34BE
:100A40000034003400340034003400340034003406
:100A50000034DC3462344234423442344234E734C9
:100A600000340034003400340034003400340034E6
:100A700000343C34423442344234423442343C3414
:100A800000340034003400340034003400340034C6
:100A90000034D834643442344234423444347834F8
:100AA0004034E03400340034003400340034003486
:100AB00000341E34223442344234423422341E3450
:100AC000023407340034003400340034003400347D
:100AD0000034EE3432342034203420342034F834DE
:100AE0000034003400340034003400340034003466
:100AF00000343E34423440343C34023442347C349A
:100B00000034003400340034003400340034103435
:100B100010347C34103410341034103410340C344D
:100B20000034003400340034003400340034003425
:100B30000034C634423442344234423446343B34C6
:100B40000034003400340034003400340034003405
:100B50000034E7344234243424342834103410343C
:100B600000340034003400340034003400340034E5
:100B70000034D73492349234AA34AA3444344434FE
:100B800000340034003400340034003400340034C5
:100B900000346E3424341834183418342434763441
:100BA00000340034003400340034003400340034A5
:100BB0000034E734423424342434283418341034D4
:100BC0001034E03400340034003400340034003495
:100BD00000347E34443408341034103422347E34EB
:100BE0000034003400340334043404340434043452
:100BF0000434083404340434043404340434043431
:100C00000334003408340834083408340834083411
:100C100008340834083408340834083408340834F4
:100C20000834083400346034103410341034103474
:100C3000103408341034103410341034103410349C
:100C40006034003430344C344334003400340034E5
:100C500000340034003400340034003400340034F4
:100C6000003400340034003400347E347E347E346A
:100C70007E347E347E347E347E347E3400340034E0
:100C800000340034B134B1340434403404344034DA
:100C9000043440340434443404344E347C34583402
:100CA0000434603404344034043440340434403474
:100CB0000C34403434344234E43442344434423426
:100CC00004343E3400340034B734BD3402340034CC
:100CD0000134003400348034FF34FE3402340034F4
:100CE000023400340334F034023410340434103449
:100CF00004341034083410340834103410341034F0
:100D000020349034C034603400340034C034B634FD
:100D10000834403408344034FF34FE34083440345E
:100D2000043480342434FC342434A0342534103486
:100D300026341034043400341F34F0341234903428
:100D40001234903412349034FF34FE3400340034C2
:100D5000D034BE3404342034043420347F34FE34A0
:100D60000434203404342034023400340134003498
:100D70000934903408348834483484344834063490
:100D80004834143488341034083418340734F034B8
:100D900000340034BF34C634063408347834883420
:100DA0000834483408344834FE340834183488345D
:100DB0001C3448342A34483428340E3448347834C7
:100DC0008B34883408340834083408340834083440
:100DD0000834083408340834BC34BC3410342034AB
:100DE0001034203410342034FD34FE3410342034D8
:100DF000143420341934FC3431340834D034883479
:100E00001034903410346034103460341034903422
:100E100011340E345634043420340034BF34AA3430
:100E2000003400347F34FE3404342034043420345D
:100E30000434203404342034FF34FE3404342034A9
:100E4000043420340434203408342034083420346A
:100E50001034203420342034403420340034003422
:100E6000B734A234023400342234403422343034D3
:100E7000223410347F34FE342434003404340034FB
:100E80000734E0340C3420340A3420340A3420345B
:100E900011344034203480344134603486341C347E
:100EA00018340834D334D0340134003401340034DD
:100EB0007F34FE3402340034043400340F34F03410
:100EC00018341034283410344F34F034883410344B
:100ED000083410340F34F0340834103408349034AB
:100EE0000834703408342034CF34DE340034003415
:100EF000FB34F834923408349334F834A234083490
:100F0000A23408349334F8348A3480348A34483430
:100F1000AA34503492342034823420348234103451
:100F200082348E348334043482340034B934AB34A4
:100F30000034003404344034063440340434403443
:100F400008342034083410341034183422340E3469
:100F5000433404340234003404342034083410346C
:100F60001134F8343F341834103410340034003461
:100F7000CB34BE34003400343F34FC340034043409
:100F8000003404347F34E434003404340034043452
:100F90003F34C43420344434203444343F34C434E3
:100FA00020344434203404340034143400340834FD
:100FB00000340034D334EB340034003408340034CB
:100FC000083404340F34FE34083400340834003458
:100FD0000F34FC340034043400340434003424343A
:100FE0007F34F4340034043400340434003448349E
:100FF0000034303400340034C434FA34083400345B
:10100000093400341134FE3412340434343440349E
:1010100032345034523448349434443411344434E7
:1010200010348034003400342934043428349234A9
:10103000683412340734F03400340034CD34AC3426
:10104000003400347F34FC344034043440340434FD
:101050005F34F43440340434403404344F34E434E2
:101060004834243448342434483424344F34E43469
:101070004834243440340434403414344034083484
:10108000D034D034083400341C3400343134FC34CF
:1010900040340034883400340C3400341B34FE34C3
:1010A0003034203450342034903420341034203400
:1010B0001034203410342034103420341034A03450
:0410C0001034403474
:10116400FE01FF010310FD0CFC0C031CC0287A08CF
:10117400FE077B0803187B0AFF070310FA0DFB0D1B
:101184007C087D0403190034B42883012408C600B4
:101194002508C7002408C8002508C9002608CA0075
:1011A4002708CB002608CC002708CD000A128A1590
:1011B40088210A128A152808C6002908C7000A12BD
:1011C4008A1563298301C601C701F030C800C9012B
:1011D400CA01CB014030CC000130CD000A128A157F
:1011E4008821A601A701A801A9012408C600250891
:1011F400C7000A128A1563210A128A15A80A03195C
:10120400A90A00302902F03003192802031CF72828
:10121400A60A0319A70A013027024030031926023F
:1012240003180800F52883012408C6002508C70010
:101234002608C8002708C9002808CA002908CB00C6
:101244002A08CC002B08CD000A128A1588210A121C
:101254008A152808AE002908AF004C292408B000DC
:101264002508B10031082702031D3A293008260257
:10127400031C49292C08C6002D08C7000A128A1528
:1012840063210A128A15B00A0319B10A3429AE0A75
:101294000319AF0A2F082B02031D52292E082A0214
:1012A400031C080030298301D40008118816530850
:1012B4008600081408105408860008120816081539
:1012C400080083014708C9004608C800D30049083C
:1012D40055298301D400081188128815081253086F
:1012E400860008140810540886000816081508001B
:1012F4008301D0004F08D2004E08D1005008D3001B
:1013040000306B215108D300520855298301460847
:10131400CE004708CF0050307A210A128A154808B7
:10132400CE004908CF0051307A210A128A154A08A2
:10133400CE004B08CF0052307A210A128A154C088D
:10134400CE004D08CF0053307A210A128A15460880
:10135400CE004708CF0020307A210A128A154A08A5
:10136400CE004B08CF0021307A210A128A15223090
:10137400D30000306B298301A601A701D329A8015A
:10138400A901A80A0319A90A2908803AFA00803099
:101394007A02FF3003192802031CC329A60A031981
:1013A400A70A25082702031DD929240826020318A1
:1013B4000800C12983018814A401A40AA501BD2140
:1013C40088100A30A400A501BD2188143230A4007D
:1013D400A501BD212108933A203003192006031DDD
:1013E400452BCE01CE0ACF0100307A210A128A158C
:1013F400CE010130CF007A210A128A15CE010730BE
:10140400CF0002307A210A128A153030CE00103013
:10141400CF0003307A210A128A15CE01CF0104309D
:101424007A210A128A150230CE00CF0008307A21C0
:101434000A128A15CE01CF0109307A210A128A15BF
:10144400CE01CF010A307A210A128A15CE01CF01CA
:101454000C307A210A128A15CE01CF010D307A217F
:101464000A128A15CE01CF010F307A210A128A1589
:101474001E30A400A501BD21B030CE001630CF002F
:1014840010307A210A128A151E30A400A501BD214C
:101494000730CE00CF0111307A210A128A153A3072
:1014A400CE000130CF0012307A210A128A15CE0103
:1014B4001A30CF0013307A210A128A151E30A40084
:1014C400A501BD210C30CE00CF0129307A210A12AA
:1014D4008A151E30A400A501BD21CE01CF013030F4
:1014E4007A210A128A150530CE00CF0031307A21D4
:1014F4000A128A150430CE000330CF0032307A212C
:101504000A128A150630CE00CF0135307A210A122C
:101514008A150730CE00CF0036307A210A128A1598
:101524000530CE000130CF0037307A210A128A15F7
:101534000230CE00CF0138307A210A128A150730E2
:10154400CE00CF0039307A210A128A150430CE0039
:101554000730CF003C307A210A128A150730CE00BA
:101564000830CF003D307A210A128A15CE01CF010E
:1015740050307A210A128A15EF30CE00CF01513053
:101584007A210A128A15CE01CF0152307A210A1229
:101594008A153F30CE000130CF0053307A210A1231
:1015A4008A15CE012730CF0060307A210A128A15BD
:1015B400CE01CE0ACF0161307A210A128A15CE01FA
:1015C400CF016A307A210A128A15CE01CF01203068
:1015D4007A210A128A15CE01CF0121307A210A120A
:1015E4008A15CE01CF0180307A210A128A15CE01E4
:1015F400CF0181307A210A128A15CE01CF018230BF
:101604007A210A128A15CE01CF0183307A210A1277
:101614008A15CE01CF0184307A210A128A15CE01AF
:10162400CF0185307A210A128A151030CE00CF01FD
:1016340090307A210A128A15CE01CF0192307A2194
:101644000A128A150330CE00CF0193307A210A1290
:101654008A151030CE000130CF0095307A210A125D
:101664008A15CE01CF0197307A210A128A15CE014C
:10167400CF0198307A210A128A157330CE000130D6
:10168400CF0007307A292108153A053003192006BE
:10169400031D9F2CCE01CE0ACF0100307A210A12FD
:1016A4008A15CE010130CF007A210A128A15CE01A3
:1016B4000730CF0002307A210A128A153030CE006A
:1016C4001030CF0003307A210A128A15CE01CF01DF
:1016D40004307A210A128A150230CE00CF00083075
:1016E4007A210A128A15CE01CF0109307A210A1211
:1016F4008A15CE01CF010A307A210A128A15CE0149
:10170400CF010C307A210A128A15CE01CF010D3097
:101714007A210A128A15CE01CF010F307A210A12DA
:101724008A151E30A400A501BD21B030CE001630AC
:10173400CF0010307A210A128A151E30A400A501A8
:10174400BD210730CE00CF0111307A210A128A154B
:101754003A30CE000130CF0012307A210A128A15B5
:10176400CE011A30CF0013307A210A128A151E30A6
:10177400A400A501BD210C30CE00CF0129307A216F
:101784000A128A151E30A400A501BD21CE01CF0185
:1017940030307A210A128A150530CE00CF0031305C
:1017A4007A210A128A150430CE000330CF00323079
:1017B4007A210A128A150630CE00CF0135307A21FB
:1017C4000A128A150730CE00CF0036307A210A1269
:1017D4008A150530CE000130CF0037307A210A1245
:1017E4008A150230CE00CF0138307A210A128A15C8
:1017F4000730CE00CF0039307A210A128A1504301E
:10180400CE000730CF003C307A210A128A15073007
:10181400CE000830CF003D307A210A128A15CE015D
:10182400CF0150307A210A128A15EF30CE00CF0151
:1018340051307A210A128A15CE01CF0152307A2111
:101844000A128A153F30CE000130CF0053307A217E
:101854000A128A15CE012730CF0060307A210A128D
:101864008A15CE01CE0ACF0161307A210A128A1577
:10187400CE012730CF006A307A210A128A15CE01B0
:10188400CF0120307A210A128A15CE01CF012130EE
:101894007A210A128A15CE01CF0180307A210A12E8
:1018A4008A15CE01CF0181307A210A128A15CE0120
:1018B400CF0182307A210A128A15CE01CF018330FA
:1018C4007A210A128A15CE01CF0184307A210A12B4
:1018D4008A15CE01CF0185307A210A128A1510307B
:1018E400CE00CF0190307A210A128A15CE01CF01A1
:1018F40092307A210A128A150330CE00CF01933038
:101904007A210A128A151030CE000130CF009530AA
:101914007A210A128A15CE01CF0197307A210A1250
:101924008A15CE01CF0198307A210A128A157330B4
:10193400CE000130CF0007307A292108933A2830AD
:1019440003192006031D0800CE010130CF007A21BF
:101954000A128A15CE010730CF0002307A210A120A
:101964008A153030CE001030CF0003307A210A12AD
:101974008A15CE01CF0104307A210A128A15CE01CC
:10198400CE0ACF01A4307A210A128A150230CE0081
:10199400CF0008307A210A128A15CE01CF0109300E
:1019A4007A210A128A15CE01CF010A307A210A124D
:1019B4008A15CE01CF010C307A210A128A15CE0184
:1019C400CF010D307A210A128A15CE01CF010F30D2
:1019D4007A210A128A15CE01CF0110307A210A1217
:1019E4008A150730CE00CF0111307A210A128A15E8
:1019F400CE01CF0112307A210A128A15CE01CF010D
:101A040013307A210A128A151E30A400A501BD21C3
:101A14009030CE001630CF0010307A210A128A1589
:101A24002730CE000230CF0011307A210A128A15F5
:101A34001E30A400A501BD211C30CE00CF01123000
:101A44007A210A128A151E30A400A501BD21CE01F7
:101A54001830CF0013307A210A128A151C30CE00B8
:101A6400CF0129307A210A128A150D30CE00CF0118
:101A74002B307A210A128A151E30A400A501BD213B
:101A8400CE01CF0120307A210A128A15CE01CF016E
:101A940021307A210A128A150730CE00CF01303066
:101AA4007A210A128A150230CE000330CF00313079
:101AB4007A210A128A150530CE000130CF00323067
:101AC4007A210A128A150630CE000230CF00353052
:101AD4007A210A128A150830CE00CF0036307A21D6
:101AE4000A128A150630CE000230CF0037307A2130
:101AF4000A128A150430CE000530CF0038307A211E
:101B04000A128A150730CE00CF0139307A210A1221
:101B14008A150530CE000130CF003C307A210A12FC
:101B24008A150830CE00CF003D307A210A128A157A
:101B3400CE01CF0150307A210A128A15EF30CE003F
:101B4400CF0151307A210A128A15CE01CF015230C9
:101B54007A210A128A151E30A400A501BD213F3046
:101B6400CE000130CF0053307A210A128A151E307C
:101B7400A400A501BD21CE01A730CF0060307A2199
:101B84000A128A15CE01CE0ACF0161307A210A12D7
:101B94008A15CE01CF016A307A210A128A15CE0144
:101BA400CF0180307A210A128A15CE01CF0181300B
:101BB4007A210A128A15CE01CF0182307A210A12C3
:101BC4008A15CE01CF0183307A210A128A15CE01FB
:101BD400CF0184307A210A128A15CE01CF018530D3
:101BE4007A210A128A151030CE00CF0190307A2162
:101BF4000A128A15CE01CF0192307A210A128A156F
:101C04000330CE00CF0193307A210A128A151030A6
:101C1400CE000130CF0095307A210A128A15CE0108
:101C2400CF0197307A210A128A15CE01CF0198305C
:101C34007A210A128A153330CE000130CF000730E2
:101C44007A2983013308C6003408C7000F303307EC
:101C5400C8000030031801303407C9003508CA0031
:101C64003608CB000F303507CC00003003180130A4
:101C74003607CD008821C001C101370884008313D1
:101C84000008C4002230FC00FD014108FB004008AC
:101C9400FA000A128A15B2207F08063EEF007E0879
:101CA400423E0318EF0A0A128A112C200A128A15DE
:101CB4004406031DC92E370A840083130008C50097
:101CC4002230FC00FD014108FB004008FA000A1222
:101CD4008A15B2200130FE070318FF0A7F08063E6A
:101CE400EF007E08423E0318EF0A0A128A112C20E4
:101CF4000A128A154506031DC92EBE01BF012230F2
:101D0400FC00FD014108FB004008FA000A128A1594
:101D1400B2203E08FE070318FF0A3F08FF070230FF
:101D2400FE070318FF0A7F08063EEF007E08423EC6
:101D34000318EF0A0A128A112C200A128A15C2000B
:101D4400C301BC01BD01C21FAB2E3808C60039084F
:101D5400AE2E3A08C6003B08C70063210A128A1552
:101D64000310C20DC30DBC0A0319BD0A00303D02A5
:101D7400083003193C02031CA52EBE0A0319BF0A2E
:101D840000303F02203003193E02031C812EC00A9A
:101D94000319C10A0030410210300319400203182C
:101DA40008003F2E83013308C6003408C7000730FB
:101DB4003307C8000030031801303407C900350860
:101DC400CA003608CB000F303507CC0000300318AA
:101DD40001303607CD008821BE01BF013708C1009C
:101DE400C201C10EC20EF030C20541080F39C2044F
:101DF400F030C1053E08C1070318C20A3F08C207F4
:101E04000030C1070318C20AFE30C2074208003E70
:101E1400EF004108423E0318EF0A0A128A112C20EF
:101E24000A128A15C000BC01BD01C01F1D2F38084D
:101E3400C6003908202F3A08C6003B08C7006321B2
:101E44000A128A150310C00DBC0A0319BD0A00301A
:101E54003D02083003193C02031C172FBE0A031964
:101E6400BF0A00303F02103003193E020318080075
:101E7400F02E8301AD01AE01A42F2E0828078400A3
:101E84008313803000020318702F2D08B100B201B3
:101E94000310B10DB20D0310B10DB20D0310B10D4D
:101EA400B20D24083107B30025080318250A3207A8
:101EB400B4002608B5002708B6002E0828078400B9
:101EC4000008B7002908B8002A08B9002B08BA008E
:101ED4002C08BB00D426AE0AAD0AA42F2E0828076E
:101EE400840083130008AF002E082807B100310ACC
:101EF400840083130008B0002D08B100B201031060
:101F0400B10DB20D0310B10DB20D0310B10DB20D30
:101F140024083107B30025080318250A3207B40042
:101F24002608B5002708B6002F30B7002908B800E6
:101F34002A08B9002B08BA002C08BB00232602305B
:101F4400AE07AD072E082807840083138008031901
:101F540008003F2F203420342034C034B634D03429
:101F6400BE34BF34C634BC34BC3420342034D334FF
:101F7400EB34C434FA34CD34AC34D034D0340034FB
:101F84003034313432343334343435343634373411
:101F94003834393400342934283460342C342E3421
:101FA4002F343C343E3427343B343A345B345D3490
:101FB4007B347D347C343F342D343D342B342A340B
:101FC40026345E34253424340034B134B134B73487
:101FD400BD34C034B634D034BE34BF34C634BC345B
:101FE400BC34BF34AA34B734A234D334D034CF345D
:0C1FF400DE34B934AB34CB34BE340034DE
:102D9600831603138801FF30831288008316860189
:102DA600831286000800CB262830A0009330A100AD
:102DB6000A128A15DC21A401A501F030A600A7019C
:102DC600A801A9014030AA00AB011F30AC00AD013B
:102DD6000A128A151521A401A501F030A600A70143
:102DE6004030A800A9018030AA00AB01E030AC0059
:102DF6000730AD000A128A151521A401A501F0308D
:102E0600A600A7018030A800A901C030AA00AB0126
:102E16001F30AC00F830AD000A128A151521A40146
:102E2600A501F030A600A701C030A800A901AA019B
:102E36000130AB00AC01F830AD000A128A1515213D
:102E4600A401A501F030A600A701A8010130A90040
:102E56004030AA000130AB00E030AC00FF30AD00DE
:102E66000A128A1515211830A400A5011030A600F3
:102E7600A7015530A800FF30A900AA001F30AB00FB
:102E8600AC010A128A153B271830A400A501283088
:102E9600A600A701A030A800FF30A900AA001F3095
:102EA600AB00AC010A128A153B275030A400A501DD
:102EB6004830A600A701B630A800A901AA01E03053
:102EC600AB000730AC000A128A153B271030A4006D
:102ED600A5016030A600A701C130A800A901AA017A
:102EE600E030AB000730AC000A128A153B273830B9
:102EF600A2000130A3004430A400A5012208A600C8
:102F06002308A7001F30A800A9010A128A15C720A6
:102F16000A168A11A2080319A303A2030130230289
:102F2600093003192202443003187F2FA200A3019F
:102F36002208A4002308A5000830A6000130A70037
:102F46001F30A800A9010A128A15C7200A168A117D
:102F5600A20A0319A30A00302302AC300319220285
:102F6600031C9B2F0830A2000130A300AC30A40044
:102F7600A5012208A6002308A7001F30A800A90162
:102F86000A128A15C7200A168A11A20A0319A30A69
:102F960001302302383003192202AC30031CBA2F49
:102FA600A200A3012208A4002308A5003830A60029
:102FB6000130A7001F30A800A9010A128A15C720F0
:102FC6000A168A11A2080319A303A20300302302DA
:102FD6004530031922020318D52F1030A4002730DC
:102FE600A5000A128A15BD21A401F830A5000A120F
:0A2FF6008A15E4200A168A11DE2E67
:02400E00793FF8
:00000001FF
