:040000000C94470015
:01008C000073
:14008E00CFEFD0E1CDBFDEBFCE51D0400AEA08830024E1E033
:1400A200F1E011E0E530F10711F00192FBCF0083ECE8F0E0F6
:1400B600A0E0B1E010E000E00BBFED38F10721F0C895319639
:1400CA000D92F9CF0E94CD00FFCF000000000000000000007E
:1400DE00000008950000000000000000000000000000000071
:1400F2000000000000000000000000000000000000000000FA
:140106000000000000000895E9DFE8DFE7CFFCDFFBDFFADF75
:14011A00F9CFFBDFFACF4A93402F01C0FADF242E3324415046
:14012E002220D1F749910895F2DFF1DFF0DFEFDFEEDFEDDF65
:14014200ECDFEBDFEADFE9CF4A935A93A80101C0F1DF1A0174
:14015600415050402220D1F73320C1F75991499108954A9321
:14016A00402F03C008EE13E0EBDF242E332441502220C1F768
:14017E0049910895949A959A8FEF8BBB9598222428BA87BB3E
:14019200089580E58DB90895F3DFFBDF3CC02224332430926D
:1401A6000401209203012DC0C098809103019091040180701A
:1401BA0090930201809301011C01232C3324309202012092BC
:1401CE0001012FB82090030130900401222011F4332019F018
:1401E20041E050E002C0442755274FB901E010E0ABDFC09A52
:1401F6008091030190910401019690930401809303018091D3
:12020A000301909104018C3FEFE09E0758F2C3CF089500
:00000001FF
