:100000000C9446000C9465000C9465000C946500FB
:100010000C9465000C9465000C9465000C946500CC
:100020000C9465000C9465000C9465000C946500BC
:100030000C9465000C9465000C9465000C946500AC
:100040000C9465000C9465000C9465000C9465009C
:100050000C9465000C9465000C9465000C9465008C
:100060000C9465000C9465000C9465000C9465007C
:100070000C9465000C9465000C9465000C9465006C
:100080000C9465000C9465000C94650011241FBE4F
:10009000CFEFD0E1DEBFCDBF1DE0A0E0B1E0E4E1F5
:1000A000F0E100E00BBF02C007900D92A03BB1074A
:1000B000D9F71DE0A0EBBDE001C01D92A33BB10745
:1000C000E1F70E9436060C9408080C94000008958D
:1000D0001A98E2E6F0E090819B7F90839081916096
:1000E000908390819D7F908365BB90819860908381
:1000F0009081977F908385BB8081826080831A9AEC
:1001000008951A98E2E6F0E090819460908365BBD0
:100110009081986090839081977F908385BB808148
:100120008D7F80838081826080831A9A0895682FF2
:10013000892F0E94810008950F931F93982F8B01A0
:1001400080E0692F0E946800812F602F0E9481004B
:100150001F910F9108951B9A83E397E00197F1F7A0
:100160001B9880E098E40197F1F71B9A24EF31E0A7
:1001700048EB50E0CA010197F1F721503040D1F728
:100180008091B10D9091B20D23E98032920709F46C
:1001900013C125E18530920709F4FFC188529349C4
:1001A00009F0089581E060E071E00E949C0082E027
:1001B00060E077E00E949C0083E060E370E10E94D1
:1001C0009C0084E060E070E00E949C0084EA61E0B2
:1001D00070E00E949C0088E062E072E00E949C0057
:1001E00089E060E070E00E949C008AE060E070E0DE
:1001F0000E949C008CE060E070E00E949C008DE01A
:1002000060E070E00E949C008FE060E070E00E947F
:100210009C0080E160E070E00E949C0081E167E06A
:1002200070E00E949C0082E160E070E00E949C000F
:1002300083E160E070E00E949C0080E160E976E18B
:100240000E949C0081E167E272E00E949C0082E1D2
:100250006CE170E00E949C0083E160E078E10E9424
:100260009C0089E26CE170E00E949C008BE26DE0F2
:1002700070E00E949C0080E260E070E00E949C00C0
:1002800081E260E070E00E949C0080E367E070E043
:100290000E949C0081E362E073E00E949C0082E384
:1002A00065E071E00E949C0085E366E072E00E94D8
:1002B0009C0086E368E078E00E949C0087E366E0AB
:1002C00072E00E949C0088E364E075E00E949C005C
:1002D00089E367E070E00E949C008CE365E071E0D8
:1002E0000E949C008DE368E078E00E949C0080E51D
:1002F00060E070E00E949C0081E56FEE70E00E947B
:100300009C0082E560E070E00E949C0083E56FE362
:1003100071E00E949C0080E660E077EA0E949C0009
:1003200081E661E070E00E949C008AE660E070E097
:100330000E949C0080E860E070E00E949C0081E8E0
:1003400060E070E00E949C0082E860E070E00E9443
:100350009C0083E860E070E00E949C0084E860E01C
:1003600070E00E949C0085E860E070E00E949C00C4
:1003700080E960E170E00E949C0082E960E070E04A
:100380000E949C0083E963E070E00E949C0085E984
:1003900060E171E00E949C0087E960E070E00E94EB
:1003A0009C0088E960E070E00E949C0087E063E3C5
:1003B00071E00E949C00089580E061E070E00E947E
:1003C0009C0081E060E071E00E949C0082E060E0BF
:1003D00077E00E949C0083E060E370E10E949C0053
:1003E00084E060E070E00E949C0088E062E072E0DF
:1003F0000E949C0089E060E070E00E949C008AE01E
:1004000060E070E00E949C008CE060E070E00E9480
:100410009C008DE060E070E00E949C008FE060E056
:1004200070E00E949C0080E160EB76E10E949C00FD
:1004300081E167E070E00E949C0082E16AE371E084
:100440000E949C0083E160E07AE10E949C0089E2C6
:100450006CE070E00E949C0080E360E070E00E942D
:100460009C0081E365E075E00E949C0082E364E00B
:1004700073E00E949C0085E366E070E00E949C00AF
:1004800086E367E077E00E949C0087E365E071E027
:100490000E949C0088E362E070E00E949C0089E377
:1004A00067E077E00E949C008CE364E077E00E94C4
:1004B0009C008DE367E078E00E949C0080E560E0AE
:1004C00070E00E949C0081E56FEE70E00E949C004D
:1004D00082E560E070E00E949C0083E56FE371E0DC
:1004E0000E949C0080E660E077E20E949C0081E62A
:1004F00061E070E00E949C008AE660E070E00E948B
:100500009C0080E260E070E00E949C0081E260E07C
:1005100070E00E949C0080E860E070E00E949C0017
:1005200081E860E070E00E949C0082E860E070E09A
:100530000E949C0083E860E070E00E949C0084E8D8
:1005400060E070E00E949C0085E860E070E00E943E
:100550009C0080E960E170E00E949C0082E960E01C
:1005600070E00E949C0083E963E070E00E949C00C0
:1005700085E960E171E00E949C0087E960E070E03D
:100580000E949C0088E960E070E00E949C0087E087
:1005900063E771E00E949C00089580E061E070E0F4
:1005A0000E949C0081E060E071E00E949C0082E07B
:1005B00060E077E00E949C0083E060E370E10E94CD
:1005C0009C0084E060E070E00E949C0088E062E0B3
:1005D00072E00E949C0089E060E070E00E949C0054
:1005E0008AE060E070E00E949C008CE060E070E0D7
:1005F0000E949C008DE060E070E00E949C008FE013
:1006000060E070E00E949C0080E160EB76E10E9477
:100610009C0081E167E070E00E949C0082E16AE357
:1006200071E00E949C0083E160E07AE10E949C00FE
:1006300089E26CE070E00E949C0080E360E070E082
:100640000E949C0081E365E075E00E949C0082E3CB
:1006500064E073E00E949C0085E366E070E00E9425
:100660009C0086E367E077E00E949C0087E365E0FA
:1006700071E00E949C0088E362E070E00E949C00B0
:1006800089E367E077E00E949C008CE364E077E018
:100690000E949C008DE367E078E00E949C0080E56A
:1006A00060E070E00E949C0081E56FEE70E00E94C7
:1006B0009C0082E560E070E00E949C0083E56FE3AF
:1006C00071E00E949C0080E660E077E20E949C005E
:1006D00081E661E070E00E949C008AE660E077E2DB
:1006E0000ECFAF92BF92CF92DF92EF92FF920F9315
:1006F0001F936C018B015A01790180E5B6010E94BC
:100700009C0081E5B8010E949C0082E5B5010E9431
:100710009C0083E5B7010E949C0080E2B6010E9424
:100720009C0081E2B5010E949C0080E062E20E9490
:1007300068001F910F91FF90EF90DF90CF90BF90D6
:10074000AF9008958F929F92AF92BF92CF92DF9217
:10075000EF92FF920F931F93CF93DF935C017B0186
:10076000EA0149010E9471038C169D0690F06E010A
:10077000EA14FB0440F0E501C8010E9497002196AD
:10078000EC16FD06C8F70894C11CD11C8C149D04FE
:1007900078F7DF91CF911F910F91FF90EF90DF904D
:1007A000CF90BF90AF909F908F9008952F923F92DF
:1007B0004F925F926F927F928F929F92AF92BF9271
:1007C000CF92DF92EF92FF920F931F93CF93DF931D
:1007D000FC01DB011A01490158017796BF01AD0107
:1007E00057969D010E9471034FED642E47E0742ED1
:1007F000442455240CC00894411C511C8AE490E008
:10080000680E791E9BE04916510409F448C0F301B3
:100810009081F1018081981771F7F3019181F101C5
:100820008181981741F7C201880F991F880F991F7E
:100830007C01EE0CFF1CEE0CFF1CEE0CFF1CE80E06
:10084000F91EE40CF51CEE0CFF1C81EE97E0E80E9F
:10085000F91ECC24DD24F7018081082F10E0C0E0D0
:10086000D0E009C0C4010E9497002196C830D1058C
:1008700059F0000F111F07FDF5CFC5010E94970029
:100880002196C830D105A9F70894C11CD11C089441
:10089000E11CF11CF8E4CF16D104E9F6ACCFDF91EE
:1008A000CF911F910F91FF90EF90DF90CF90BF906D
:1008B000AF909F908F907F906F905F904F903F9000
:1008C0002F9008952F923F924F925F926F927F9256
:1008D0008F929F92AF92BF92CF92DF92EF92FF9250
:1008E0000F931F93CF93DF93FC01DB011A014901A2
:1008F00058013F96BF01AD011F969D010E947103F3
:10090000E3EC6E2EEAE07E2E442455240CC00894BD
:10091000411C511C82E290E0680E791E90E249165B
:10092000510409F442C0F3019081F10180819817CC
:1009300071F7F3019181F1018181981741F77201FB
:10094000E294F29470EFF722FE24E722FE24E40CF6
:10095000F51CEE0CFF1C85EC9AE0E80EF91ECC2489
:10096000DD24F7018081082F10E0C0E0D0E009C04D
:10097000C4010E9497002196C830D10559F0000F9C
:10098000111F07FDF5CFC5010E9497002196C830C1
:10099000D105A9F70894C11CD11C0894E11CF11CD5
:1009A000F0E2CF16D104E9F6B2CFDF91CF911F91DB
:1009B0000F91FF90EF90DF90CF90BF90AF909F90FE
:1009C0008F907F906F905F904F903F902F90089501
:1009D0008F929F92AF92BF92CF92DF92EF92FF924F
:1009E0000F931F93CF93DF93FC01DB01F42E59018A
:1009F00068013796BF01AD011F969D010E947103EA
:100A00004F2D50E04052504042955295507F542710
:100A1000407F5427AFEDEA2EA1E0FA2EE40EF51E3A
:100A2000FFEE8F2EF1E09F2E840E951EF7011081B0
:100A3000C0E0D0E008C0C6010E9497002196C830EF
:100A4000D10551F0110F17FFF6CFC5010E94970095
:100A50002196C830D105B1F70894E11CF11CE814C7
:100A6000F90421F7DF91CF911F910F91FF90EF9043
:100A7000DF90CF90BF90AF909F908F9008956F922E
:100A80007F928F929F92AF92BF92CF92DF92EF921E
:100A9000FF920F931F93CF93DF933C014B01EA0129
:100AA00059016801FF240CE0E02E48814423B1F095
:100AB00047FD23C08F2D90E0880F991F880F991F45
:100AC000880F991F860D971DB401950186010E941C
:100AD000E8042196F3944881442351F7DF91CF91A4
:100AE0001F910F91FF90EF90DF90CF90BF90AF904C
:100AF0009F908F907F906F900895FE9CC00111246D
:100B0000860D971DB401AE01950186010E94D603A2
:100B1000229682E0F80EC9CF6F927F928F929F92B9
:100B2000AF92BF92CF92DF92FF920F931F93CF931A
:100B3000DF933C014B01EA0159016801FF24488120
:100B40004423B1F047FD22C08F2D90E0880F991FFC
:100B5000880F991F880F991F860D971DB401950165
:100B600086010E94E8042196F3944881442351F7BA
:100B7000DF91CF911F910F91FF90DF90CF90BF90A9
:100B8000AF909F908F907F906F9008958F2D90E001
:100B9000880F991F880F991F880F991F860D971D21
:100BA000B401AE01950186010E946204229682E0A2
:100BB000F80EC5CFEF92FF920F931F93CF93DF9361
:100BC0008C0180E090E060EF70E040E050E020E4D5
:100BD00031E00E947103EE24FF24C0E0D0E0C801A0
:100BE0000E9497002196C03FD105C9F70894E11CE7
:100BF000F11C80E4E81681E0F80679F7DF91CF91E7
:100C00001F910F91FF90EF9008950F931F93FC0198
:100C10009B018A01BF01A9010E947103C8010E94C2
:100C200097001F910F9108958FEF809361001092AC
:100C3000620082B983B984BB15BA089513B828E855
:100C400033E148EB50E0CA010197F1F72150304001
:100C5000D1F78FEF83B928E833E148EB50E0CA01C0
:100C60000197F1F721503040D1F70895CF92DF92EC
:100C7000EF92FF920F931F93CF93DF930E9414067E
:100C80000E941E0680E293E99093B20D8093B10D0D
:100C90000E94AB00E8EBEE2EF12CC12C78EDD72EA4
:100CA0008FE198EF0E94DA0583E290E06CE870E053
:100CB00040E051E020EE3FEF0FE118EF0E943F05CA
:100CC00028E833E1C7010197F1F721503040D1F70F
:100CD00083E590E06AEA70E04FE051E020EE3FEFFC
:100CE0000FE118EF0E943F0528EB3BE0C701019799
:100CF000F1F721503040D1F78BE690E06AEA70E0DE
:100D000042E151E020EE3FEF0FE118EF0E943F0576
:100D100028EB3BE0C7010197F1F721503040D1F7B4
:100D200083E890E06AEA70E045E151E020EE3FEFB1
:100D30000FE118EF0E943F0528EB3BE0C701019748
:100D4000F1F721503040D1F785E490E06CE271E09A
:100D500048E151E02FEF3FEF0FE118EF0E948C05C3
:100D600028EB3BE0C7010197F1F721503040D1F764
:100D700080E090E00E94DA05C0E0D0E084E390E0FB
:100D8000BE0147E251E02FEF3FEF00E010E00E948C
:100D90008C05C6010197F1F7A09681E0C034D80711
:100DA00069F728EB3BE0C7010197F1F7215030408C
:100DB000D1F780E090E00E94DA05C0E0D0E088E161
:100DC00090E0BE0149E351E02FEF3FEF00E010E07B
:100DD0000E948C05C6010197F1F7A09681E0C0340E
:100DE000D80769F728EB3BE0C7010197F1F72150DD
:100DF0003040D1F780E090E060EF70E040E050E0FC
:100E000020E430E00FE110E00E94A20380E090E0D7
:100E100060EF70E040E450E020E830E000EE17E0E2
:100E20000E94A20380E090E060EF70E040E850E0B4
:100E300020EC30E00FE118EF0E94A20380E090E088
:100E400060EF70E040EC50E020E031E000E018EFAF
:100E50000E94A20380E090E060EF70E040E051E08B
:100E600020E431E000EE1FEF0E94A20388E190E051
:100E700060E170E049E351E02FEF3FEF0FE110E058
:100E80000E948C0588E190E068E270E042E551E064
:100E90002FEF3FEF0E948C0580E590E068E470E062
:100EA00047E651E020E030E000EE17E00E948C05BC
:100EB00080E190E060E670E042E751E020E030E061
:100EC0000E948C0580E190E068E870E04CE851E019
:100ED0002FE130E00FE118EF0E948C0580E190E0F7
:100EE0006CE970E047EA51E02FE130E00E948C05A8
:100EF00080E190E068EC70E042EC51E020E030E00E
:100F000000E018EF0E948C0580E690E060EE70E053
:100F10004BED51E020E030E00E948C054091B20D95
:100F200042954F70405D88E790E060EE70E020E011
:100F300030E00E94E8044091B20D4F70405D80E8BF
:100F400090E060EE70E020E030E00E94E804409124
:100F5000B10D5091B20D529542954F7045275F707B
:100F600045274F70405D88E890E060EE70E020E03B
:100F700030E00E94E8044091B10D4F70405D80E97F
:100F800090E060EE70E020E030E00E94E804C8E30A
:100F9000D1E084E490E0BE014FE150E00E940506FC
:100FA000219781E0C830D807A1F704E410E0C80118
:100FB00068E071E04FE150E00E9405060F5F1F4FAF
:100FC0000C3A1105A1F78CEA90E0BE014FE150E028
:100FD0000E940506219681E0C833D807A1F7C80111
:100FE00068E371E04FE150E00E94050601501040B7
:100FF00004341105A1F720E23EE4C7010197F1F79F
:1010000021503040D1F780E098EF0E94DA0548CEB9
:04101000F894FFCF82
:10101400D0C0CAC0BCCDB5E7D7D3BFC6BCBC00BB2B
:10102400B600D3AD00C4FA007777772E6176726785
:1010340063632E636F6D00D0C0B4B4B5E7D7D32C0F
:10104400D3EBC4FACDACD0D000C4FEB2A8D0C0B4A7
:10105400B4B5E7D7D3BFC6BCBCD3D0CFDEB9ABCB16
:10106400BE00202020D0C0B4B4BFC6BCBC2CD3EB7F
:10107400C4FACDACD0D000303132333435363738C1
:1010840039002C2C602C2E2F3C3E273B3A5B5D7B99
:101094007D7C3F2D3D2B2A265E25240061626364FE
:1010A40065666768696A6B6C6D6E6F707172737474
:1010B40075767778797A00414243444546474849F2
:1010C4004A4B4C4D4E4F5051525354555657585904
:1010D4005A00546865204465766963652049432055
:1010E4004F66205446542049733A00494C49000045
:1010F40000000000000000000000000000000000EC
:10110400000010101010101010000018180000003B
:101114001236244800000000000000000000000017
:101124000000242424FE484848FE484848000000A3
:1011340000103854545030181414545438101000FB
:10114400000044A4A8A8A8541A2A2A2A440000008B
:10115400000030484848506EA49488897600000006
:10116400606020C0000000000000000000000000DB
:1011740002040808101010101010080804020000DF
:10118400402010100808080808081010204000002B
:101194000000001010D63838D610100000000000EF
:1011A40000000010101010FE1010101000000000BD
:1011B4000000000000000000000000606020C0008B
:1011C400000000000000007F00000000000000009C
:1011D400000000000000000000000060600000004B
:1011E40000010202040408081010202040400000FE
:1011F40000001824424242424242422418000000A5
:101204000000107010101010101010107C0000005E
:1012140000003C4242420404081020427E000000C8
:1012240000003C4242041804020242443800000018
:101234000000040C14242444447E04041E00000012
:1012440000007E40404058640202424438000000DE
:1012540000001C244040586442424224180000000C
:1012640000007E4444080810101010101000000004
:1012740000003C4242422418244242423C00000006
:1012840000001824424242261A02022438000000B8
:1012940000000000001818000000001818000000EA
:1012A40000000000000010000000000010102000EA
:1012B400000002040810204020100804020000006E
:1012C4000000000000FE000000FE0000000000001E
:1012D4000000402010080402040810204000000010
:1012E40000003C4242620204080800181800000092
:1012F400000038445AAAAAAAAAB4424438000000FA
:1013040000001010182828243C444242E700000042
:101314000000F8444444784442424244F800000047
:1013240000003E42428080808080424438000000B9
:101334000000F8444242424242424244F800000063
:101344000000FC424848784848404242FC00000003
:101354000000FC424848784848404040E000000013
:1013640000003C44448080808E8444443800000063
:101374000000E7424242427E42424242E70000000D
:1013840000007C1010101010101010107C000000D1
:1013940000003E0808080808080808080888F00043
:1013A4000000EE444850705048484444EE000000A9
:1013B4000000E0404040404040404042FE00000009
:1013C4000000EE6C6C6C6C5454545454D600000001
:1013D4000000C7626252524A4A4A4646E20000008E
:1013E4000000384482828282828282443800000073
:1013F4000000FC424242427C40404040E000000089
:10140400000038448282828282B2CA4C38060000CC
:101414000000FC4242427C4848444442E30000004D
:1014240000003E4242402018040242427C00000078
:101434000000FE9210101010101010103800000060
:101444000000E74242424242424242423C00000023
:101454000000E74242442424282818101000000009
:101464000000D692929292AAAA6C444444000000CE
:101474000000E7422424181818242442E70000003E
:101484000000EE444428281010101010380000000A
:1014940000007E840408081020204242FC00000062
:1014A4001E1010101010101010101010101E00003C
:1014B4000040402020101010080804040402020018
:1014C40078080808080808080808080808780000C8
:1014D4001C220000000000000000000000000000CA
:1014E4000000000000000000000000000000FF00F9
:1014F4006010000000000000000000000000000078
:101504000000000000003C421E2242423F00000056
:101514000000C04040405864424242645800000009
:101524000000000000001C22404040221C0000007B
:101534000000060202021E22424242261B00000054
:101544000000000000003C427E4040423C0000009D
:1015540000000F1110107E10101010107C000000FD
:101564000000000000003E444438403C42423C003D
:101574000000C04040405C6242424242E70000003A
:101584000000303000007010101010107C000000BB
:1015940000000C0C00001C0404040404044478003F
:1015A4000000C04040404E4850684844EE000000EF
:1015B4000000701010101010101010107C000000AB
:1015C400000000000000FE4949494949ED000000BF
:1015D400000000000000DC6242424242E7000000DA
:1015E4000000000000003C42424242423C00000035
:1015F400000000000000D864424242447840E00009
:101604000000000000001E22424242221E02070087
:10161400000000000000EE3220202020F80000002E
:101624000000000000003E42403C02427C000000FA
:101634000000000010107C10101010100C000000AE
:10164400000000000000C642424242463B00000047
:10165400000000000000E7422424281010000000CD
:10166400000000000000D79292AAAA44440000009F
:101674000000000000006E241818182476000000F2
:10168400000000000000E742242428181010E000A5
:101694000000000000007E44081010227E000000BC
:1016A40003040404040408040404040404030008F4
:1016B40008080808080808080808080808080800AE
:1016C400601010101010081010101010106000306E
:1016D4004C43000000000000000000000000000077
:1016E40000007E7E7E7E7E7E7E7E7E00000000D0B8
:1016F400C000000000000000000000000000000026
:10170400000000000E0018EE001FEE300C0FF00C6D
:101714000C700FEC800F9E000DA6000DC780198D74
:10172400C0398CF071987C70703E01E01C000000A0
:10173400000000000000000000CAC000000000001B
:1017440000000000000000000000000000002180F4
:101754000431800631800631803FFFF87FFFFE466A
:10176400319E063180063380063F80070000070063
:101774000007FFF007FFF000000000000000000079
:10178400000000BCCD0000000000000000000000CC
:1017940000000000000000010000033FE00638E004
:1017A4001CC0603180603F3FE00630600850003F5D
:1017B40090001C180000D8023F9E1E7E0FFE2003DE
:1017C400FC000078000000000000000000B5E70005
:1017D4000000000000000000000000000000000005
:1017E400000060000060003FFFC03FF1C03860C0EF
:1017F4001FFFC01860C01860C01FFFC01FE3800037
:101804007000003C0E003FFC000FFC0001F00000E3
:1018140000000000000000D7D3000000000000001A
:10182400000000000000000000000001FF8003FF32
:10183400C00703C0001F00001C003FFFFE7FFFFE27
:10184400780C3E000C00000E00000E00001C000688
:101854003C0001F8000060000000000000000000EF
:1018640000BFC600000000000000000000000000EF
:10187400000000000000C0E01FC060018E6011C3C2
:10188400603FE060039E600780600FE0601D9FFE84
:10189400399864F180600180600380600380600196
:1018A4000040000000000000000000BCBC0000007C
:1018B4000000000000000000000000000000000321
:1018C40003000303000303001FDFF0332300030FAF
:1018D400C003D0401F1C40130EC00303800303E069
:1018E400033E7C7FF83E3E001C0000000000000028
:1018F4000000000000BBB600000000000000000073
:101904000000000000000000000004000006001FAA
:10191400CC001FCFF800CC380C9E300FA660030714
:10192400800787801CCCC0780CE000387C00F03E37
:1019340003C01C000000000000000000000000D3F1
:10194400AD000000000000000000000000000000E6
:101954000000000004000C7C000E63F00363300000
:1019640063301F6330026320027FC00363000203FD
:10197400007FF300787FFE0007FE0001FC000030CA
:10198400000000000000000000C4FA000000000095
:101994000000000000000000000000000000D8006B
:1019A4000FBFE03F33201B53200333C00363700396
:1019B4009710020E000318801BD98030F200301FEC
:1019C400027007FE2001FC00007800000000000007
:1019D400000000B1B10440044004400444044E7CBF
:1019E4005804600440044004400C403442E442443F
:1019F40042043E0000B7BD020001000080FFFE0269
:101A040000020003F0021004100410081008101063
:101A1400102090C0600000C0B608400840FFFE08D7
:101A240040048024FC24A02510261004001FF0127A
:101A34009012901290FFFE0000D0BE042004207F7C
:101A4400FE0420042002000100099008884884480C
:101A54000648148810081807F00000BFC606087866
:101A64008808480848FE0818881C482A48280E4850
:101A7400788B8808080808080808080808BCBC10FF
:101A84002010201020FDFE1020142019FC3108D055
:101A9400881090106010601090110E56042000BF42
:101AA400AA00007FFE0420042004200420FFFE047A
:101AB400200420042008200820102020204020009A
:101AC40000B7A202002240223022107FFE2400042C
:101AD4000007E00C200A200A201140208041608683
:101AE4001C1808D3D0010001007FFE020004000F7F
:101AF400F0181028104FF0881008100FF008100884
:101B04009008700820CFDE0000FBF8920893F8A23A
:101B140008A20893F88A808A48AA509220822082D8
:101B240010828E83048200B9AB0000044006400496
:101B340040082008101018220E4304020004200854
:101B44001011F83F1810100000CBBE00003FFC003D
:101B54000400047FE4000400043FC4204420443F04
:101B6400C420442004001400080000D3EB00000843
:101B74000008040FFE080008000FFC000400040025
:101B8400247FF400040004004800300000C4FA0874
:101B940000090011FE12043440325052489444119A
:101BA400441080000029042892681207F00000CD38
:101BB400AC00007FFC400440045FF4400440044F48
:101BC400E44824482448244FE44824400440144072
:101BD40008D0D008001C0031FC400088000C001B19
:101BE400FE302050209020102010201020102010B3
:101BF400A01040C4FE020001043FFE20044008007F
:101C04000000007FFC01000100010001000100014F
:101C14000005000200B2A820401040104007FE84D6
:101C2400445440544017F825082490E49024602834
:101C3400602898310E2604D0C003403C4020402048
:101C44007E20843EA82520242024202420245044BF
:101C5400484488850606040000B4B4080208021447
:101C640012131221D24092BF1221122112251222E4
:101C74001220822082208A1F840000B5E70100011F
:101C84000001003FF8210821083FF821082108211C
:101C9400083FF821080102010200FE0000D7D3002A
:101CA400003FF0002000400080010001000104FF1B
:101CB400FE01000100010001000100050002000016
:00000001FF
