:040000000C947107E4
:14008C005B150B155B1C286E756C6C20707472207061737329
:1400A00065642900696E7465676572206F6E6C79207072691F
:1400B4006E74662C2073656C6563742050726F6A6563742D00
:1400C8003E4F7074696F6E732D3E5461726765742C22465044
:1400DC00207072696E74662220746F207072696E7420666CF9
:1400F0006F6174696E6720706F696E74206E756D6265727314
:140104003E0000202020202020202020303030303020202039
:14011800202020202020202020202020202020904040404063
:14012C0040404040404040404040400C0C0C0C0C0C0C0C0C93
:140140000C40404040404040090909090909010101010101A3
:14015400010101010101010101010101010140404040404009
:140168000A0A0A0A0A0A02020202020202020202020202022B
:14017C00020202020202404040402000000000000000000043
:1401900000000000000000000000000000000000000000005B
:1401A400000000000000000000000000000000000000000047
:1401B800000000000000000000000000000000000000000033
:1401CC0000000000000000000000000000000000000000001F
:1401E00000000000000000000000000000000000000000000B
:1401F4000000000000000000000000000000000000000000F7
:14020800000000426567696E20696E6974696E670D0A00498B
:14021C006E697420464154204661696C75726500496E69740C
:1402300020534420537563636573732100506C65617365206F
:14024400436865636B20534400496E6974204661696C7572FA
:14025800650057616974696E672E2E2E005374617274696EEB
:14026C006720496E69742053440053686F7720424D50206686
:14028000726F6D20534400444D4156522D31323820426F61F1
:1402940072640020202020202020008E008C000D0A53656156
:1402A80072636820436F6D706C6574656421000D0A57415226
:1402BC004E494E473A20454550524F4D2069732066756C6C11
:1402D0002C206E6F206D6F726520737061636521000D0A5367
:1402E4006561726368206F6E6520666F6C6465722C207772D0
:1402F8006974652074686520656E6420666C6167206966202F
:14030C00746865207468652076616C7565206973206E6F7491
:14032000207468652072696768742076616C7565000D0A4591
:1403340052524F523A2073656172636820666F6C64657220E4
:140348006572726F72000D0A536561726368496E6974000D69
:14035C000A466F756E64206120666F6C646572210041707028
:140370006C79204D656D6F7279204661696C757265000D0AFC
:140384005265616420454550524F4D20616464726573733AC1
:140398002025642076616C75652069733A20256C64000D0A09
:1403AC00577269746520454550524F4D206164647265737344
:1403C0003A256420776974682076616C75653A256C640046D8
:1403D400696E64696E672E00424D50204E756D3A004D420076
:1403E80053442053697A653A00000000000000000000000075
:1403FC000000000000000000000000000F08080808080808A6
:140410000000000000000000F8080808080808080008080890
:14042400080808080F0000000000000000080808080808085D
:14043800F80000000000000000080808080808080808080860
:14044C00080808080000000000000000FF000000000000007D
:1404600000000000183C7E7E7E3C18000000000000FFFFFF69
:14047400E7C3818181C3E7FFFFFFFFFF0000000000000000A2
:14048800000000000000000000000000000000000000000060
:14049C000000000000001F05050909101038444444380000B5
:1404B00000001C2222221C08087F08080808000000000000EB
:1404C40000000000000000000000000000031D11131D1111A1
:1404D80011131736706000000008085D222222632222225DD6
:1404EC00080800000008080808080808FF080808080808087D
:1405000000000103070F1F3F7F3F1F0F0703010000081C2A2A
:1405140008080808080808082A1C080000002424242424246D
:14052800242424000024240000001F25454545251D050505A7
:14053C00050500000008080808080808FF000000000000006A
:140550000000000000000000FF080808080808080008080848
:1405640008080808F80808080808080800081C2A08080808C5
:14057800080808080808080000080808080808080F080808D8
:14058C000808080800000000000004027F02040000000000B0
:1405A00000000000000010207F201000000000000000000068
:1405B400000000000000000000000000000000000000000033
:1405C80000000000000000000000000000000000000000001F
:1405DC0000000000000000000000000000000000000000000B
:1405F0000000000000000000000000000000000000000010E7
:1406040010101010101000001818000000123624480000009E
:140618000000000000000000000000242424FE484848FE4846
:14062C0048480000000010385454503018141454543810107A
:1406400000000044A4A8A8A8541A2A2A2A4400000000003066
:14065400484848506EA494888976000000606020C00000009D
:14066800000000000000000000020408081010101010100800
:14067C0008040200004020101008080808080810102040002C
:14069000000000001010D63838D610100000000000000000FA
:1406A40010101010FE101010100000000000000000000000C4
:1406B80000000000606020C000000000000000007F0000000F
:1406CC0000000000000000000000000000000000606000005A
:1406E0000000010202040408081010202040400000000018F1
:1406F400244242424242424224180000000000107010101014
:1407080010101010107C00000000003C4242420404081020CF
:14071C00427E00000000003C42420418040202424438000067
:14073000000000040C14242444447E04041E00000000007E9F
:140744004040405864020242443800000000001C244040584B
:1407580064424242241800000000007E4444080810101010D1
:14076C00101000000000003C4242422418244242423C0000F5
:140780000000001824424242261A02022438000000000000C3
:140794000000181800000000181800000000000000000010E1
:1407A800000000000010102000000002040810204020100847
:1407BC0004020000000000000000FE000000FE000000000027
:1407D000000000402010080402040810204000000000003CDF
:1407E40042426202040808001818000000000038445AAAAAAB
:1407F800AAAAB442443800000000001010182828243C4442B9
:14080C0042E70000000000F8444444784442424244F800002D
:140820000000003E424280808080804244380000000000F8CC
:14083400444242424242424244F80000000000FC424848781C
:140848004848404242FC0000000000FC4248487848484040F6
:14085C0040E000000000003C44448080808E84444438000052
:14087000000000E7424242427E42424242E700000000007C9C
:140884001010101010101010107C00000000003E08080808F6
:1408980008080808080888F0000000EE444850705048484446
:1408AC0044EE0000000000E0404040404040404042FE0000E6
:1408C000000000EE6C6C6C6C5454545454D60000000000C745
:1408D400626252524A4A4A4646E2000000000038448282825A
:1408E8008282828244380000000000FC424242427C40404038
:1408FC0040E0000000000038448282828282B2CA4C380600BC
:14091000000000FC4242427C4848444442E300000000003E1A
:140924004242402018040242427C0000000000FE92101010FD
:140938001010101010380000000000E742424242424242422C
:14094C00423C0000000000E74242442424282818101000009A
:14096000000000D692929292AAAA6C4444440000000000E7F2
:14097400422424181818242442E70000000000EE4444282866
:1409880010101010103800000000007E84040808102020422B
:14099C0042FC0000001E1010101010101010101010101E000D
:1409B00000004040202010101008080404040202007808089B
:1409C400080808080808080808087800001C22000000000019
:1409D80000000000000000000000000000000000000000000B
:1409EC00000000FF0060100000000000000000000000000088
:140A0000000000000000003C421E2242423F0000000000C0A1
:140A1400404040586442424264580000000000000000001CB4
:140A280022404040221C0000000000060202021E2242424288
:140A3C00261B0000000000000000003C427E4040423C00006B
:140A50000000000F1110107E10101010107C00000000000008
:140A64000000003E444438403C42423C000000C04040405C68
:140A78006242424242E7000000000030300000701010101009
:140A8C00107C00000000000C0C00001C0404040404044478C2
:140AA000000000C04040404E4850684844EE0000000000708A
:140AB4001010101010101010107C000000000000000000FE24
:140AC8004949494949ED000000000000000000DC62424242BC
:140ADC0042E70000000000000000003C42424242423C00001B
:140AF00000000000000000D864424242447840E00000000014
:140B04000000001E22424242221E020700000000000000EEA0
:140B18003220202020F80000000000000000003E42403C0221
:140B2C00427C0000000000000010107C10101010100C0000FF
:140B400000000000000000C642424242463B00000000000052
:140B5400000000E7422424281010000000000000000000D7FD
:140B68009292AAAA44440000000000000000006E241818189F
:140B7C002476000000000000000000E742242428181010E01A
:140B9000000000000000007E44081010227E000000030404BC
:140BA4000404040804040404040403000008080808080808D6
:140BB8000808080808080808006010101010100810101010F1
:140BCC0010106000004C430000000000000000000000000006
:140BE000000000000000000000000000000000000008000FEA
:140BF400FC1080108020804FF88880088008800880FFFE004D
:140C080080008000800080008007F004100410041007F0042A
:140C1C00100410041007F00410081008101010205040200061
:140C30000000001FF010101010101010101FF01010101010C2
:140C440010101010101FF0101000000000001000107C10442D
:140C58001047FE44107C104510449044907C100010001000AA
:140C6C00100050002008800C800840102010302018400E9F03
:140C8000E40420042004200420082010A0204040000C20F058
:140C94002010201128FDA4112232223A2054225422900410B1
:140CA80008101010601180160000083FFC20083FF820083FF0
:140CBC00F8010021083FFC21004110BFF801000104FFFE009B
:140CD000002204227E22447F4422443E7C22443E4422442291
:140CE4007CFFC400442444228441148208000000000000008C
:140CF80000000000000004FFFE0000000000000000000000E7
:140D0C0000000000000000000000103FF8000000000000008C
:140D2000000000000000000004FFFE000000000000000000BE
:140D3400087FFC00000000000000103FF800000000000000E1
:140D4800000004FFFE00000000000000047FFE4444444444C1
:140D5C0044444444444444443C4804500440047FFC40040084
:140D700000000000087FFC02000200020002103FFC04100481
:140D8400100410081008100814FFFE000000000400020003E5
:140D9800000104FFFE0000000004400C2008101018100C2059
:140DAC000C4004000000101FF8101010101010101010101FFD
:140DC000F0101010101010101010101FF0101000000100015E
:140DD4000001000100011001F80100010001000100010001F9
:140DE8000001000104FFFE00000004FFFE02000200020002EB
:140DFC008002400230021002000200020002000200020002CF
:140E100000080008100FF811001100210041000104FFFE0120
:140E2400000100010001000100010001000240074038402093
:140E380040207E20823F2424202420242024502450448844FF
:140E4C00888506020401101110111011101114FFFE111011B1
:140E6000101110111011F01110100010081FFC0000080008B7
:140E74000413FE10042404FC04080411FC2104FD004100019C
:140E8800001D02E10240FE00000200020002107FF8421042F5
:140E9C00107FF0421042107FF0421002000204020401FC0053
:140EB0000000003FF000100020004001800104FFFE0100010A
:140EC4000001000100010001000500020000F8E0071F00E031
:090ED800FF0000FFFFFF071FF8F7
:140EE200CFEFD0E1CDBFDEBFCE51D0400AEA08830024EAEDBB
:140EF600FDE01EE0E033F10711F00192FBCF0083E7E0F2E088
:140F0A00A0E0B1E01EE000E00BBFE13EF10721F0C8953196CE
:140F1E000D92F9CF0E947A0AFFCF0000000000000000000064
:140F320000000895000000000000000000000000000000000E
:140F4600000000000000000000000000000000000000000097
:140F5A000000000000000895E9DFE8DFE7CFFCDFFBDFFADF13
:140F6E00F9CFFBDFFACF4A93402F01C0FADF242E33244150E4
:140F82002220D1F749910895F2DFF1DFF0DFEFDFEEDFEDDF03
:140F9600ECDFEBDFEADFE9CF4A935A93A80101C0F1DF1A0112
:140FAA00415050402220D1F73320C1F75991499108954A93BF
:140FBE00402F03C008EE13E0EBDF242E332441502220C1F706
:140FD200499108950E94AD21EF97289781E090E09BAF8AAF8B
:140FE60000241124FE01EF5BFF4F1182008288A72090020110
:140FFA0030900301222009F065C0332009F062C022243324B4
:14100E003092010120920001CE0188969983888320E031E032
:141022008E01085F1F4F0E94BF12FE01EC5BFF4F008320901C
:1410360000013090010130920301209202018FEF9FEF9B833E
:14104A008A8389E0888328E08AE090E00091020110910301F6
:14105E002F933F939C010E94CE203F912F91005D1F4F0E94C0
:1410720013198FEF9FEF9B838A8389E0888329E08AE090E0B0
:1410860000910201109103012F933F939C010E94CC203F918E
:14109A002F91005D1F4F0E9413198FEF9FEF9B838A8389E049
:1410AE0088832AE000E911E00E94F01908EE13E06FDF81E0FC
:1410C20090E090930101809300010FC0CE018896998388838E
:1410D60020E031E08E01085F1F4F0E94BF12FE01EC5BFF4F8A
:1410EA0000832C8C3D8C442455242101222433246AA07BA029
:1410FE0088249924620C731C841C951C6C827D828E829F8209
:1411120000240CAE8FE990E0FE01FF969183808308AE11246D
:141126001BAE0AAEFE01ED5BFF4F008200E012E00E949A22ED
:14113A005801CEC100241124FE01EF5BFF4F118200827BC178
:14114E00BB82AA82DE01AF5BBF4F0D901C90198208820C8132
:141162001D812E813F810E94D50DFE01EF5BFF4F0080118040
:141176000020C9F41120B9F4FE01ED5BFF4F0080002089F4F8
:14118A00F501228433243BAE2AAE248C26942694269429AEE8
:14119E0000240394FE01ED5BFF4F00823AC1002411241BAE4E
:1411B2000AAE35C189AD833009F057C0C8ACDD24CC2011F41C
:1411C600DD2059F0C6018130E0E09E07C9F08230E0E09E0722
:1411DA0009F42BC042C0EAADFBADEA0DFB1DE080FF24F594BD
:1411EE00E794F594E794F594E7940DAC1EAC0E281F281EAE9E
:141202000DAE2FC0EAADFBADEA0DFB1DE080FF24F594E79459
:14121600F594E79425E030E087010E94312278010DAC1EAC32
:14122A00002A112A1EAE0DAE18C0EAADFBADEA0DFB1DE0803E
:14123E00FF24F594E794F594E794F594E7942BE030E08701CA
:141252000E94312278010DAC1EAC002A112A1EAE0DAE08ACF7
:14126600039408AEA9C089AD823009F030C0C8ACDD24CC208C
:14127A0011F4DD2031F0C6018130E0E09E0759F020C0EAADA0
:14128E00FBADEA0DFB1D2080FE01EC5BFF4F208216C0EAAD52
:1412A200FBADEA0DFB1D208033243EAE2DAE0101102C002461
:1412B6001EAE0DAEFE01EC5BFF4F20803324022813281EAEE1
:1412CA000DAE08AC039408AE75C089AD843009F071C0C8AC97
:1412DE00DD24CC2011F4DD2071F0C6018130E0E09E0799F046
:1412F2008230E0E09E07C9F08330E0E09E07F9F05AC0EAAD66
:14130600FBADEA0DFB1D2080FE01EC5BFF4F208250C0EAAD9F
:14131A00FBADEA0DFB1D2080FE01EB5BFF4F208246C0EAAD96
:14132E00FBADEA0DFB1D2080FE01EA5BFF4F20823CC0FE0125
:14134200EC5BFF4FE080FF24F594E794F594E794F594E79473
:141356000DAC1EAC0E281F281EAE0DAEFE01EB5BFF4FE08009
:14136A00FF24F594E794F594E79425E030E087010E943122B2
:14137E000DAC1EAC002A112A1EAE0DAEFE01EA5BFF4FE080FA
:14139200FF24F594E794F594E794F594E7942BE030E0870175
:1413A6000E94312278010DAC1EAC002A112A1EAE0DAE08ACA2
:1413BA00039408AE8AAD9BAD01969BAF8AAF08AC09AD0016B9
:1413CE0041F50DAC1EAC19820882FE01FF96208131810CAD8D
:1413E2000E94411A002411241EAE0DAE0CAC03940CAE802D64
:1413F600803888F0FE01FF96808191810197FE01FF969183CC
:14140A008083019621F485010E94992362C000240CAE002417
:14141E0008AE8AAD9BAD8030E2E09E0708F4C4CEFE01EF5B97
:14143200FF4F808191810196FE01EF5BFF4F91838083209050
:14144600040E3090050EFE01EF5BFF4F0080118002141304D8
:14145A0008F478CE85010E9499230C811D812E813F810E941C
:14146E00220E0C831D832E833F8300E012E00E949A227801EF
:1414820057014FEF5FEF6FEF7FE02C803D804E805F80241665
:14149600350646065706D1F048EF5FEF6FEF7FE024163506E6
:1414AA004606570689F02090F30D222089F44FEF5FEF60E0D1
:1414BE0070E02C803D804E805F80241635064606570621F481
:1414D20085010E94992301C031CEEF9628960C94A2218FEF3E
:1414E60082BB81BB949A959A8BBB959808952697AA240AE097
:1414FA0010E050DD0E94E8160E947B1C80916500806180937E
:14150E0065000E943518CC24DD24002711270E94C51844273B
:141522000DC080EE97E09B838A8322242882242F2F5F042FD4
:141536000E5E0E9487194395453088F380E098EF9B838A8319
:14154A0081E08883222700E811E00E94F0198EEE9EE09B833C
:14155E008A8382E0888322270FE611E00E94F01987E893EE35
:141572009D838C8381E38A838FE7888321E300270E94731AEA
:141586008FEE9FE09D838C8383E38A838FE7888323E3002705
:14159A000E94731ACC248FEF9FEF9B838A8384E0888322272F
:1415AE000EE511E00E94F0198FEF9FEF9B838A8385E08883F3
:1415C200222703E511E00E94F0190E94971401E010E0E4DC6A
:1415D6001CC0A39484E18A15C0F416C080E098EF9B838A834E
:1415EA0087E08883222706E411E00E94F01980E098EF9B83A7
:1415FE008A8388E08883222706E311E00E94F019E9CF0E9431
:14161200A414002301F78FEF9FEF9B838A8386E08883222700
:1416260005E211E00E94F0190E94540C002371F00CC080E07B
:14163A0098EF9B838A8387E08883222704E111E00E94F019AE
:14164E00F4CFFECF04E011E00E94F42526E530E101E31EE06A
:141662000E945D220E94291222C0B4DC08EE13E095DC08EEB4
:1416760013E092DC08EE13E08FDC2090020130900301409064
:14168A000001509001014214530438F4C20101969093010111
:14169E008093000106C081E090E09093010180930001DDCFA8
:1416B200269608950E94C020289780E098EF9B838A8388E010
:1416C6008883222701EE12E00E94F0198AE090E0088519852B
:1416DA002A853B858A930E9444228AE090E08A930E94442269
:1416EE000C831D832E833F8388EE93E0A0E0B0E00C811D8122
:141702002E813F81BA93AA939A938A930E94E8201093DD0D59
:141716000093DC0D88EE93E0A0E0B0E00C811D812E813F81B0
:14172A00BA93AA939A938A930E94EA2084E690E0A0E0B0E041
:14173E00BA93AA939A938A930E94E8201093DF0D0093DE0D0C
:1417520088EE93E0A0E0B0E00C811D812E813F81BA93AA9366
:141766009A938A930E94EA2084E690E0A0E0B0E0BA93AA9305
:14177A009A938A930E94EA208AE090E0A0E0B0E0BA93AA93F1
:14178E009A938A930E94E8201093E10D0093E00D88EE93E059
:1417A200A0E0B0E00C811D812E813F81BA93AA939A938A93B5
:1417B6000E94EA2084E690E0A0E0B0E0BA93AA939A938A93B5
:1417CA000E94EA208AE090E0A0E0B0E0BA93AA939A938A93A1
:1417DE000E94EA201093E30D0093E20D8EEE9EE09B838A8311
:1417F20088E0888328E00091DC0D1091DD0D005D1F4F0E94F6
:1418060013198EEE9EE09B838A8388E0888329E00091DE0D85
:14181A001091DF0D005D1F4F0E9413198EEE9EE09B838A836F
:14182E0088E088832AE00091E00D1091E10D005D1F4F0E94AF
:1418420013198EEE9EE09B838A8388E088832BE00091E20D43
:141856001091E30D005D1F4F0E94131980E098EF9B838A8342
:14186A0088E088832DE00EED12E00E94F01980E098EF9B834D
:14187E008A8389E08883222705ED12E00E94F0198FEF9FEFF1
:141892009B838A8389E0888328E00CEC12E00E94F0192C9644
:1418A60008950E94AD21EF97EF97EF97EF97EF97EF97EF9777
:1418BA00EF976697CC24DD24AA24BB24EE24FF2440E050E074
:1418CE0060E070E04A835B836C837D830E94EE15DE01AA5F4F
:1418E200BD4F0D931D932D933C93FE01EA5FFD4F0081118160
:1418F60022813381DDDE4FEF50E060E070E0FE01EA5FFD4F3A
:14190A002080318042805380241635064606570610F401E0E0
:14191E003AC1CE0106969983888300E010E020E030E0E091D7
:141932009801F09199010E94FA21002311F001E028C1CE0173
:1419460006966C01CE018C539E4F7C01FC0138962080318050
:14195A00428053802A823B824C825D8289E090E0DE01AA5F0D
:14196E00BD4F0D911D912D913C918A930E9444222A803B80F8
:141982004C805D80201631064206530648F040E050E060E0D2
:1419960070E04A835B836C837D833CC0CE01069699838883C5
:1419AA00F7010085118522853385E0919801F09199010E94F0
:1419BE00FA21002311F001E0E6C0CE0106966C01FC01E0801A
:1419D200FF248E2D893E01F18B3EF1F040E050E060E070E0E0
:1419E6004A835B836C837D83CE0106969983888300E010E0F1
:1419FA0020E030E0E0919801F09199010E94FA21E02E0023B6
:141A0E0011F001E0C0C0CE0106966C01F601E080FF248E2D55
:141A2200893E21F08B3E11F001E0B3C0C6010B965C01FC01F8
:141A360023843484222011F43320B1F022242092F30D238463
:141A4A0034843092070E2092060E42E050E060E070E050936E
:141A5E000F0E40930E0E7093110E6093100E16C081E08093EB
:141A7200F30DF501218C328C3092070E2092060E21A032A0CF
:141A860043A054A030920F0E20920E0E5092110E4092100ED7
:141A9A00F501208031803092090E2092080E32962080332491
:141AAE003092050E2092040E2A803B804C805D80F5016380A4
:141AC200748088249924620C731C841C951C7092010E609262
:141AD600000E9092030E8092020E2680378044245524309299
:141AEA00F50D2092F40D5092F70D4092F60D40E250E060E0E6
:141AFE0070E05A924A923A922A928A019B010E94622189E07F
:141B120090E08A930E9444221093F90D0093F80D3093FB0D1E
:141B26002093FA0D2091060E3091070EF501058111270E9400
:141B3A0052211801442455248090020E9090030E6090000EDB
:141B4E007090010E620C731C841C951C7092FD0D6092FC0D1F
:141B62009092FF0D8092FE0D4090FA0D5090FB0D2090F80DB0
:141B76003090F90D620C731C841C951C70920B0E60920A0E22
:141B8A0090920D0E80920C0E0027EF96EF96EF96EF96EF961E
:141B9E00EF96EF96EF9666960C94A2210E94C0200E94C2213E
:141BB200269742E050E060E070E00A851B852C853D85041BBF
:141BC600150B260B370B2090040E3090050E442455245A9216
:141BDA004A923A922A920E94622140900C0E50900D0E2090D9
:141BEE000A0E30900B0E200E311E421E531E2A823B824C826D
:141C02005D8208881988198208822E843F84442455240A81B8
:141C16001B812C813D81020D131D241D351DE0919801F09156
:141C2A0099010E94FA21002311F001E001C0002726960E9404
:141C3E00C721249608950E94C0200E94CC21EF97EF97EF97B0
:141C5200EF97EF97EF97EF97EF9762972090F30D222089F07C
:141C660087E090E0DE01A05FBD4F0D911D912D913C918A93B5
:141C7A000E9444220E831F832887398710C088E090E0DE0125
:141C8E00A05FBD4F0D911D912D913C918A930E9444220E83AA
:141CA2001F832887398742E050E060E070E0FE01E05FFD4FB1
:141CB6002080318042805380241635064606570628F408EF03
:141CCA001FEF2FEF3FE07EC02E803F80488459848090020E47
:141CDE009090030E6090000E7090010E620C731C841C951C66
:141CF2006A827B828C829D82CE010A96998388830A811B810B
:141D06002C813D81E0919801F09199010E94FA21002329F040
:141D1A0008EF1FEF2FEF3FE055C02090F30D222051F14FE7F4
:141D2E0050E060E070E0DE01A05FBD4F2D903D904D905C90A4
:141D420024223522462257222E823F824886598682E090E01F
:141D56000E811F81288539858A930E943822F801CE010A965E
:141D6A00E80FF91F20803180428053802A823B824C825D825A
:141D7E0023C04FEF50E060E070E0DE01A05FBD4F2D903D90FC
:141D92004D905C9024223522462257222E823F8248865986D8
:141DA600CE010A96EE81FF81EE0FFF1FE80FF91F2080318050
:141DBA00442455242A823B824C825D820A811B812C813D818C
:141DCE00EF96EF96EF96EF96EF96EF96EF96EF9662960E943F
:141DE200D321249608954A9344270BC0E42FFF27E20FF31F53
:141DF6002080E42FFF27E00FF11F20824395483098F3442719
:141E0A000FC0C9010896E42FFF27E80FF91F2080C80108963E
:141E1E00E42FFF27E80FF91F20824395433078F3F90123846F
:141E3200F8012386F9012484F8012486F9012584F80125866E
:141E460044270FC0C9010E96E42FFF27E80FF91F2080C8012F
:141E5A000E96E42FFF27E80FF91F20824395423078F34427C6
:141E6E000FC0C9014096E42FFF27E80FF91F2080C80140966A
:141E8200E42FFF27E80FF91F20824395423078F344270FC073
:141E9600C9014296E42FFF27E80FF91F2080C8014296E42FFA
:141EAA00FF27E80FF91F20824395423078F3F9012488358835
:141EBE00F801358A248A44270FC0C9014696E42FFF27E80F9A
:141ED200F91F2080C8014696E42FFF27E80FF91F20824395DD
:141EE600423078F344270FC0C9014896E42FFF27E80FF91FE1
:141EFA002080C8014896E42FFF27E80FF91F20824395423059
:141F0E0078F3F901228C338CF801338E228EF901248C358C18
:141F2200468C578CF801248E358E468E578E499108953A938B
:141F36002A934A935A93A80124972E803F80488459842882EC
:141F4A0039824A825B829A0103EA12E00E94F42588E190E011
:141F5E000E811F81288539858A930E944422202F8A010E9434
:141F7200511C2E803F8048845984120144245524222D8A010A
:141F86000F5F1F4F0E94511C88E090E00E811F8128853985EA
:141F9A008A930E944422202F8A010E5F1F4F0E94511C2E809C
:141FAE003F8048845984222D8A010D5F1F4F0E94511C24963A
:141FC20059914991229608950E94B821A80128978A010E94E2
:141FD600451C1801442437FC4094552447FC50942C823D8201
:141FEA004E825F8288E090E00C811D812E813F818A930E9401
:141FFE0038220C831D832E833F838A010F5F1F4F0E94451C69
:142012001801442437FC4094552447FC50946C807D808E809B
:142026009F80620C731C841C951C6C827D828E829F8288E0B3
:14203A0090E00C811D812E813F818A930E9438220C831D8340
:14204E002E833F838A010E5F1F4F0E94451C580115014424CB
:1420620037FC4094552447FC50946C807D808E809F80620C3F
:14207600731C841C951C6C827D828E829F8288E090E00C81F3
:14208A001D812E813F818A930E9438220C831D832E833F837A
:14209E008A010D5F1F4F0E94451C58011501442437FC4094E8
:1420B200552447FC50946C807D808E809F80620C731C841CC7
:1420C600951C6C827D828E829F822C803D804E805F80288277
:1420DA0039824A825B829A010BE712E00E94F4250C811D8129
:1420EE002E813F8128960C94BD210E94C0200E94AD212E977C
:14210200002411241B860A86288C398C4A8C5B8C88942220AB
:1421160032044204520409F0A2C02090F30D222009F09DC040
:14212A0000E012E00E949A221D870C8708010030010731F4D4
:14213E0006E612E00E94F42501E07FC1EE2474C00C841D845C
:14215200198208822E2C3324442455242091FE0D3091FF0D39
:142166000091FC0D1091FD0D020D131D241D351DE091980144
:14217A00F09199010E94FA21002331F00C851D850E949923A4
:14218E0001E05BC1AA24BB2448C015010C841D84200C311CCB
:1421A2003B862A86F101C080DD248C2D8E3209F437C088236D
:1421B60009F434C0853E09F431C0238424FE2EC004E512E0E1
:1421CA000E94F425EC8DFD8D808191818030E2E09E0711F414
:1421DE00002733C1EA85FB8524883588442455242101222431
:1421F2003324628C738C88249924620C731C841C951C8882D4
:1422060099829301EC8DFD8D0081118190DEEC8DFD8D80818D
:14221A009181049691838083C50180965C01C5018030E2E07C
:14222E009E0708F4B2CFE3944090FA0D5090FB0D2090F80D8F
:142242003090F90D6E2C772488249924621473048404950416
:1422560008F47ACF0C851D850E949923F1C0288C398C4A8C9E
:14226A005B8C2E823F8248865986E7C042E050E060E070E0D2
:14227E000E811F8128853985041B150B260B370B2090040E3E
:142292003090050E442455245A924A923A922A920E9462210F
:1422A60040900C0E50900D0E20900A0E30900B0E200E311E21
:1422BA00421E531E2A823B824C825D8200E012E00E949A22F9
:1422CE006801DD86CC8606010030010711F401E0B4C0EE2433
:1422E20071C00C841D84198208822E2C3324442455240A8144
:1422F6001B812C813D81020D131D241D351DE0919801F09170
:14230A0099010E94FA21C02E002331F00C851D850E949923A5
:14231E0001E093C0AA24BB2448C015010C841D84200C311C02
:142332003B862A86F101C080DD248C2D8E3209F437C08823DB
:1423460009F434C0853E09F431C0238424FE2EC004E512E04F
:14235A000E94F425EC8DFD8D808191818030E2E09E0711F482
:14236E0000276BC0EA85FB8524883588442455242101222468
:142382003324628C738C88249924620C731C841C951C888242
:1423960099829301EC8DFD8D00811181C8DDEC8DFD8D8081C5
:1423AA009181049691838083C50180965C01C5018030E2E0EB
:1423BE009E0708F4B2CFE3942090040E3090050E4E2C5524EA
:1423D2004214530408F485CF0C851D850E9499230E811F813A
:1423E600288539852CDC0E831F83288739874FEF5FEF6FEFE4
:1423FA007FE02E803F80488459842416350646065706D1F07B
:14240E0048EF5FEF6FEF7FE0241635064606570689F0209031
:14242200F30D222071F44FEF5FEF60E070E02E803F804884AA
:142436005984241635064606570609F401C018CF00272E9607
:14244A000E94A221249608954A935A9328974427552707E467
:14245E0012E00E94F4252090F30D222071F04090100E50909C
:14247200110E20900E0E30900F0E4882598291018A0157DD98
:142486000AC080E090E0A0E0B0E0A883B9839C010027112735
:14249A004CDD4C5F5F4F8FEF9FEFAFEFBFEFA883B9839C0150
:1424AE008A0141DD5F834E834427552757C08A0185DD0A8346
:1424C2001B832C833D838FEF9FEFAFEFBFEF2A803B804C8070
:1424D6005D80281639064A065B0611F4002748C0CE01069648
:1424EA00998388830A811B812C813D8100DE002321F00AE227
:1424FE0012E00E94F4250AED11E00E94F4250E811F815CDD12
:142512008FEF9FEFAFEFBFEF081719072A073B0751F08FEFEC
:142526009FEFAFEFBFEFA883B9839C010E811F81FEDC8E81AB
:14253A009F818030E2E09E0789F400EB11E00E94F4258FEFC4
:14254E009FEFAFEFBFEFA883B9839C010E811F8104501040C8
:14256200E8DC03C04C5F5F4FA8CF0CE911E00E94F42501E08C
:1425760028965991499108950E94C0200E94AD21699700241C
:14258A0011241E8A0D8A1A8A098A188E0F8AEFA1F8A5A08006
:14259E00BB24C5018130E0E09E0729F08230E0E09E0741F00D
:1425B200AAC182E48A838DE48B8380E58C83A3C182E48A836D
:1425C60089E48B838EE48C839CC10F89188DFADC0D871E875C
:1425DA002F87388B8F89988D0496988F8F8B4FEF5FEF6FEF72
:1425EE007FEF2D843E844F845888241635064606570609F42A
:1426020083C12D843E844F845888889422203204420452042A
:1426160009F092C02090F30D222009F08DC000E012E00E94B9
:14262A009A221C8B0B8B08010030010711F401E074C1AA2479
:14263E0068C00B881C88198208822A2C3324442455242091C5
:14265200FE0D3091FF0D0091FC0D1091FD0D020D131D241DD7
:14266600351DE0919801F09199010E94FA21002331F00B8954
:14267A001C890E94992301E050C1EE24FF243CC017010B887B
:14268E001C88200C311C3A8A298AF101C080DD248C2D8E32F8
:1426A20009F42BC0882309F428C0853E31F183858F3019F1F6
:1426B6002A8030843214F9F42B8031843214D9F42C803284AA
:1426CA003214B9F49F010BA11CA189DB8D899E8901969E8B9F
:1426DE008D8BEDA1FEA1208031800C018215930531F40B895D
:1426F2001C890E949923002714C1C70180967C01C701803002
:14270600E2E09E0708F4BECFA3944090FA0D5090FB0D209029
:14271A00F80D3090F90D6A2C772488249924621473048404D1
:14272E00950408F486CF0B891C890E949923E5C02D843E84FE
:142742004F84588829863A864B865C86DBC042E050E060E081
:1427560070E009851A852B853C85041B150B260B370B20901F
:14276A00040E3090050E442455245A924A923A922A920E94A3
:14277E00622140900C0E50900D0E20900A0E30900B0E200E10
:14279200311E421E531E2D823E824F82588600E012E00E9481
:1427A6009A226801DC8ACB8A06010030010711F401E0B5C0A5
:1427BA00AA2465C00B881C88198208822A2C3324442455242E
:1427CE000D811E812F813885020D131D241D351DE091980181
:1427E200F09199010E94FA21C02E002331F00B891C890E94FE
:1427F600992301E094C0EE24FF243CC017010B881C88200C32
:14280A00311C3A8A298AF101C080DD248C2D8E3209F42BC062
:14281E00882309F428C0853E31F183858F3019F12A80308402
:142832003214F9F42B8031843214D9F42C8032843214B9F497
:142846009F010BA11CA1CDDA8D899E8901969E8B8D8BEDA12B
:14285A00FEA1208031800C018215930531F40B891C890E943E
:14286E009923002758C0C70180967C01C7018030E2E09E0721
:1428820008F4BECFA3942090040E3090050E4A2C55244214A8
:14289600530408F491CF0B891C890E94992309851A852B8507
:1428AA003C85CBD909871A872B873C874FEF5FEF6FEF7FE0C6
:1428BE0029843A844B845C842416350646065706D1F048EFD6
:1428D2005FEF6FEF7FE0241635064606570689F02090F30DA0
:1428E600222071F44FEF5FEF60E070E029843A844B845C8401
:1428FA00241635064606570609F401C024CF63CEEDA1FEA19D
:14290E0020803180222031F4332021F40D881E881182008245
:14292200002769960E94A221249608950E94B91680916400D9
:142936008860809364008091650088608093650008950E9419
:14294A00CC2122974427AA24662704C00FEF0E94CD166395CE
:14295E006A30D0F380E090E0A0E0B0E0A883B9839C010027FD
:1429720034D0402FA3948AE08A1510F40FEF2AC0413031F719
:14298600AA2480E090E0A0E0B0E0A883B9839C0101E021D0B9
:14299A00402FA39484E68A1510F40FEF17C0442371F780E072
:1429AE0090E0A0E0B0E0A883B9839C010BE30FD080E092E0F2
:1429C200A0E0B0E0A883B9839C0100E106D0A02E4A2D0027CA
:1429D60022960C94D3213A932A93AA92A02E229780916500DE
:1429EA00877F809365002B803C804D805E8048825982910112
:1429FE000A2DAAD0A02E809165008860809365002296A9907F
:142A1200229608950E94C0200E94DA212297AC84BD84809101
:142A26006500877F809365004427552705C00FEF0E94CD168A
:142A3A004F5F5F4F4A30A0E05A07B8F389E090E00885198522
:142A4E002A853B858A930E94382228833983980101E17AD0C0
:142A6200C02E002309F021C00FEF0E94CD160E3FD9F744276A
:142A7600552709C00FEF0E94CD16C02EF501C1925F014F5F3F
:142A8A005F4F4030E2E05E0798F30FEF0E94CD160FEF0E9445
:142A9E00CD1680916500886080936500002722960E94E121E8
:142AB200249608950E94C0200E94CC21229780916500877F73
:142AC6008093650089E090E0088519852A853B858A930E9452
:142ADA00382228833983980108E138D0402F002309F02FC023
:142AEE000FEF0E94CD160EEF0E94CD166627772707C0EC856C
:142B0200FD8500810E94CD166F5F7F4F6030E2E07E07A8F329
:142B16000FEF0E94CD160FEF0E94CD160FEF0E94CD16402FB3
:142B2A00842F8F71853009F00CC00FEF0E94CD16A02E0023F6
:142B3E00D1F380916500886080936500002722960E94D32174
:142B5200249608953A932A930E94CC21602F4427062F00646C
:142B66000E94CD1688E190E00E811F81288539858A930E94A4
:142B7A0044220E94CD162E803F804884598412014424552452
:142B8E00022D0E94CD1688E090E00E811F81288539858A93F0
:142BA2000E9444220E94CD160E810E94CD1605E90E94CD160B
:142BB60007C0242E33244F5F88E0821508F406C00FEF0E948C
:142BCA00CD16A02E0F3F99F30A2D0E94D321229608950E94A8
:142BDE00AD216697AA24BB2440E050E060E070E068837983A4
:142BF2009A0109E0F2DEE02E002331F0870198011127222787
:142C06003327B1C080916500877F8093650013C01501C10150
:142C1A0001965C018EEF9FEF8215930550F4809165008860D6
:142C2E008093650001E010E020E030E098C00FEF0E94CD165E
:142C4200C02E0E3F39F7CC24DD240DC00FEF0E94CD16A02E04
:142C5600CE010296F601E80FF91FA082C60101966C01C60149
:142C6A008031E0E09E0770F30FEF0E94CD160FEF0E94CD16D7
:142C7E000FEF0E94CD16809165008860809365000FEF0E9449
:142C9200CD1688859927837090706C01DC2CCC242984332422
:142CA600C20CD31CCC0CDD1CCC0CDD1C26E030E00A851127DE
:142CBA00007C10700E94C520C00ED11E8B858370E82EEE0CB3
:142CCE008C8580788695869586958695869586958695E80E36
:142CE2008E2D8E5FE82E81E090E05C0103C0AA0CBB1CEA9424
:142CF600EE20D9F715014424552486010F5F1F4F22273327EF
:142D0A005A924A923A922A920E9462210A8B1B8B2C8B3D8B86
:142D1E008F8199278F7090706C0181E090E05C0105C0AA0CBC
:142D3200BB1CC60101976C01CC20C9F7DD20B9F71501442413
:142D460055240A891B892C893D895A924A923A922A920E945C
:142D5A0062210A8B1B8B2C8B3D8B0A891B892C893D8966967A
:142D6E000C94A221C19AB99ABB98BA9AB89AC09A6C9A6898E7
:142D8200699A6B986D986E9A8FEF8093120E0895779BFECFFD
:142D96000FB908950FB9779BFECF0FB108950E94B821A8019C
:142DAA008A01012F11271070F3DFA02EBB24BA2CAA248A01E4
:142DBE001070ECDF202E3324A228B32885010C94BD218FEFEA
:142DD2008BBB8ABB80936200809361008FE08093650080937F
:142DE60064008FEF82BB81BB949A959A8BBB959888BB87BB29
:142DFA00809165008B7F809365000895809162008D7F80939E
:142E0E00620080916200877F8093620022242BBA80916200C2
:142E22008B7F80936200809162008460809362000BBB80917A
:142E360062008B7F80936200809162008460809362008091CA
:142E4A006200886080936200809162008D7F80936200089524
:142E5E00AA92BA92A02E809162008D7F8093620080916200A3
:142E7200877F809362000E949B0722242BBA0E949B0780910D
:142E860062008B7F809362000E949B078091620084608093A9
:142E9A0062000E949B07ABBA0E949B07809162008B7F809345
:142EAE0062000E949B07809162008460809362000E949B075A
:142EC200809162008260809362000E949B078FEF8BBB0E9488
:142ED6009B07809165008F7E809365000E949B070E949B07C3
:142EEA0080916500806180936500ABB2BB240E949B078FEF07
:142EFE008BBB809165008F7E809365000E949B0780916500C5
:142F12008061809365002BB3332700E011E00E945221A00E86
:142F2600B11E80916200886080936200809162008D7F809366
:142F3A0062008501B990A9900895809162008D7F8093620088
:142F4E0080916200877F8093620022242BBA809162008B7FD9
:142F620080936200809162008460809362000BBB80916200E1
:142F76008B7F80936200809162008460809362008091620089
:142F8A00886080936200809162008D7F80936200809162006F
:142F9E0082608093620080916200877F809362001901232C71
:142FB20033242BBA809162008B7F8093620080916200846086
:142FC6008093620080916200886080936200809162008D7F33
:142FDA00809362008091620082608093620080916200877F2B
:142FEE00809362002BBB809162008B7F80936200809162000F
:1430020084608093620080916200886080936200809162001E
:143016008D7F8093620008951801232C33242BBA8091620071
:14302A008B7F80936200809162008460809362000BBB809170
:14303E0062008B7F8093620080916200846080936200089534
:143052000BBB809162008B7F80936200809162008460809348
:143066006200089597980AE010E00E94CF07979A0AE010E0CB
:14307A000E94CF0721E030E000275FDF0AE010E00E94CF0702
:14308E0020E330E003E057DF2DE131E001E053DF26E031E0B9
:1430A2000AE04FDF27E330E007E04BDF27E037E008E047DFAB
:1430B60021E030E00CE043DF20E034E002E03FDF27E031E0BB
:1430CA000AE03BDF21E030E002E137DF21E031E00AE033DFD6
:1430DE0025E035E001E12FDF2FE03CE204E12BDF0E949B0774
:1430F20022E031E00AE025DF20E13AE100E121DF0E949B0788
:1431060020E031E00AE01BDF26E136E003E117DF0E949B0785
:14311A0021E031E00AE011DF23E030E000E30DDF24E034E0BB
:14312E0001E309DF23E033E002E305DF26E034E003E301DF02
:1431420024E034E004E3FDDE23E033E005E3F9DE27E034E0AF
:1431560006E3F5DE24E036E007E3F1DE0E949B0720E13AE176
:14316A0000E1EBDE0E949B0720E031E00AE0E5DE26E136E088
:14317E0003E1E1DE01E010E00C94BA070E94B821580120E094
:143192003FE704E4D6DE20E53FEE05E4D2DE20E030E501E2A4
:1431A600CEDE02E22DDE80916200877F809362008091620019
:1431BA0082608093620040E050E504C085012ADF41505040E1
:1431CE0040304507C9F720E03FE504E4B4DE20E13FE405E4C6
:1431E200B0DE20E030E101E2ACDE02E20BDE80916200877F87
:1431F600809362008091620082608093620040E058E104C069
:14320A00850108DF4150504040304507C9F78091620088604B
:14321E00809362000C94BD210E94AD21C22EA02EEA842C2CB5
:143232003324220C331C220C331C220C331C00E011E0910157
:143246000E94522198012050394F220D331D04E476DE80E1B2
:14325A008E9D100100E011E091010E94522198012050314A28
:14326E00C101805B9F4F280F391F05E464DE80E18E9D9001EA
:1432820000E011E00E94522198012050304B2C2C3324220CF1
:14329600331C220C331C220C331C220D331D01E24EDE02E269
:1432AA00ADDD80916200877F80936200809162008260809330
:1432BE0062006AEE72E080E18A9D600D711D442716C0E42F19
:1432D200FF27E60FF71FA080CC240BC0A7FE04C00C851D8540
:1432E6009BDE03C00027112797DEAA0CC3948C2D883090F3C3
:1432FA004395403140F3809162008860809362000C94A22111
:14330E000E94AD21C22EA02EEA8480E18C9D100100E011E0A3
:1433220091010E94522198012050314F220D331D04E407DE1B
:1433360080E18E9D100100E011E091010E9452219801205065
:14334A00314AC101805B9F4F280F391F05E4F5DD80E18E9D93
:14335E00900100E011E00E94522198012050304B80E18C9DD6
:14337200200D311D01E2E5DD02E244DD80916200877F809396
:143386006200809162008260809362006AEE7AE080E28A9DCC
:14339A00600D711D442716C0E42FFF27E60FF71FA080CC248F
:1433AE000BC0A7FE04C00C851D8532DE03C0002711272EDE66
:1433C200AA0CC3948C2D883090F34395403240F38091620006
:1433D6008860809362000C94A2210E94CC21A22EA801249760
:1433EA006A8517C00C841D841B820A8268832A2DFA010081F1
:1433FE0013DF8A2D8F5FA82E803138F0AA24862F8F5F682F6D
:143412006A3008F066274F5F5F4FFA012080222029F7249674
:143426000C94D3210E94B821580120E03FE704E486DD20E5B4
:14343A003FEE05E482DD20E030E501E27EDD02E2DDDC809108
:14344E006200877F809362008091620082608093620040E0A3
:1434620050E504C08501DADD4150504040304507C9F7809172
:1434760062008860809362000C94BD21AA92CA92C22EA02EAF
:14348A0020E03FE704E459DD20E53FEE05E455DD2C2D3327EA
:14349E0000E011E00E94522198012050304B2A2C3324220DD4
:1434B200331D01E246DD02E2A5DC80916200877F809362005D
:1434C600809162008260809362000A811B81A4DD809162000D
:1434DA00886080936200C990A99008950E94C0200E94AD2160
:1434EE002697AC88CE88288833244A2D552742195309403062
:14350200E0E05E072CF081E090E09B838A8304C08FEF9FEFA8
:143516009B838A832A8833244C2D5527421953094030E0E091
:14352A005E072CF081E090E09D838C8304C08FEF9FEF9D831C
:14353E008C83288833240A2D1127021913090E94952058010D
:143552002A8833240C2D1127021913090E9495206801A0163E
:14356600B10634F475015601670141E050E002C04427552743
:14357A00B6016C0D7D1D6A197B09EE24FF243EC0088C198C00
:14358E00198208822A89088975DF6030E0E07E07C4F0413072
:1435A200E0E05E0741F4288833240A801B80200C311C288A64
:1435B60007C02A8833240C801D80200C311C2A8A15012A0C8F
:1435CA003B1C621973094130E0E05E0741F42A8833240C803F
:1435DE001D80200C311C2A8A07C0288833240A801B80200CF0
:1435F200311C288A16012C0C3D1C620D731DC70101967C0143
:14360600EA14FB040CF4BECF26960E94A221249608950E940C
:14361A00B121E22EC02E2297AE2C12C0EC2C08C00C841D8456
:14362E00198208822A2D0E2D25DFE394288433244E2C552460
:14364200241435048CF7A3942A8433244A2C552424143504E4
:143656003CF722960C949B210E94AD21A22E402F2297CC8461
:14366A00EE84FF8468897989798368832A2C33249701220D09
:14367E00331D0C2D040FFEDE798368832A2C33249701221959
:1436920033090C2D040FF4DE798368832A2C33249701220D6F
:1436A600331D0C2D041BEADE798368832A2C33249701221939
:1436BA0033090C2D041BE0DE79836883242E33249701220D53
:1436CE00331D0C2D0A0DD6DE79836883242E33249701221931
:1436E20033090C2D0A0DCCDE79836883242E33249701220D47
:1436F600331D0C2D0A19C2DE79836883242E33249701221911
:14370A0033090C2D0A19B8DE22960C94A2210E94AD21C22E02
:14371E00E02E2697A8886A2D77272A2C3324422C5524420C85
:14373200531C83E090E05C01A418B508442755272DC00A8805
:143746001B881D820C822C2C33243B822A82E882262F042F95
:14375A0081DFC5018030E0E09E075CF4CA01840F951F840F2B
:14376E00951F840F951F0696A80EB91E0FC01A01261A370AB8
:14378200C101820D931D820D931D820D931D0A96A80EB91E87
:14379600615070404F5F5F4F6417750784F626960C94A221D2
:1437AA00AA92CA92690158012497088419841B820A82C88259
:1437BE002A2D0E811F81005D1F4F2EDD2496C990A9900895B2
:1437D2000E94E8215901B8012497CE84DF844427552723C0EB
:1437E60000E810E09A010E94C5202C843D8420223122201699
:1437FA00310651F4DB82CA8281E090E09983888395018B017C
:14380E00CDDF09C0DB82CA82222433243982288295018B0164
:14382200C3DF6F5F7F4F4F5F5F4F4830E0E05E07C8F22496E7
:143836000C94F1210E94E8215901A80124976C857D85CE841E
:14384A00DF84DB82CA821B01369427943694279436942794B3
:14385E00369427943982288295018A019FDF4F5F5F4FDB8214
:14387200CA82CB018F7090709983888395018A0193DF2496B7
:143886000C94F121AA92E199FECF22242FBA0EBBE09AADB228
:14389A000A2D1127A990089522242FBAE199FECF0EBB2DBBAE
:1438AE00E29AE198E19A08954A93402F20902E0E30902F0EC4
:1438C200222011F4332021F04A3011F40DE0F2DF20909B00BF
:1438D60025FEFCCF40939C00042F11274991089520909B0054
:1438EA0027FEFCCF00919C001127089588E180939A0022247C
:1438FE00209298008FE28093990008950E94C0200E94AD21C0
:143912006297002411241D860C86F9C3EE8DFF8D808185329F
:1439260059F00081EC8DFD8D0E94FA218C859D8501969D8715
:14393A008C87E4C3002411241B860A868FEF9FEF9F878E87EE
:14394E006627772743E15EE080E2C82E8E8D9F8D01969F8F74
:143962008E8FAA24BB24EE8DFF8DE080FF24C7018032E0E0C3
:143976009E07F1F08332E0E09E0791F08032E0E09E07E4F031
:14398A00C7018B32E0E09E0769F08D32E0E09E0739F08033E6
:14399E00E0E09E0769F00EC061600FC064600DC068608BE233
:1439B200C82E09C0686080E2C82E05C0606103C081E090E008
:1439C6005C01AA2011F4BB2009F006C08E8D9F8D01969F8F1B
:1439DA008E8FC5CFEE8DFF8D008111270E94C32500300107A6
:1439EE00B9F00E8D1F8D0E94B3231B870A8705C08E8D9F8D1E
:143A020001969F8F8E8FEE8DFF8D008111270E94C32558012B
:143A16000030010789F715C0EE8DFF8D80818A3281F488A1AD
:143A2A0099A1029699A388A3FC013297208031803B862A86C7
:143A3E008E8D9F8D01969F8F8E8FEE8DFF8D80818E3209F08A
:143A52003AC0CF0101969F8F8E8FFC01008111270E94C32574
:143A6600580100300107C1F00E8D1F8D0E94B3235801BF86AD
:143A7A00AE8605C08E8D9F8D01969F8F8E8FEE8DFF8D00818E
:143A8E0011270E94C32558010030010789F715C0EE8DFF8D75
:143AA20080818A3281F488A199A1029699A388A3FC013297B6
:143AB600208031803F862E868E8D9F8D01969F8F8E8FEE8D8E
:143ACA00FF8D80818C3629F4CF0101969F8F8E8F6260EE8D8D
:143ADE00FF8DA080BB24C5018835E0E09E0709F490C088E5A7
:143AF2008A159B0594F0C5018534E0E09E0709F4FDC28534A4
:143B0600E0E09E070CF440C0C5018335E0E09E0709F46EC137
:143B1A0039C0C5018336E0E09E0709F443C18436E0E09E079A
:143B2E0009F43BC08536E0E09E0709F4E1C28636E0E09E07AA
:143B420009F4DCC28936E0E09E0709F42CC08F36E0E09E079D
:143B560009F45BC08037E0E09E0709F456C08336E0E09E07F6
:143B6A008CF0C5018337E0E09E0709F4FEC18537E0E09E0709
:143B7E0009F447C08837E0E09E0709F442C000C0EE8DFF8D45
:143B92000081EC8DFD8D0E94FA218C859D8501969D878C87DD
:143BA600AFC261FF1EC088A199A1049699A388A3FC01349730
:143BBA0020803180428053802E823F82488659868AE090E019
:143BCE009B838A832E803F80488459844882598291018A01E0
:143BE2000E946424BFC088A199A1029699A388A3FC013297FE
:143BF60020803180398A288A8AE090E09983888391018A01D7
:143C0A000E94F923ABC061FF10C088A199A1049699A388A3E9
:143C1E00FC01349720803180428053802E823F8248865986C6
:143C32000BC088A199A1029699A388A3FC013297208031803A
:143C4600398A288AEE8DFF8D80818537D9F461FF0FC08AE0CB
:143C5A0090E09B838A832E803F80488459844882598291016E
:143C6E008A010E941C2578C08AE090E0998388832889398928
:143C82008A010E9483256EC0EE8DFF8D80818F3609F560FF01
:143C960004C080E3FA018193AF0161FF0FC088E090E09B830F
:143CAA008A832E803F80488459844882598291018A010E947F
:143CBE001C2552C088E090E099838883288939898A010E9400
:143CD200832548C0EE8DFF8D8081803739F480E3FA018193D0
:143CE60088E78193AF010CC060FF0AC080E3FA018193AF0180
:143CFA00EE8DFF8D2080FA012192AF0161FF0FC080E190E0B1
:143D0E009B838A832E803F80488459844882598291018A019E
:143D22000E941C2509C080E190E099838883288939898A01EB
:143D36000E948325EE8DFF8D8081883589F443E15EE00AC0C1
:143D4A00FA01008111270E94E1255801FA01A0824F5F5F4F37
:143D5E00FA012080222091F743E15EE08E859F858F3FEFEFA7
:143D72009E0721F4002411241F860E860E841F84002019F48F
:143D8600112009F404C103E11EE00E94B4205801B98AA88A10
:143D9A000E841F840A141B040CF0F7C005011F860E86F3C0FE
:143DAE0088A199A1029699A388A3FC013297208031802C82DA
:143DC20081E090E00A841B848015910544F41F860E8622240D
:143DD6002D82AE014C5F5F4FDAC00C81EC8DFD8D0E94FA213B
:143DEA008C859D8501969D878C8788C188A199A1029699A344
:143DFE0088A3FC013297E080F1808E859F858F3FEFEF9E0767
:143E120021F4002411241F860E860A841B84002011F4112072
:143E260051F087010E94502258012A843B84201A310A3B86AF
:143E3A002A860E841F84002041F4112031F487010E94502248
:143E4E005801BF86AE860A841B84002011F4112031F063FF88
:143E620004C0C00101979B878A8764FF26C063FF0AC00C2D4E
:143E7600EC8DFD8D0E94FA218C859D8501969D878C8762FD18
:143E8A004CC00FC000E3EC8DFD8D0E94FA218C859D850196DC
:143E9E009D878C878A859B8501979B878A87222433240A84B4
:143EB2001B842014310454F334C062FD17C00FC000E2EC8D59
:143EC600FD8D0E94FA218C859D8501969D878C878A859B8571
:143EDA0001979B878A87222433240A841B842014310454F38F
:143EEE0063FF19C00C2DEC8DFD8D0E94FA218C859D850196C2
:143F02009D878C870EC0F7010691EC8DFD8D0E94FA218C8546
:143F16009D8501969D878C87C70101967C01F70126902220DB
:143F2A0051F0AE84BF84C50101979F878E87AA2031F7BB2067
:143F3E0021F762FFE1C00FC000E2EC8DFD8D0E94FA218C85D3
:143F52009D8501969D878C878A859B8501979B878A8722242B
:143F660033240A841B842014310454F3C9C088A199A102968F
:143F7A0099A388A3FC013297408151814030450721F482E937
:143F8E0090E07C013ACF8E859F858F3FEFEF9E0721F4002468
:143FA20011241F860E860A841B84002011F4112051F08A014E
:143FB6000E94B42058012A843B84201A310A3B862A860E8443
:143FCA001F84002041F4112031F48A010E94B4205801BF86F6
:143FDE00AE860A841B84002011F4112031F063FF04C0C00110
:143FF20001979B878A8764FF26C063FF0AC00C2DEC8DFD8D3F
:144006000E94FA218C859D8501969D878C8762FD4BC00FC0AF
:14401A0000E3EC8DFD8D0E94FA218C859D8501969D878C87EE
:14402E008A859B8501979B878A87222433240A841B84201486
:14404200310454F333C062FD17C00FC000E2EC8DFD8D0E946F
:14405600FA218C859D8501969D878C878A859B8501979B8751
:14406A008A87222433240A841B842014310454F363FF18C07D
:14407E000C2DEC8DFD8D0E94FA218C859D8501969D878C8734
:144092000DC0FA010081EC8DFD8D0E94FA218C859D85019647
:1440A6009D878C874F5F5F4FFA012080222051F0AE84BF84E0
:1440BA00C50101979F878E87AA2039F7BB2029F762FF1CC027
:1440CE000FC000E2EC8DFD8D0E94FA218C859D8501969D877F
:1440E2008C878A859B8501979B878A87222433240A841B84F3
:1440F6002014310454F304C084EA90E07C0181CE8E8D9F8D51
:14410A0001969F8F8E8FEE8DFF8D2080222009F001CC0C857F
:14411E001D8562960E94A2212496089517FF08951095019549
:144132001F4F0895A02FB12FE22FF32F88819981803098071A
:1441460003C001900D920197E1F70895888199818030890702
:14415A0029F0E02FF12F21930197E9F70895E02FF12FAA2740
:14416E00BB270190002011F01196FBCF0A2F1B2F08953A934B
:144182002A931A930A930895222321F0159507952A95FACF61
:144196000895689401C0E894EA92FA928A93EE24FF2480E184
:1441AA00000F111FEE1CFF1CE216F30618F0E21AF30A039513
:1441BE008A95A1F716F40E2D1F2D8991F990E9900895E89470
:1441D20001C0689430D0CC2409C0E89401C068942AD037FDFC
:1441E6000E940322B7FD52D0772488249924AA24BB2442D065
:1441FA00C1F045D0B1F0E8E2000F111F221F331F771C881C77
:14420E00991CAA1CBB1C88169906AA06BB0628F0881A990A3F
:14422200AA0ABB0A0395EA9559F726F4082D192D2A2D3B2D54
:1442360013C07A928A929A92AA92BA92CA92EA938A939A93A2
:14424A00AA93BA938B859C85AD85BE85C32E0EF0CB260895B3
:14425E00C7FC0E940322B991A99199918991E991C990B990DE
:14427200A99099908990799024960895E02FE12BE22BE32B27
:144286000895E82FE92BEA2BEB2B089580959095A095B095E0
:14429A008F5F9F4FAF4FBF4F08950A921A928A939A93029F58
:1442AE00C001129F900D039F900D8C0199918991199009909B
:1442C20008950E940C227A920E94252259F177240E942B22B2
:1442D60019F48C019D0124C00A921A92089FB02CA12C289F59
:1442EA00902C812C189FA00C911C871C099FA00C911C871C00
:1442FE00199F900C811C0A9F900C811C389F800C299F800C22
:144312001A9F800C0B9F800C199009900B2D1A2D292D382DA0
:1443260079900C941A22A990B990C990D9900895A990B9903B
:14433A00C990D990E990F9900895A990B990C990D990E99051
:14434E00F990499159916991799108957A936A935A934A9399
:14436200FA92EA92DA92CA92BA92AA9208955A934A93BA923C
:14437600AA920895A990B9904991599108957A936A935A9380
:14438A004A930895499159916991799108957A936A935A9349
:14439E004A93BA92AA920895A990B9904991599169917991BF
:1443B20008955A934A93DA92CA92BA92AA920895A990B99021
:1443C600C990D9904991599108957A936A935A934A93DA9280
:1443DA00CA92BA92AA920895A990B990C990D9904991599146
:1443EE006991799108950A92D8950A923196D895F02DE991AA
:144402000990099400951095209530950F5F1F4F2F4F3F4FD4
:1444160008958A929A92AA92BA92EA938A939A93AA93BA93D4
:14442A0089859A85AB85BC850895B991A99199918991E99101
:14443E00B990A9909990899024960895EE27E02BE12BE22B16
:14445200E32B0895EE27E82BE92BEA2BEB2B0895222321F051
:14446600000F111F2A95FACF08950F920990002031F0000F54
:14447A00111F221F331F0A94F8CF0F9008950F920990002070
:14448E0031F036952795179507950A94F8CF0F900895E02F7A
:1444A200F12FAA27BB27C895002019F031961196FACF0A2F3D
:1444B6001B2F08954A935A938FEF9FEF082319232823392327
:1444CA00A80120902C0E30902D0EFA013182208250932D0EE2
:1444DE0040932C0ECF0106961901281A390A3582248233839F
:1444F20022835991499108950E94B321690158012297950128
:1445060086010E945221680112D058010030010719F40027F5
:14451A00112708C0D982C8822227332785010E94A9208501CE
:14452E0022960C9496210E94CC216CE27EE053C0FA0124807D
:1445420035802016310608F449C0201A310A8EE090E0821554
:14455600930508F031C0C80106965C01AE0EBF1E2080318024
:14456A00F50131822082C8010696FA0124803580281A390AB4
:14457E00F50135822482CF010496FC01808191818E7F91833B
:144592008083FA0122803380F50133822282FA01B382A2821F
:1445A600CF01069622803380281A390A35822482FB01B1822F
:1445BA00A08206C0FA0120803180FB013182208222243324CB
:1445CE00FA0131822082CF0106965C018C010DC0FB01608189
:1445E2007181FB0120803180A1014030450709F0A5CF002794
:1445F60011270C94D3210E94E8216901A8012297BA016650FD
:14460A0070401601240E351EFB01428053804214530420F002
:14461E00D582C4828A011AC0860185DF58010030010719F4FD
:144632000027112711C0FB01248035802C143D0410F4C48026
:14464600D580D982C8829A0185010E949B208A016DD085019A
:14465A0022960C94F1210E94E821A8018CE29EE05C014AC03B
:14466E00FA01228033806215730509F01DC0FB0120803180D6
:14468200F50131822082CA0104962C01FB0184819581069694
:14469600F20120803180280E391E31822082FB012280338099
:1446AA00FA01338222828F01D6DF2EC0FB01228033804215CD
:1446BE00530509F01CC020803180F50131822082CB010496B9
:1446D2002C01FA01848195810696F20120803180280E391E24
:1446E60031822082FA0122803380FB01338222828F01B3DFA4
:1446FA000BC0F501A080B180F501C080D180B601603067075E
:14470E0009F0AECF6030670759F420902C0E30902D0EFA01F6
:144722003182208250932D0E40932C0E0C94F1214A935A9387
:14473600A8014030450709F410C046505040FA018481958101
:14474A0006968E0F9F1F228033802816390608F402C08A0149
:14475E0080DF5991499108950E94CC21580103C0C50101967F
:144772005C01F501008111270E94D72500300107A9F7662724
:144786007727F50180818D3229F461E0CF0101965C0107C0E2
:14479A00F50180818B3219F4CF0101965C01442755270EC0D1
:1447AE000AE010E09A010E945221A801F50121905F01332466
:1447C200420D531D40535040F501008111270E94C325003098
:1447D600010751F76030670731F08A01009510950F5F1F4FBF
:1447EA0001C08A010C94D3210E94C0200E94AD21A901EE84CD
:1447FE00FF845A01AA2051F4BB2041F480E3EA85FB85808355
:14481200222421828F0153C04030E0E05E076CF4C7018A308F
:14482600E0E09E0741F4CC24C394C5018095909501965C01A9
:14483A0001C0CC246A857B85970185010E94CC20A80189E00C
:14484E0090E08017910734F0CA01C096FB018193BF0106C0DC
:14486200CA01895A9F4FFB018193BF01970185010E94CE2028
:144876005801AA2019F7BB2009F7CC2021F08DE2FB018193A4
:14488A00BF012B01615070402224F2012082AA84BB840CC0B9
:14489E00F501C080FB012080F50121925F011B0161507040AE
:1448B200F101C082A616B70688F30A851B850E94A22124967C
:1448C60008950E94C0200E94AD212497288839884A885B886E
:1448DA00288239824A825B82288839884A885B888894222038
:1448EE0032044204520441F480E3EE85FF8580832224218269
:144902008F0194C040E050E060E070E0288839884A885B88B7
:144916002416350646065706ECF48C899D898A30A0E09A0779
:14492A00B9F4AA24A39441E050E060E070E0288039804A80BB
:14493E005B802094309440945094240E351E461E571E288252
:1449520039824A825B8201C0AA24CE84DF842C883D884424C8
:1449660037FC4094552447FC5094088119812A813B815A9220
:14497A004A923A922A920E94EA20780189E090E08017910798
:14498E0034F0C701C096F60181936F0106C0C701895A9F4FF9
:1449A200F60181936F012C883D88442437FC4094552447FCE2
:1449B6005094088119812A813B815A924A923A922A920E948D
:1449CA00E820088319832A833B83288039804A805B8088941D
:1449DE00222032044204520409F0BBCFAA2021F08DE2F601ED
:1449F20081936F012601C20101976C012224F2012082EE84F1
:144A0600FF840DC0F701A080F6012080F70121927F0116015B
:144A1A00C10101976C01F101A082EC14FD0480F30E851F8502
:144A2E0024960E94A221249608953A932A930E94AD215801AB
:144A4200CE84DF84A5011601442437FC4094552447FC5094DF
:144A56000A851B852C853D855A924A923A922A920E94EA20AE
:144A6A00B80189E090E08017910734F0CB01C096FA01819322
:144A7E00AF0106C0CB01895A9F4FFA018193AF0116014424D3
:144A920037FC4094552447FC50940A851B852C853D855A92DB
:144AA6004A923A922A920E94E8200A871B872C873D872A8496
:144ABA003B844C845D848894222032044204520409F0BDCFC3
:144ACE002A01415050402224F201208265010CC0F601E08024
:144AE200FA012080F60121926F011A0141505040F101E0827B
:144AF600C416D50688F385010E94A221229608950E94AD21CC
:144B0A0069015801EA84FB84A501970186010E94CC20B801DB
:144B1E0089E090E08017910734F0CB01C096FA018193AF0176
:144B320006C0CB01895A9F4FFA018193AF01970186010E948C
:144B4600CE206801CC2019F7DD2009F72A0141505040222479
:144B5A00F201208265010CC0F601E080FA012080F6012192E4
:144B6E006F011A0141505040F101E082C416D50688F385017D
:144B82000C94A22187E091E0F801E80FF91F06911127047099
:144B96001070089587E091E0F801E80FF91F069111270270CD
:144BAA001070089587E091E0F801E80FF91F069111270071BA
:144BBE00107008954A935A93A8018A010E94CD2500300107FC
:144BD20031F08A01015610400F5B1F4F01C08A015991499194
:144BE60008950E94C020AA92BA922297CE010496EEEFFFEF27
:144BFA00E370F0705F01A80EB91EB982A8822C813D8100E94E
:124C0E0010E00E94851C58012296B990A9902496089577
:00000001FF
