:100000000C944F040C946E040C946E040C946E04C7
:100010000C946E040C946E040C946E040C946E0498
:100020000C946E040C946E040C946E040C946E0488
:100030000C946E040C946E040C946E040C946E0478
:100040000C946E040C946E040C946E040C946E0468
:100050000C946E040C946E040C946E040C946E0458
:100060000C946E040C946E040C946E040C946E0448
:100070000C946E040C946E040C946E040C946E0438
:100080000C946E040C946E040C946E0403FFFFFF3A
:10009000FFFFFFFFFFFFFFFFFFFFFFFFFF800000ED
:1000A00000000000000000000000000001800000CF
:1000B00000000000000000000000000001800000BF
:1000C00000000000000000000000000001800000AF
:1000D000000000000000000000000000018000009F
:1000E000000000000000000000000000018000008F
:1000F000000000000000000000000000018000007F
:10010000000000000000000000000000018000006E
:100110000000000000000400000000380180000C16
:100120000000000000000C00000000380180000CFE
:100130000000800C10011E00000070780180001D7E
:100140000001801C381F9E07FE0070680180001DA2
:1001500081C7F01E781FBE07FF00F0DC01801FFC86
:1001600001E3F01E781C3C01F803F99801801FF8A8
:1001700001E6C03CF0386C03B803F1B801801E30D2
:1001800001C6803CF03F681B7803BBF001801C3047
:1001900001858078E03F781FF003F3B001803FF6DF
:1001A000018D8079E03C780FC001E19001803CFB3B
:1001B0000FDD80F1E03CF00CC000C38001803CFB0F
:1001C000073940F1F03CE00CC001E380018038F2D7
:1001D000006961F3F03CA00CC0036680018039F235
:1001E000005239B33034B0088006068001801076A2
:1001F0000010039E38111808801807800180007CC9
:100200000000030818000C08C0000D000180006009
:10021000000003000C00000040000F00018000609F
:100220000000020004000000200006000180000021
:10023000000000000000000000000000018000003D
:10024000000000000000000000000000018000002D
:10025000000000000000000000000000018000001D
:10026000000000000000000000000000018000000D
:1002700000000000000000000000000001800000FD
:1002800000000000000000000000000001800000ED
:1002900000000000000000000000000001800000DD
:1002A00000000000000000000000000001800000CD
:1002B00000000000000000000000000001800000BD
:1002C00000000000000000000000000001800000AD
:1002D000000000000000000000000000018000009D
:1002E000000000000000000000000000018000008D
:1002F000000000000000000000000000018000007D
:10030000000000000000000000000000018000006C
:10031000000000000000000000000000018000005C
:10032000000000000000000000000000018000004C
:100330000000000000000000000000000180035EDB
:10034000BD600E77EC78F1E0078E7C0001800152F1
:10035000A54011223091122008912A0001800152FB
:10036000A54007142091020008112A0001800152C3
:10037000A54009142061020008112A00018000A193
:10038000428C11142081122608912A00018000A1BC
:10039000428C0F88F8F0E1C6070E6B000180000068
:1003A0000000000000880000000000000180000044
:1003B000000000000070000000000000018000004C
:1003C00000000000000000000000000001800000AC
:1003D000000000000000000000000000018000009C
:1003E000000000000000000000000000018000008C
:1003F000000000000000000000000000018000007C
:10040000000000000000000000000000018000006B
:10041000000000000000000000000000018000005B
:10042000000000000000000000000000018000004B
:10043000000000000000000000000000018000003B
:10044000000000000000000000000000018000002B
:10045000000000000000000000000000018000001B
:10046000000000000000000000000000018000000B
:1004700000000000000000000000000001800000FB
:1004800000000000000000000000000001FFFFFF6E
:10049000FFFFFFFFFFFFFFFFFFFFFFFFFF00000069
:1004A000000000000000000000000000000000004C
:1004B000000000000000000000000000001FFFFF1F
:1004C000FFFFFFFFFFFFFFFFFFFFFFFFF81FFFFF23
:1004D000FFFFFFFFFFFFFFFFFFFFFFFFF81FFFFF13
:1004E000FFFFFFFFFFFFFFFFFFFFFFFFF81C000004
:1004F000000000000000000000000000381C0000A8
:10050000000000000000000000000000381C000097
:10051000000000000000000000000000381C000087
:10052000000000000000000000000000381C000077
:10053000000000000000000000000000381C000067
:10054000000000000000000000000000381C000057
:10055000000000000000000000000000381C000047
:10056000000000000000000000000000381C000037
:10057000000000000000000000000000381C000027
:10058000000000000000000000000000381C000017
:10059000000000000000000000000000381C000007
:1005A000000000000000000000000000381C0006F1
:1005B000000000000000001800000000381C0006C9
:1005C00000000C003000001800001F80381C00766E
:1005D0000000C600300C00180007F300381C07C6E6
:1005E000000CC60030FC001800000600381C07068E
:1005F000000CCC00618C031FE0000C00381C060CC2
:10060000000CCC00CC1803FCC0003800381C060CD1
:10061000E00CCC00CC180318C0003000381C067F5A
:10062000E00CCCC1F8180318C00018F0381C07DE25
:10063000C00FFFE1F3F803FFC003FF80381C06DBA7
:10064000007CCC0033000318C01E1800381C06F6CE
:10065000000CCC0063000318C0001800381C06F61C
:10066000000CCC00FF00031B80001800381C0CC6D7
:10067000000CFC01E30003FE00001800381C0CCF46
:10068000000CC0000303031800001800381C0CCF36
:10069000000CC0000F03001830001800381C18D9D7
:1006A000800C00007B03001830019800381C18D91A
:1006B000800C0003C30300183000F800381C30F031
:1006C000E00FFFC001FF800FF8007000381C60E0F1
:1006D000300C00000000000000003000381C00005A
:1006E000000000000000000000000000381C0000B6
:1006F000000000000000000000000000381C0000A6
:10070000000000000000000000000000381C000095
:10071000000000000000000000000000381C000085
:10072000000000000000000000000000381C000075
:10073000000000000000000000000000381C000065
:10074000000000000000000000000000381C000055
:10075000000000000000000000000000381C000045
:10076000000000000000000000000000381C000035
:10077000000000000000000000000000381C000025
:10078000000000000000000000000000381C000015
:10079000000000000000000000000000381C000005
:1007A000000000000000000000000000381C0000F5
:1007B000000000000000000000000000381C0000E5
:1007C000000000000000000000000000381C0000D5
:1007D000000000000000000000000000381C0000C5
:1007E000000000000000000000000000381C0000B5
:1007F000000000000000000000000000381C0000A5
:10080000000000000000000000000000381C000094
:10081000000000000000000000000000381C000084
:10082000000000000000000000000000381FFFFF73
:10083000FFFFFFFFFFFFFFFFFFFFFFFFF81FFFFFAF
:10084000FFFFFFFFFFFFFFFFFFFFFFFFF81FFFFF9F
:10085000FFFFFFFFFFFFFFFFFFFFFFFFF8000000AC
:100860000000000000000000000000000000000088
:100870000000000000000000000000000000000078
:100880000000000000000000000000000000000068
:100890000000000000000000000000000000112423
:1008A0001FBECFEFD0E1DEBFCDBF11E0A0E0B1E0D1
:1008B000ECE5FEE000E00BBF02C007900D92A03017
:1008C000B107D9F713E0A0E0B1E001C01D92A0305C
:1008D000B107E1F70E9496060C942C070C940000D7
:1008E0008FEF8BBB8ABBE2E6F0E0808380936100F0
:1008F00082BB81BB83B982B9949A959A8BBB959838
:100900008081846080830895E2E6F0E090819D7F9D
:10091000908390819B7F90839081986090838BBB24
:1009200080E094E20197F1F78081877F80830895CA
:10093000E2E6F0E090819260908390819B7F9083CB
:100940009081986090838BBB80E094E20197F1F7EF
:100950008081877F80830895E2E6F0E080818D7F4B
:10096000808380818B7F808380818860808381E029
:100970008BBB20E034E2C9010197F1F78081877FCA
:100980008083C9010197F1F70895FB0190916200FE
:100990009D7F90936200909162009B7F9093620094
:1009A000909162009860909362008BBB20E034E2EB
:1009B000C9010197F1F780916200877F80936200FF
:1009C00019C0809162008260809362008091620011
:1009D0008B7F8093620080916200886080936200C8
:1009E0009BBBC9010197F1F780916200877F8093DB
:1009F00062003196C9010197F1F79081992309F7B7
:100A00000895E2E6F0E080818D7F808380818B7F96
:100A1000808380818860808390E39BBB40E054E2C8
:100A2000DA011197F1F78081877F808323E337E034
:100A3000D9011197F1F780818D7F808380818B7F31
:100A400080838081886080839BBBCA010197F1F716
:100A50008081877F8083C9010197F1F780818D7F35
:100A6000808380818B7F80838081886080838CE01D
:100A70008BBBCA010197F1F78081877F8083C90111
:100A80000197F1F780818D7F808380818B7F8083C8
:100A900080818860808381E08BBBCA010197F1F778
:100AA0008081877F8083C9010197F1F70895FF92C4
:100AB0000F931F93CF93DF93AC01A0E886E3F82E4A
:100AC00060E074E2C3E3D7E0B0E806E61EE08091A0
:100AD00062008D7F80936200809162008B7F8093A3
:100AE000620080916200886080936200FBBACB0153
:100AF0000197F1F780916200877F80936200CE01B9
:100B00000197F1F7809162008D7F80936200809160
:100B100062008B7F80936200809162008860809386
:100B20006200ABBBCB010197F1F780916200877F38
:100B300080936200CE010197F1F7809162008D7F72
:100B400080936200809162008B7F8093620080912D
:100B50006200886080936200BBBBCB010197F1F714
:100B600080916200877F80936200CE010197F1F748
:100B7000FA0120E030E090818091620082608093F1
:100B80006200809162008B7F80936200809162009E
:100B90008860809362009BBBCB010197F1F7809145
:100BA0006200877F80936200C8010197F1F791810D
:100BB00080916200826080936200809162008B7FEE
:100BC00080936200809162008860809362009BBB8A
:100BD000CB010197F1F780916200877F80936200DB
:100BE000C8010197F1F72F5F3F4F3296283031054A
:100BF00009F0C1CFAF5F405F5F4FA03A09F067CF08
:100C0000DF91CF911F910F91FF9008950F931F9344
:100C1000CF93DF93AC01A0E860E074E203E317E058
:100C2000B8E8C6E6DEE0809162008D7F80936200C6
:100C3000809162008B7F8093620080916200886067
:100C400080936200ABBBCB010197F1F7809162000A
:100C5000877F80936200C8010197F1F7809162005D
:100C60008D7F80936200809162008B7F8093620011
:100C700080916200886080936200BBBBCB010197CA
:100C8000F1F780916200877F80936200C80101972D
:100C9000F1F7FA0120E030E09081809162008260FB
:100CA00080936200809162008B7F809362008091CC
:100CB00062008860809362009BBBCB010197F1F7D3
:100CC00080916200877F80936200CE010197F1F7E7
:100CD00091818091620082608093620080916200C5
:100CE0008B7F8093620080916200886080936200B5
:100CF0009BBBCB010197F1F780916200877F8093C6
:100D00006200CE010197F1F72F5F3F4F32962830F6
:100D1000310509F0C1CFAF5F405F5F4FA03A09F0E6
:100D200082CFDF91CF911F910F910895CF93DF93E1
:100D30000E94700483E397E00197F1F70E94010598
:100D4000809162008D7F80936200809162008B7F32
:100D5000809362008091620088608093620081E0ED
:100D60008BBB20E034E2C9010197F1F7809162006A
:100D7000877F80936200C9010197F1F780E090E0DE
:100D8000C8EBD0E009C0FC01E357FF4FE491DC0160
:100D9000A050BF4FEC93019622E0803092079CF365
:100DA00080E091E00E94570580E090E0FC01E3566E
:100DB000FD4FE491DC01A050BF4FEC93019622E07F
:100DC0008030920799F780E091E00E94060680E16A
:100DD00097E2FE013197F1F70197D9F780E197E2A9
:100DE000FE013197F1F70197D9F780E090E0FC011F
:100DF000E356FB4FE491DC01A050BF4FEC9301960A
:100E000022E08030920799F780E091E00E94570538
:100E100080E090E0FC01E356F94FE491DC01A05042
:100E2000BF4FEC93019622E08030920799F780E063
:100E300091E00E94060680E197E2FE013197F1F70A
:100E40000197D9F780E197E2FE013197F1F7019719
:0C0E5000D9F780E090E0A0CFF894FFCF2D
:00000001FF
