:100000000C9446000C9465000C9465000C946500FB
:100010000C9465000C9465000C9465000C946500CC
:100020000C9465000C9465000C9465000C946500BC
:100030000C9465000C9465000C9465000C946500AC
:100040000C9465000C9465000C9465000C9465009C
:100050000C9465000C9465000C9465000C9465008C
:100060000C9465000C9465000C9465000C9465007C
:100070000C9465000C9465000C9465000C9465006C
:100080000C9465000C9465000C94650011241FBE4F
:10009000CFEFD0E1DEBFCDBF11E0A0E0B1E0E4EBF7
:1000A000F2E000E00BBF02C007900D92A031B10753
:1000B000D9F711E0A0E1B1E001C01D92A631B1076E
:1000C000E1F70E940B010C9458010C9400008FEF93
:1000D0008BBB8ABB82BB81BB88BB87BB08958FEF7C
:1000E0008BBB8ABB82BB81BB88BB87BB20E091E016
:1000F00063E377E0949A959A892F80958BBB9598C6
:10010000990F1BBA949843E357E0FB013197F1F73D
:100110002F5F253079F7949A959A892F80958BBB1C
:100120009598990FE0911401F0911501E050FF4F5F
:1001300080818BBB9498FA013197F1F7949A959A44
:10014000892F80958BBB9598E0911201F091130156
:10015000E050FF4F80818BBB9498FA013197F1F703
:10016000949A959A990F90959BBB9598E091100160
:10017000F0911101E050FF4F80818BBB9498CA0130
:100180000197F1F7949A959A8FEF8BBB9598089504
:10019000282F64E60E943801809314011092150103
:1001A000822F0E943801292F892F90E06AE070E0A9
:1001B0000E9444017093130160931201822F90E01A
:1001C0006AE070E00E944401909311018093100155
:1001D00008959C01FA01E199FECF1FBA07C02EBB1A
:1001E0002F5F3F4FE09A8DB3819361506623B9F73B
:1001F00008959C01FA011FBA0BC0E199FECF2EBBF6
:100200002F5F3F4F81918DBBE29AE198E19A615057
:10021000662399F708950F931F93DF93CF930F925F
:10022000CDB7DEB78FEF8BBB8ABB82BB81BB88BBF0
:1002300087BBE199FECF1FBA80E18EBBE09A8DB3F8
:1002400000E018E4F8013197F1F78F5F898380E1CE
:1002500090E061E0AE014F5F5F4F0E94F900C8017E
:100260000197F1F789810E94C8000E946F00FACFC0
:10027000991B79E004C0991F961708F0961B881FF8
:100280007A95C9F780950895AA1BBB1B51E107C059
:10029000AA1FBB1FA617B70710F0A61BB70B881F16
:1002A000991F5A95A9F780959095BC01CD010895A5
:0402B000F894FFCFF0
:1002B4003F065B4F666D7D077F6F777C395E797192
:00000001FF
