:100000000C9446000C9465000C9465000C946500FB
:100010000C9465000C9465000C9465000C946500CC
:100020000C9465000C9465000C9465000C946500BC
:100030000C9465000C9465000C9465000C946500AC
:100040000C9465000C9465000C9465000C9465009C
:100050000C9465000C9465000C9465000C9465008C
:100060000C9465000C9465000C9465000C9465007C
:100070000C9465000C9465000C9465000C9465006C
:100080000C9465000C9465000C94650011241FBE4F
:10009000CFEFD0E1DEBFCDBF11E0A0E0B1E0ECE7F3
:1000A000F1E000E00BBF02C007900D92A032B10753
:1000B000D9F711E0A0E2B1E001C01D92A232B10770
:1000C000E1F70E9499000C94BC000C9400008FEFA3
:1000D00088BB87BB08959C01E8E3F0E080818E7FB8
:1000E000808380818D7F808340E0C901807090781B
:1000F000992324F480818460808303C080818B7F76
:10010000808380818260808380818D7F80834F5F48
:10011000403119F0220F331FE8CF88E18A95F1F7BB
:10012000E8E3F0E080818160808380818D7F80833F
:100130000895CF93DF930E946700C6E6DEE080E07B
:1001400090E0880F991F880F991F90932101809349
:1001500020010E946B0080912001909121019695D1
:10016000879596958795FE013197F1F7019623E0E3
:0C0170008F3F920720F7E5CFF894FFCFF7
:10017C006A696E67796568616E78696E672000548C
:10018C00454C3A3135393637303837313331200038
:00000001FF
