:040000000C944C010F
:14008C00CC0100202020202020202020303030303020202023
:1400A0002020202020202020202020202020209040404040DC
:1400B40040404040404040404040400C0C0C0C0C0C0C0C0C0C
:1400C8000C404040404040400909090909090101010101011C
:1400DC00010101010101010101010101010140404040404082
:1400F0000A0A0A0A0A0A0202020202020202020202020202A4
:140104000202020202024040404020000000000000000000BB
:140118000000000000000000000000000000000000000000D3
:14012C000000000000000000000000000000000000000000BF
:140140000000000000000000000000000000000000000000AB
:14015400000000000000000000000000000000000000000097
:14016800000000000000000000000000000000000000000083
:14017C0000000000000000000000000000000000000000BDB2
:14019000D3CAD5B5BDB5C4D7D6B7FBCAC7A3BA25630D0A0012
:1401A400C7EBCDA8B9FDB4AEBFDAB5F7CAD4D6FACAD6B7A25C
:1401B800CBCDD7D6B7FB0D0A004D3132385F5A5A5832B4AE3E
:1401CC00BFDACDA8D0C5CAB5D1E90D0A003C696E7465676574
:1401E00072206F6E6C79207072696E74662C2073656C6563AC
:1401F400742050726F6A6563742D3E4F7074696F6E732D3ECA
:140208005461726765742C224650207072696E74662220742E
:14021C006F207072696E7420666C6F6174696E6720706F6936
:140230006E74206E756D626572733E00286E756C6C20707497
:1402440072207061737365642900303132333435363738395E
:140258006162636465666768696A6B6C6D6E6F707172737440
:14026C0075767778797A00303132333435363738396162637E
:140280006465666768696A6B6C6D6E6F7071727374757677DC
:1402940078797A00CFEFD0E1CDBFDEBFCE51D0400AEA0883A5
:1402A8000024E9E0F2E012E0E432F10711F00192FBCF0083A2
:1402BC00EFE8F1E0A0E0B1E012E0E839F10721F0C895319635
:1402D0000D92F9CF0E940002FFCF0000000000000000000041
:1402E400000008950000000000000000000000000000000069
:1402F8000000000000000000000000000000000000000000F2
:14030C000000000000000895E9DFE8DFE7DF0895FBDFFADF9B
:14032000F9DFF8DF0895FADFF9DF08950E941104402F01C048
:14033400F8DF242E332441502220D1F70E9414040895EFDF75
:14034800EEDFEDDFECDFEBDFEADFE9DFE8DFE7DFE6DF0895F3
:14035C000E941104A80101C0F0DF1A01415050402220D1F757
:140370003320C1F70E94140408950E941104402F03C008EE38
:1403840013E0EADF242E332441502220C1F70E94140408951E
:140398000E941104402F2090220230902302222011F43320D8
:1403AC0021F04A3011F40DE0F1DF20909B0025FEFCCF4093E4
:1403C0009C00042F11270E941404089520909B0027FEFCCF90
:1403D40000919C001127089588E180939A002224209298006D
:1403E8008FE28093990008958FEF82BB81BB949A959A8BBBAD
:1403FC0095980895EDDFF6DF10C002E311E00E94F40405E15C
:1404100011E00E94F404DADF402F242F332700E011E00E9405
:14042400F404EFCF08950E94C4030E9409042A97002411243F
:140438001F820E828FC1EE89FF898081853259F00081EC8939
:14044C00FD890E9428048E819F8101969F838E837AC1EE2402
:14046000FF2449E052E060E28E899F8901969F8B8E8BE82F98
:14047400F92F208033243D822C82822D932D8835E0E09E0757
:1404880009F48BC088E582159305A4F08C819D818534E0E044
:14049C009E0709F453C18534E0E09E070CF443C08C819D814A
:1404B0008335E0E09E0709F4E2C03BC08C819D818F36E0E0D1
:1404C4009E0709F46CC08FE690E02C803D8082159305DCF00D
:1404D8008C819D818336E0E09E0709F4B6C08436E0E09E0735
:1404EC0009F42EC08536E0E09E0709F427C18636E0E09E07EB
:1405000009F422C18936E0E09E0701F112C08C819D8183373A
:14051400E0E09E0709F4E0C08537E0E09E0709F43EC08837F6
:14052800E0E09E0709F439C000C0EE89FF890081EC89FD8929
:14053C000E9428048E819F8101969F838E8303C1888D998DE5
:140550000296998F888FE82FF92F32972080318039862886FA
:14056400822D932D8030E0E09E0774F48E2D9F2D8860E82E12
:14057800F92E6DE2822D932D809590958F5F9F4F9987888745
:14058C008AE090E09983888328853985042F152F0E943A0498
:1405A00053C0888D998D0296998F888FE82FF92F329720807A
:1405B400318039862886EE89FF898081853759F48AE090E032
:1405C80099838883222D332D042F152F0E94930437C0EE892B
:1405DC00FF8980818F3659F488E090E0998388832885398506
:1405F000042F152F0E94930427C080E190E0998388832885BB
:140604003985042F152F0E949304EE89FF8980818835C1F402
:1406180089E092E0C82ED92E0EC0EC2DFD2D008111270E948A
:14062C00DD04EC2DFD2D00838C2D9D2D0196C82ED92EEC2DE3
:14064000FD2D2080222069F789E092E0C82ED92E57C0888D36
:14065400998D0296998F888FE82FF92F3297208031802A8290
:14066800022DEC89FD890E9428048E819F8101969F838E838D
:14067C006AC0888D998D0296998F888FE82FF92F3297A08006
:14069000B1806D32E9F40DE2EC89FD890E9428048E819F81C2
:1406A40001969F838E8312C0EA2DFB2DC895002DEC89FD89E2
:1406B8000E9428048E819F8101969F838E838A2D9B2D019651
:1406CC00A82EB92EEA2DFB2DC895002049F73BC0888D998D2B
:1406E0000296998F888FE82FF92F3297C080D180CC2031F485
:1406F400DD2021F48DEA91E0C82ED92E6D32E1F40DE2EC8923
:14070800FD890E9428048E819F8101969F838E8311C0EC2DA6
:14071C00FD2D0081EC89FD890E9428048E819F8101969F836D
:140730008E838C2D9D2D0196C82ED92EEC2DFD2D2080222068
:1407440051F705C08AE491E0C82ED92ED7CF8E899F8901963C
:140758009F8B8E8BEE89FF892080222009F06BCE0E811F8108
:14076C002A960E94060424960895A02FB12FE22FF32F019043
:140780000D920020E1F708953A932A931A930A9308956894C4
:14079400DA92D12E04C0E894DA92D12ED32617FF04C01095C3
:1407A80000950F5F1F4F37FF04C0309520952F5F3F4F0E949A
:1407BC00EA03D7FE04C0109500950F5F1F4FD990089568948B
:1407D00001C0E894EA92FA928A93EE24FF2480E1000F111FDE
:1407E400EE1CFF1CE216F30618F0E21AF30A03958A95A1F79B
:1407F80016F40E2D1F2D8991F990E9900895E8E00C94150422
:14080C00EE270C941504FA92EA92DA92CA92BA92AA927A93A5
:140820006A935A934A930895E1E049915991E0FD0895699167
:140834007991E1FD0895A990B990E2FD0895C990D990E3FD8B
:140848000895E990F99008950A92C8950A923196C895F02D8A
:14085C00E99109900994822F932F01968E7F800F911F082F4B
:14087000192F08950E940904C22ED32E402F512FA297ACA477
:14088400BDA48C2D9D2D8030E0E09E0744F461E080959095B4
:140898008F5F9F4FC82ED92E01C06627222429A28C2F9D2F8D
:1408AC008196E82EF92E8E2D9F2D0197282E392EE82EF92ECB
:1408C0002A2D3B2D0C2D1D2D0E94C903E02FF12F8FEB91E05A
:1408D400E80FF91F4080E22DF32D40822A2D3B2D0C2D1D2D0E
:1408E8000E94CD03C02ED12ECC20F9F6DD20E9F6662359F014
:1408FC008E2D9F2D0197282E392EE82EF92E8DE2E22DF32D31
:1409100080832E2D3F2D042F152F0E94BB03A2960E9406044E
:1409240008950E940B04A22EB32EC02ED12EA2976AA57BA56B
:14093800222429A24C2F5D2F4F5D5F4F842F952F0197282ED4
:14094C00392E482F592F262F372F0A2D1B2D0E94E703E02F5C
:14096000F12F84EE91E0E80FF91F4080E22DF32D4082262F6B
:14097400372F0A2D1B2D0E94E903A02EB12EAA20F9F6BB20BB
:14098800E9F6242F352F0C2D1D2D0E94BB03A2960E94030401
:14099C0008958FE890E0202E312E280E391EE22DF32DC895FD
:1409B000002D11270270107008950E941104402F512F042F66
:1409C400152F0E94CF040030010739F0042F152F01561040E7
:1409D8000F5B1F4F02C0042F152F0E94140408950E94C4033A
:1409EC000E941104229722E030E00C2F1D2F0C5F1F4F0E9473
:140A00003104402F512F598348832C813D810CE810E00E9426
:100A14001502402F512F22960E9414042496089503
:00000001FF
