:080000000C94D1000C94940251
:14008C000E60157116311A7A1B731C611D771E322163227884
:1400A000236424652534263329202A762B662C742D722E356E
:1400B400316E32623368346735793636392C3A6D3B6A3C7553
:1400C8003D373E38412C426B4369446F45304639492E4A2FDD
:1400DC004B6C4C3B4D704E2D5227545B553D5B5D5D5C613CD2
:1400F00069316B346C377030712E7232733574367538792B9A
:140104007A337B2D7C2A7D3900000E7E155116211A5A1B532B
:140118001C411D571E4021432258234424452524262329201B
:14012C002A562B462C542D522E3E314E3242334834473559EC
:14014000365E394C3A4D3B4A3C553D263E2A413C424B434994
:14015400444F45294628493E4A3F4B4C4C3A4D504E5F52223D
:14016800547B552B5B7D5D7C613E69316B346C377030712EC9
:14017C007232733574367538792B7A337B2D7C2A7D39000077
:11019000300000546865204B657976616C75653A006D
:1401A200CFEFD0E1CDBFDEBFCE51D0400AEA08830024E5E119
:1401B600F2E012E0EC31F10711F00192FBCF0083ECE8F0E0D7
:1401CA00A0E0B1E011E000E00BBFE13AF10721F0C89531962D
:1401DE000D92F9CF0E943003FFCF0000000000000000000003
:1401F20000000895000000000000000000000000000000005C
:140206000000000000000000000000000000000000000000E4
:14021A000000000000000895E9DFE8DFE7CFFCDFFBDFFADF60
:14022E00F9CFFBDFFACF4A93402F01C0FADF242E3324415031
:140242002220D1F749910895F2DFF1DFF0DFEFDFEEDFEDDF50
:14025600ECDFEBDFEADFE9CF4A935A93A80101C0F1DF1A015F
:14026A00415050402220D1F73320C1F75991499108954A930C
:14027E00402F03C008EE13E0EBDF242E332441502220C1F753
:14029200499108958FEF8BBB8ABB809362008093610082BBB2
:1402A60081BB949A959A8BBB95980895AA92A02E809162001E
:1402BA008D7F80936200809162008B7F80936200809162004A
:1402CE00886080936200ABBA05E010E0C1DF80916200877F6C
:1402E20080936200A9900895AA92A02E80916200826080934B
:1402F6006200809162008B7F80936200809162008860809332
:14030A006200ABBA05E010E0A5DF80916200877F80936200D1
:14031E00A990089501E0C6DF05E010E099CFAA924A93A22E49
:14033200402FAA2021F4042F0058BADF03C0042F0054B6DF66
:140346000A81D0DF4991A99008950E945D03A22E602F4E8189
:14035A005F81AA2021F4062F0058A6DF09C0062F0054A2DFEB
:14036E0005C0FA010081BADF4F5F5F4FFA0120802220B9F7B8
:140382000C94640308E394DF05E010E067DF08E08FDF05E0AC
:1403960010E062DF01E08ADF05E010E05DDF06E085DF05E098
:1403AA0010E058DF0CE080DF05E010E053CF89B7836089BF6B
:1403BE008AE080936A00222424BE20921B02909A8898AF9ABA
:1403D200A79808950E94530320900502222009F06FC0402FB3
:1403E60055274935E0E05E07B9F089E590E0841795072CF00A
:1403FA004231E0E05E0751F011C0403FE0E05E0709F00CC0DC
:14040E0081E0809305026FC081E0809306026BC081E0809315
:14042200060267C020900602222021F5AA2401C0A39480E061
:1404360091E0EA2DFF27EE0FFF1FE80FF91F20802016A1F76C
:14044A00EA2DFF27EE0FFF1FE80FF91F2080201609F04BC05D
:14045E0081E091E0EA2DFF27EE0FFF1FE80FF91F20802092FF
:1404720004023FC0AA2401C0A39482E891E0EA2DFF27EE0F96
:14048600FF1FE80FF91F20802016A1F7EA2DFF27EE0FFF1F6F
:14049A00E80FF91F2080201641F583E891E0EA2DFF27EE0F1D
:1404AE00FF1FE80FF91F20802092040222242092060219C0DC
:1404C200222420920502402F55274231E0E05E0749F04231F8
:1404D600E0E05E0764F04935E0E05E0729F007C0222420921E
:1404EA00060203C02224209206020C9458034A935A93442703
:1404FE00552720901A02220C20921A02802F8170282A209202
:140512001A0206954F5F5F4F4830E0E05E077CF359914991F2
:1405260008950A921A922A923A924A925A926A927A928A9268
:14053A009A920A931A932A933A938A939A93AA93BA93EA935C
:14054E00FA930FB60A920E945D0380911B028F5F80931B025D
:1405620040901802509019022090160230901702220C331C82
:14057600441C551C3092170220921602509219024092180212
:14058A0027E030E003B31127007810700E944C0318014424EE
:14059E0037FC4094552447FC5094809018029090190260904D
:1405B200160270901702622873288428952870921702609269
:1405C6001602909219028092180280911B02813259F522242B
:1405DA0020921B0281E0809315024CEF53E060E070E01301A1
:1405EE002401242235224622572230921702209216025092CF
:1406020019024092180282E090E0810192018A930E946B03C9
:140616001093170200931602309319022093180268DF0091E6
:14062A001A02D4DE0E94640309900FBEF991E991B991A991F7
:14063E00999189913991299119910991999089907990699058
:140652005990499039902990199009901895229719DE04E6C7
:1406660010E0FADD8DDEA5DE87E092E099838883222700275B
:14067A006ADE02E010E0EEDD789406C020900402288221E054
:14068E0004E04DDEF9CF22960895222321F0159507952A95D1
:1406A200FACF08955A934A93BA92AA920895A990B990499193
:1406B600599108957A936A935A934A93BA92AA920895A99077
:1406CA00B990499159916991799108950F920990002031F0F3
:1006DE0036952795179507950A94F8CF0F9008959C
:00000001FF
