:100000000C9446000C940D050C942F050C9465007F
:100010000C9465000C9465000C9465000C946500CC
:100020000C9465000C9465000C9465000C946500BC
:100030000C9465000C9465000C9465000C946500AC
:100040000C9465000C9465000C9465000C9465009C
:100050000C9465000C9498040C9465000C94650055
:100060000C9465000C9465000C9465000C9465007C
:100070000C9465000C9465000C94F4130C943C14DF
:100080000C94E2130C9465000C94650011241FBEBF
:10009000CFEFD0E1DEBFCDBF1DE0A0E0B1E0EEEDDF
:1000A000F7E300E00BBF02C007900D92AE3CB10732
:1000B000D9F71DE0AEECBDE001C01D92A23FB10733
:1000C000E1F70E9496140C94ED1B0C9400008FEF46
:1000D0008BBB8ABB82BB81BB87BB88BB08951F9348
:1000E000182F0E946700EDEBF1E0E10FF11D308168
:1000F00020E0A2E3B0E0EBE3F0E043E357E08C91D3
:1001000080618C938C9180628C9310828C918F7D16
:100110008C9330838C918F7E8C93CA010197F1F779
:100120002F5F283061F71F910895E5E3F0E080EF3D
:100130008083808383B3803F09F486C080E090E9A8
:100140000197F1F783B3803F09F482C08EEF80837B
:10015000808383B38E3B89F08F3B18F48E37A1F4F4
:1001600010C08E3D31F08E3E79F48FE08093ED0D1E
:100170000BC08BE08093ED0D07C088E08093ED0D00
:1001800003C084E08093ED0DE5E3F0E08DEF808324
:10019000808383B38D3B89F08E3B18F48D37A1F4B7
:1001A00010C08D3D31F08D3E79F48EE08093ED0DE1
:1001B0000BC08AE08093ED0D07C087E08093ED0DC2
:1001C00003C083E08093ED0DE5E3F0E08BEF8083E7
:1001D000808383B38B3B81F08C3B18F48B3799F48D
:1001E0000FC08B3D31F08B3E71F48DE08093ED0DAF
:1001F0000AC01092ED0D07C086E08093ED0D03C09C
:1002000082E08093ED0DE5E3F0E087EF808380836B
:1002100083B3873B89F0883B18F48737C9F410C053
:10022000873D31F0873EA1F48CE08093ED0D10C046
:1002300089E08093ED0D0CC085E08093ED0D08C042
:1002400081E08093ED0D04C08FEF8093ED0D089554
:100250008091ED0D08951F930E94670020E011E04A
:10026000E2E3F0E0ABE3B0E043E357E0808180619C
:100270008083808180628083812F80958C938081B0
:100280008F7D8083110F1C9280818F7E8083CA01B5
:100290000197F1F72F5F253049F7A2E3B0E08C9189
:1002A00080618C938C9180628C93812F80952BE35D
:1002B00030E0F90180838C918F7D8C93110F4DEB91
:1002C00051E08091F00D9091F10DFA01E80FF91FC6
:1002D0008081F90180838C918F7E8C9363E377E03A
:1002E000CB010197F1F78C9180618C938C918062A6
:1002F0008C93812F809580838C918F7D8C938091BE
:10030000EB0D9091EC0DFA01E80FF91F80818068E8
:10031000F90180838C918F7E8C93CB010197F1F74B
:100320008C9180618C938C9180628C93110F1095CD
:1003300010838C918F7D8C938091DD0D9091DE0DDB
:10034000480F591FFA018081F90180838C918F7EBB
:100350008C93CB010197F1F78C9180618C938C91F8
:1003600080628C938FEF80838C918F7D8C931F9113
:100370000895A2E2B0E08C9180618C93E3E2F0E01A
:1003800080818F7E808329E933E0C9010197F1F7ED
:100390008081806180838C918F7E8C9384EC8A95A0
:1003A000F1F781B1C9010197F1F70895CF93DF9378
:1003B00028E090E0A2E2B0E0E3E2F0E059E048E1BA
:1003C000C1E2D0E033E996958C9180618C93808175
:1003D0008F7E8083852F8A95F1F78081806180836D
:1003E0008C918F7E8C93842F8A95F1F7888184FD80
:1003F0009068832F8A95F1F7215029F7892FDF9193
:10040000CF910895282F98E0A2E2B0E0E3E2F0E077
:1004100049E034EC8C9180618C9380818F7E808365
:10042000842F8A95F1F720FF03C08081806180834B
:10043000832F8A95F1F7808180618083915011F03C
:100440002695E8CF08950E94B9018CEC0E94020223
:1004500084E40E9402020895EF92FF920F931F938B
:10046000DF93CF93CDB7DEB729970FB6F894DEBFF1
:100470000FBECDBF0E94B9018CEC0E9402028EEB30
:100480000E9402028E010F5F1F4F0F2EFAE0EF2E27
:10049000FF24F02DEC0EFD1E0E94D601F801819381
:1004A0008F01EE15FF05C1F71A8100E0898190E008
:1004B000082B192BB80180E090E00E94E71820E09B
:1004C00030E040E25FE30E9469170E949315709349
:1004D000E60D6093E50D802F912F29960FB6F894C5
:1004E000DEBF0FBECDBFCF91DF911F910F91FF9067
:1004F000EF9008959C0164E670E00E94801B709369
:10050000F10D6093F00DC90164E670E00E94801B5C
:10051000282F392F6AE070E00E94801B7093EC0D49
:100520006093EB0D822F932F6AE070E00E94801B96
:100530009093DE0D8093DD0D0895EF92FF920F935F
:100540001F93CF93DF930E94B90100E010E0EE24E7
:10055000FF240E9423020E942C028091E50D9091BD
:10056000E60D0E947A02E7016091EB0D7091EC0DAF
:100570004091DD0D5091DE0D8091F00D9091F10DC7
:100580000E942B012196C83CD10571F70F5F1F4FC8
:1005900003301105F1F6DF91CF911F910F91FF907C
:1005A000EF900895A8E3B0E01C929FEF97BBE2E3C1
:1005B000F0E08081806180838081806280839BBB4A
:1005C00080818F7D80831C9228E833E148EB50E0E6
:1005D000CA010197F1F721503040D1F78FEF88BB66
:1005E00028E833E148EB50E0CA010197F1F72150C8
:1005F0003040D1F718BA28E833E148EB50E0CA019F
:100600000197F1F721503040D1F78FEF88BB28E8F0
:1006100033E148EB50E0CA010197F1F72150304037
:10062000D1F718BA28E833E148EB50E0CA01019746
:10063000F1F721503040D1F78FEF88BB28E833E144
:1006400048EB50E0CA010197F1F721503040D1F753
:100650000895DF92EF92FF920F931F93CF93DF9352
:1006600068E071E0C8E8D3E148EB50E0A8E3B0E00F
:10067000FF246894F3F80F2EF0E8EF2EF02DCE0152
:100680001C2F092FDD24D3940CC09E01CA010197B1
:10069000F1F721503040D1F7872F80958C93770F59
:1006A0006150662391F72F2D3E2D0EC0FA01319730
:1006B000F1F70197D9F7832F80958C93215019F486
:1006C0006F2D7D2DEECF3695812F902FEFCFE2E36A
:1006D000F0E080818F7B808328EE33E048EB50E0B0
:1006E000CA010197F1F721503040D1F7E2E3F0E081
:1006F0008081806480830895E2E3F0E080818F7BD5
:10070000808328EE33E048EB50E0CA010197F1F70F
:1007100021503040D1F7E2E3F0E0808180648083B3
:1007200080818F7B808328EE33E048EB50E0CA0164
:100730000197F1F721503040D1F7E2E3F0E08081FA
:100740008064808380818F7B808328EE33E048EB58
:1007500050E0CA010197F1F721503040D1F7E2E3B0
:10076000F0E080818064808308950F931F930E943E
:10077000670020E041E0E2E3F0E0ABE3B0E063E3F8
:1007800077E0808180618083808180628083842F94
:1007900080958C9380818F7D8083440F1C92808113
:1007A0008F7E8083CB010197F1F72F5F243049F7CB
:1007B000A2E3B0E08C9180618C938C9180628C93E9
:1007C000842F80952BE330E0F90180838C918F7D1D
:1007D0008C93440F6DEB71E08091F00D9091F10DD1
:1007E000FB01E80FF91F8081F90180838C918F7ED6
:1007F0008C9303E317E0C8010197F1F78C918061B6
:100800008C938C9180628C93842F809580838C91C3
:100810008F7D8C93440F8091EB0D9091EC0DFB013B
:10082000E80FF91F8081F90180838C918F7E8C9372
:10083000C8010197F1F78C9180618C938C91806253
:100840008C93842F809580838C918F7D8C93809165
:10085000DD0D9091DE0DFB01E80FF91F8081F9019C
:1008600080838C918F7E8C93C8010197F1F78C91D6
:1008700080618C938C9180628C93440F409540836F
:100880008C918F7D8C938091E90D9091EA0D680F8A
:10089000791FFB018081F90180838C918F7E8C937D
:1008A000C8010197F1F71F910F91089580E487B96E
:1008B00088EF86B910BC1092CF0D1092CE0D08951E
:1008C000FB01382F20E0E20FF31FCF0168EE73E049
:1008D0000E94801B7093F10D6093F00DCF0168EEC4
:1008E00073E00E94801B282F392F64E670E00E947D
:1008F000801B7093EC0D6093EB0D822F932F64E6B9
:1009000070E00E94801B282F392F6AE070E00E945F
:10091000801B7093DE0D6093DD0D822F932F6AE0B4
:1009200070E00E94801B9093EA0D8093E90D08957A
:100930001F920F920FB60F920BB60F9211242F93A6
:100940003F934F935F936F937F938F939F93AF9357
:10095000BF93EF93FF9364B16093EF0D85B18093E4
:10096000DF0D90E070E00E9460041092DC0D609159
:10097000EB0D7091EC0D4091DD0D5091DE0D20914D
:10098000E90D3091EA0D8091F00D9091F10D0E94EA
:10099000B5038091DC0D8F5F8093DC0D823338F3DB
:1009A0008091CE0D9091CF0D01969093CF0D8093B5
:1009B000CE0D8091CE0D9091CF0D049738F088E741
:1009C00086B9EFE5F0E080818F778083FF91EF912A
:1009D000BF91AF919F918F917F916F915F914F9157
:1009E0003F912F910F900BBE0F900FBE0F901F9055
:1009F00018950E9467000E945604EFE5F0E08081A0
:100A0000806880830895E9E5F0E0808183608083D9
:100A10008AE080936A0014BE08951F920F920FB669
:100A20000F9211248F939F938091D00D9091D10DAF
:100A300001969093D10D8093D00D8091EE0D8F5F34
:100A40008093EE0D8091EE0D803110F01092EE0D3E
:100A50009F918F910F900FBE0F901F9018951F922E
:100A60000F920FB60F9211248F939F938091D00D08
:100A70009091D10D01969093D10D8093D00D8091DE
:100A8000EE0D882331F08091EE0D81508093EE0DB4
:100A900003C08FE08093EE0D9F918F910F900FBE5A
:100AA0000F901F9018958FE782BB80E781BB0E9453
:100AB0000305EFE5F0E08081806880838091D00DB0
:100AC0009091D10D059751F08091EE0D0E946F002D
:100AD0008091D00D9091D10D0597B1F71092D10D65
:100AE0001092D00D19BEEFE5F0E080818F77808302
:100AF0000895CF93DF939FEF97BBE2E3F0E09083FD
:100B000091BB8081806180838081806280839BBB78
:100B100080818F7D808320E030E0C5EDD1E0A8E3C7
:100B2000B0E060E078E44DED51E00DC081918C9330
:100B3000CB010197F1F7E417F507C1F72F5F3F4F9E
:100B40002038310511F0FE01F1CFDF91CF910895EA
:100B5000ABE3B0E09FEF9C939ABB909362009093BD
:100B60006100E2E3F0E0908391BB8081806180834B
:100B70008081806280839C9380818F7D80830895B3
:100B8000E2E6F0E090819D7F908390819B7F90834F
:100B90009081986090838BBB80E094E20197F1F79D
:100BA0008081877F80830895E2E6F0E09081926003
:100BB000908390819B7F90839081986090838BBB82
:100BC00080E094E20197F1F78081877F8083089528
:100BD00081E00E94C00580E094E20197F1F708955A
:100BE000CF93DF93EA01662321F480580E94C00569
:100BF00003C080540E94C0058881882331F00E9480
:100C0000D405219688818823D1F7DF91CF9108956B
:100C10001F93142F662321F480580E94C00503C03F
:100C200080540E94C005812F0E94D4051F91089511
:100C30000F931F93EAE3F0E08FEF80838081806E53
:100C4000808388E30E94C00500E014E2C801019798
:100C5000F1F788E00E94C005C8010197F1F781E033
:100C60000E94C005C8010197F1F786E00E94C00507
:100C7000C8010197F1F78CE00E94C005C8010197F7
:100C8000F1F71F910F910895CF92DF92FF920F938A
:100C90001F93CF93DF930E94A80528EE33E048EB23
:100CA00050E0CA010197F1F721503040D1F70E947E
:100CB00018060E94E80580E060E04FE051E00E94E5
:100CC000F00524EC39E048EB50E0CA010197F1F758
:100CD00021503040D1F7FF24F39400E011E00F2EB3
:100CE000F4ECCF2EF9E0DF2EF02DC8EBD0E00EC0F3
:100CF0008F2D61E00E9408069601CE010197F1F761
:100D000021503040D1F7F3940F5F1F4FF80140811D
:100D1000442371F724EC39E048EB50E0CA01019715
:100D2000F1F721503040D1F7DF91CF911F910F9112
:100D3000FF90DF90CF900895CF93DF932BE330E0C7
:100D40009FEFE90198839ABBA2E6B0E09C93909351
:100D50006100E2E3F0E0908391BB93B992B98081A6
:100D600080618083808180628083988380818F7D91
:100D700080838C9184608C93DF91CF910895E3E21E
:100D8000F0E0908190689083E2E2F0E090819064DE
:100D90009083282F2E7F90E0E3E2F0E020FF04C054
:100DA00080818064808303C080818F7B8083808189
:100DB0008062808380818F7D80839F5F983011F077
:100DC0002695ECCFE2E2F0E080818064808390E0C1
:100DD000E3E2F0E060FF04C080818064808303C0B0
:100DE00080818F7B808380818062808380818F7D02
:100DF00080839F5F983011F06695ECCFE3E2F0E0DE
:100E000080818F7780830895E3E2F0E0908190689D
:100E10009083E2E2F0E0908190649083282F21603B
:100E200090E0E3E2F0E020FF04C0808180648083F2
:100E300003C080818F7B80838081806280838081FA
:100E40008F7D80839F5F983011F02695ECCFE2E292
:100E5000F0E080818F7B808390E0A1E2B0E0E3E26C
:100E6000F0E026958C9186FD2068808180628083E9
:100E700080818F7D80839F5F983099F7E3E2F0E077
:100E800080818F778083822F0895EF92FF920F9356
:100E90001F938EE860E00E94BF0680E860E80E9431
:100EA000BF060F2EFFEDEF2EF1E0FF2EF02DF70124
:100EB00061918F018CE80E94BF06F801608188E88B
:100EC0000E94BF06F7013296608186E80E94BF0645
:100ED00087010A5F1F4FF80160818AE80E94BF0600
:100EE000F7013396608184E80E94BF06F7013496CB
:100EF000608182E80E94BF0685E090E0E80EF91E5E
:100F0000F701608180E80E94BF06F80160818AE8ED
:100F10000E94BF068EE860E80E94BF061F910F91F5
:100F2000FF90EF900895EF92FF920F931F938CE83C
:100F30000E9404070F2EFFEDEF2EF1E0FF2EF02DA3
:100F4000F70181938F0188E80E940407F8018083EC
:100F500086E80E940407F7013296808384E80E94A5
:100F60000407F7013396808382E80E940407F701A3
:100F70003496808380E80E9404078F77F7013596C6
:100F800080838AE80E94040726E030E0E20EF31E28
:100F9000F70180831F910F91FF90EF900895E3E296
:100FA000F0E080818F77808380818F7D8083E2E293
:100FB000F0E08081806880838081806280830895F2
:100FC000E2E6F0E090819D7F908390819B7F90830B
:100FD0009081986090838BBB80E094E20197F1F759
:100FE0008081877F80830895E2E6F0E090819260BF
:100FF000908390819B7F90839081986090838BBB3E
:1010000080E094E20197F1F78081877F80830895E3
:101010001F93142F662321F480580E94E00703C019
:1010200080570E94E00786E69EE00197F1F7812F46
:101030000E94F4071F91089581E00E94E00780E07C
:1010400094E20197F1F708950F931F93CF93DF93E5
:10105000EB010E94E00780E094E20197F1F78881BC
:10106000882359F000E014E20E94F4072196C80199
:101070000197F1F788818823B9F7DF91CF911F910C
:101080000F91089581E867E171E00E9424080895B6
:101090000F931F93EAE3F0E08FEF80838081806EEF
:1010A000808380E30E94E00700E014E2C80101971A
:1010B000F1F780E30E94E007C8010197F1F78CE0A7
:1010C0000E94E007C8010197F1F781E00E94E00764
:1010D000C8010197F1F71F910F9108952F923F9248
:1010E0004F925F926F927F928F929F92AF92BF9238
:1010F000CF92DF92EF92FF920F931F93DF93CF93E4
:1011000000D0CDB7DEB70E949C0628EE33E048EB56
:1011100050E0CA010197F1F721503040D1F70E9409
:1011200048080E941C080E94CF0780E098E40197BD
:10113000F1F70E9445070E9442081A828A8189308D
:1011400008F005C108EB10E00F2EF6E6EF2EFEE0EA
:10115000FF2EF02D0F2EFEEDCF2EF1E0DF2EF02D25
:1011600056010894A11CB11C88249924689481F824
:101170008C0C9D1C0F2EF3E06F2E7724F02D6C0C41
:101180007D1C44245524689442F84C0C5D1C0F2EA1
:10119000F5E02F2E3324F02D2C0C3D1C20ED37E0F4
:1011A000C8010197F1F721503040D1F70E94930711
:1011B00088E80E94E007C7010197F1F7F6018081F6
:1011C00082958F70805D898389810E94F407C701B1
:1011D0000197F1F7F60180818F70805D89838981A5
:1011E0000E94F407C7010197F1F7F501808182950C
:1011F0008F70805D898389810E94F407C701019700
:10120000F1F7F50180818F70805D898389810E946B
:10121000F407C7010197F1F78DE20E94F407C701B7
:101220000197F1F7F401808182958F70805D898349
:1012300089810E94F407C7010197F1F7F4018081C9
:101240008F70805D898389810E94F407C7010197AF
:10125000F1F78DE20E94F407C7010197F1F7F3015E
:10126000808182958F70805D898389810E94F407D7
:10127000C7010197F1F7F30180818F70805D898349
:1012800089810E94F407C7010197F1F78CE90E9458
:10129000E00780E094E20197F1F7F2018081829506
:1012A0008F70805D898389810E94F407C70101974F
:1012B000F1F7F20180818F70805D898389810E94BE
:1012C000F407C7010197F1F78AE30E94F407C70109
:1012D0000197F1F7F101808182958F70805D89839C
:1012E00089810E94F407C7010197F1F7F10180811C
:1012F0008F70805D898389810E94F407C7010197FF
:10130000F1F78AE30E94F407C7010197F1F7E4EED1
:10131000F1E0808182958F70805D898389810E9450
:10132000F407C7010197F1F7E4EEF1E080818F70D7
:10133000805D898389810E94F407C7010197F1F7D5
:101340008A818F5F8A838A81893008F427CF0F9042
:101350000F90CF91DF911F910F91FF90EF90DF9051
:10136000CF90BF90AF909F908F907F906F905F9045
:101370004F903F902F900895CF93DF932BE330E071
:101380009FEFE90198839ABB90936200909361006C
:10139000A5E6B0E08FE08C9380936400E2E3F0E098
:1013A000908391BB80818061808380818062808313
:1013B000988380818F7D808398BB97BB8C918B7F36
:1013C0008C93DF91CF910895E2E6F0E090819D7FCC
:1013D00090839081977F9083ABE3B0E01C929081E3
:1013E0009B7F90839081946090838C9380818B7F8E
:1013F0008083808184608083808188608083808115
:101400008D7F80830895CF93DF93A2E6B0E09C9117
:101410009D7F9C939C91977F9C9324E0922F9A951B
:10142000F1F76BE370E0EB011882922F9A95F1F7D8
:101430009C919B7F9C93922F9A95F1F79C9194603D
:101440009C93922F9A95F1F7FB018083822F8A95C6
:10145000F1F78C918B7F8C93822F8A95F1F78C9189
:1014600084608C93822F8A95F1F78C9182608C93A3
:10147000822F8A95F1F79FEF9883822F8A95F1F753
:10148000E5E6F0E080818F7E8083822F8A95F1F7F8
:10149000822F8A95F1F7808180618083488150E0B6
:1014A000822F8A95F1F7988380818F7E80832A9599
:1014B000F1F7808180618083FB0190818C9188604D
:1014C0008C938C918D7F8C93392F20E0240F351FC6
:1014D000822F932FDF91CF910895E2E6F0E0908183
:1014E0009D7F90839081977F9083ABE3B0E01C92C7
:1014F00090819B7F90839081946090838C93808176
:101500008B7F8083808184608083808188608083FA
:1015100080818D7F80838081826080838081877FCE
:1015200080837C9380818B7F8083808184608083B3
:1015300080818860808380818D7F808380818260CC
:1015400080838081877F80836C9380818B7F808381
:1015500080818460808380818860808380818D7FAA
:1015600080830895ABE3B0E09C93E2E6F0E09081E5
:101570009B7F90839081946090838C9380818B7FFC
:10158000808380818460808308958BBBE2E6F0E0F5
:1015900080818B7F808380818460808308950F9316
:1015A0001F93E2E3F0E080818F77808300E018E40E
:1015B000C8010197F1F7808180688083C801019795
:1015C000F1F780E061E070E00E946D0AC8010197C8
:1015D000F1F783E060E370E00E946D0A81E06DE165
:1015E00071E00E946D0A8AE066E071E00E946D0A77
:1015F00087E067E370E00E946D0A88E067E077E0CB
:101600000E946D0A8CE061E070E00E946D0A82E049
:1016100060E074E00E946D0A8AE067E071E00E9479
:101620006D0A82E161E070E00E946D0A8AE061E08B
:1016300071E00E946D0A81E165E075E00E946D0A2B
:1016400084E16FE07CE20E946D0A12E0812F8A95AE
:10165000F1F78AE062E071E00E946D0A80E160E1EA
:101660007AE10E946D0A812F8A95F1F78AE060E0A5
:1016700071E00E946D0A83E166E176E00E946D0AE6
:10168000812F8A95F1F78AE061E071E00E946D0A8E
:1016900080E363E070E00E946D0A81E364E074E03F
:1016A0000E946D0A82E363E073E00E946D0A83E3A7
:1016B00066E074E00E946D0A84E364E074E00E94D6
:1016C0006D0A85E363E073E00E946D0A86E367E0DC
:1016D00074E00E946D0A87E364E076E00E946D0A80
:1016E000812F8A95F1F780E160E17AE10E946D0A2D
:1016F0001A95F1F78AE060E071E00E946D0A83E1DB
:1017000066E176E00E946D0A85EF8A95F1F71F91F8
:101710000F9108950F931F93CF93DF938C0184E46F
:1017200060E07FE70E946D0A85E460E57FEE0E943D
:101730006D0A81E260E070E50E946D0A82E20E941B
:10174000E409E2E6F0E08081877F80838081826027
:101750008083C0E0D0E5C8010E94B20A2197D9F782
:1017600084E460E07FE50E946D0A85E460E17FE447
:101770000E946D0A81E260E070E10E946D0A82E2DF
:101780000E94E409E2E6F0E08081877F8083808127
:1017900082608083C0E0D8E1C8010E94B20A21972C
:1017A000D9F7E2E6F0E0808188608083DF91CF9115
:1017B0001F910F9108959F92AF92BF92CF92DF92A7
:1017C000EF92FF920F931F93CF93DF93982EC62E25
:1017D000042F5901DD2488E098E0C89EB001C99E1D
:1017E000700DD89E700D11246050794F84E40E94D2
:1017F0006D0A10E00F2EF5E0EF2EFF24F02DE00E25
:10180000F11E102F00270E0D1F1D00511A4F0295BB
:101810001295107F1027007F102785E4B8010E94E1
:101820006D0AFE2CEE24FF0CEC0CFD1CEE0CFF1CD4
:10183000EE0CFF1CEE0CFF1C81E2B7010E946D0A4A
:1018400082E20E94E409E2E6F0E08081877F808303
:10185000808182608083892D90E082959295907F2F
:101860009827807F98270F2EF6EECF2EF1E0DF2EFF
:10187000F02DC80ED91EC0E0D0E010E0F601EC0F4C
:10188000FD1FE080012FEE2024F4C5010E94B20A62
:1018900004C080E090E00E94B20A0F5F083011F0AF
:1018A000EE0CF1CF2196C031D10541F7E2E6F0E030
:1018B000808188608083DF91CF911F910F91FF908D
:1018C000EF90DF90CF90BF90AF909F9008959F9240
:1018D000AF92BF92CF92DF92EF92FF920F931F933E
:1018E000CF93DF93982EC62E042F5901DD2480E17B
:1018F00090E1C89EB001C99E700DD89E700D112454
:101900006050714F84E40E946D0A10E00F2EF5E0E4
:10191000EF2EFF24F02DE00EF11E102F00270E0DEC
:101920001F1D00511A4F02951295107F1027007F3E
:10193000102785E4B8010E946D0AFE2CEE24EC0C01
:10194000FD1CEE0CFF1CEE0CFF1CEE0CFF1CEE0C45
:10195000FF1C81E2B7010E946D0A82E20E94E40945
:10196000E2E6F0E08081877F8083808182608083EF
:10197000892D90E0880F991F82959295907F9827E6
:10198000807F98270F2EF6EECF2EF9E0DF2EF02D78
:10199000C80ED91EC0E0D0E010E0F601EC0FFD1F2C
:1019A000E080012FEE2024F4C5010E94B20A04C099
:1019B00080E090E00E94B20A0F5F083011F0EE0C58
:1019C000F1CF2196C032D10541F7E2E6F0E0808107
:1019D00088608083DF91CF911F910F91FF90EF90EE
:1019E000DF90CF90BF90AF909F900895DF92EF92DD
:1019F000FF920F931F93CF93DF93EC01162F042FC9
:101A0000790188818823A1F0DD24612F402F97017F
:101A10000E94DB0B1F5F103138F00F5F0A3018F0A7
:101A20001D2D0D2D01C01D2D21968881882369F75C
:101A3000DF91CF911F910F91FF90EF90DF9008956C
:101A40000F931F93CF93DF938C0184E460E07FE7D3
:101A50000E946D0A85E460E57FEE0E946D0A81E2D6
:101A600060E070E50E946D0A82E20E94E409E2E60D
:101A7000F0E08081877F8083808182608083C0E006
:101A8000D0E5C8010E94B20A2197D9F7E2E6F0E05A
:101A9000808188608083DF91CF911F910F9108959D
:101AA000DF92EF92FF920F931F93D82E062F7A01A9
:101AB00084E460E07FE70E946D0A85E460E57FEEE4
:101AC0000E946D0A10E0005B1F4F102F00270D0DC4
:101AD000111D81E2B8010E946D0A82E20E94E409B0
:101AE00002E610E0F8018081877F80838081826038
:101AF0008083C7010E94B20AF801808188608083D8
:101B00001F910F91FF90EF90DF9008952F923F92D9
:101B10004F925F926F927F928F929F92AF92BF92FD
:101B2000CF92DF92EF92FF920F931F93DF93CF93A9
:101B300000D000D0CDB7DEB7B82EA62E1A83098309
:101B400050E0481B5109552324F444244A94542C52
:101B500003C0442455244394822F90E09C012A1909
:101B60003109332324F422242A94322C03C0222462
:101B7000332423947A01552324F4F094E194F1085A
:101B8000F394A90133231CF4509541955F4FE4165B
:101B9000F5061CF0CC24DD2407C0842F952FA70167
:101BA0007C01CC24DD24C3941E141F04DCF54A01FF
:101BB000880C991CC4018E199F099C838B8300E0BB
:101BC00010E0882799278E199F093C016E187F081D
:101BD0008B2D6A2D49815A810E94500DEB81FC8129
:101BE000FF236CF0F1E0CF16D10411F4B40C01C066
:101BF000A20C8B819C81860D971D9C838B8391E029
:101C0000C916D10411F4A20C01C0B40C0F5F1F4F10
:101C10000E151F053CF4EB81FC81E80DF91DFC83DA
:101C2000EB83D6CF0F900F900F900F90CF91DF9155
:101C30001F910F91FF90EF90DF90CF90BF90AF90EA
:101C40009F908F907F906F905F904F903F902F90DC
:101C50000895CF92DF92EF92FF920F931F93CF934D
:101C6000DF93C82EF42ED22EE801261790F0062F0F
:101C7000E82E0CC01E2D812F602FAE010E94500D4A
:101C80001F5FF116C0F70F5FD01618F0FC1490F725
:101C9000FACFDF91CF911F910F91FF90EF90DF90DE
:101CA000CF9008959F92AF92BF92CF92DF92EF9222
:101CB000FF920F931F93C82EB62EF42EE22ED42E31
:101CC000D80E922E960E8D2D692DA8010E94500DD2
:101CD000AE2CAB188D2D6A2DA8010E94500DDF2C63
:101CE000DC188D2D692DA8010E94500D8D2D6A2DB7
:101CF000A8010E94500DDF2CDB0CAE2CAC0C8D2DFE
:101D00006A2DA8010E94500DEC188D2D6E2DA80192
:101D10000E94500DFB188F2D6A2DA8010E94500DB6
:101D20008F2D6E2DA8010E94500D1F910F91FF90D5
:101D3000EF90DF90CF90BF90AF909F9008956F92FB
:101D40007F928F929F92AF92BF92CF92DF92EF924B
:101D5000FF920F931F93CF93DF93682E762E490146
:101D6000C42FD0E0882799278C1B9D0B8C1B9D0BC3
:101D70000F2EF3E0CF2EDD24F02DC80ED91EEE2459
:101D8000FF240F2EF6E0AF2EBB24F02D8E2D6C2FEE
:101D9000462D272D30E084010E94520EDD201CF4D8
:101DA000CA0CDB1C0FC097012C1B3D0BC6010A9609
:101DB000820F931F820F931F820F931F6C01C20E1D
:101DC000D31E21970894E11CF11C84E090E0A80E3A
:101DD000B91ECE15DF05D4F6DF91CF911F910F917B
:101DE000FF90EF90DF90CF90BF90AF909F908F903B
:101DF0007F906F900895982F562F842F805D692FC4
:101E0000452F0E94DB0B08958F929F92AF92BF9255
:101E1000CF92DF92EF92FF920F931F93CF93DF93B6
:101E20005C016B017A018901C0E0D0E0882499242B
:101E3000689487F8AE014A0D5B1D94010C2E02C018
:101E4000359527950A94E2F7C9018E219F2128171D
:101E5000390741F4CA01B60141E050E098010E94FF
:101E6000FB0E07C0CA01B60140E050E098010E9495
:101E7000FB0E2196C830D105E9F6DF91CF911F9175
:101E80000F91FF90EF90DF90CF90BF90AF909F9019
:101E90008F900895AF92BF92CF92DF92EF92FF9210
:101EA0000F931F937C016B018A0159015295429552
:101EB0004F7045275F7045270E94FB0E0F70107012
:101EC000C7010196B601A80195010E94FB0E1F9162
:101ED0000F91FF90EF90DF90CF90BF90AF9008955B
:101EE000A8E3B0E08C9182608C93E7E3F0E080811E
:101EF000826080838081877F80838081846080830B
:101F00008081816080838C9181608C93EDE2F0E030
:101F100080818061808380818E7F808380818260E8
:101F200080838081877F808380818F7D8083808193
:101F3000806480838EB18FEF8093E40D0895282F05
:101F4000EEE2F0E080818823ECF72FB908958FB995
:101F5000EEE2F0E080818823ECF78FB10895EF92F4
:101F6000FF921F93182F892F0E94A70FF82EEE249F
:101F7000812F0E94A70F90E0E82AF92A8E2D9F2D2D
:101F80001F91FF90EF9008950E94700FE4E6F0E03B
:101F9000808188608083E5E6F0E0808188608083CE
:101FA0000895EF92FF920F931F937A018B01806443
:101FB0000E94A70F812F9927AA27BB270E94A70F4E
:101FC000C801AA27BB270E94A70FBB27A12F902FCC
:101FD0008F2D0E94A70F8E2D0E94A70F85E90E94CA
:101FE000A70F10E003C0193031F01F5F8FEF0E9480
:101FF000A70F8F3FC1F31F910F91FF90EF900895AE
:10200000EF92FF920F931F93CF93DF938B019C016D
:102010007A01E5E6F0E08081877F80830F2EF9E08A
:10202000000F111F221F331FFA95D1F7F02D88E101
:10203000B901A8010E94D10F082F882311F0982F11
:102040002AC08FEF0E94A70F8EEF0E94A70FC0E05B
:10205000D0E0F70181917F010E94A70F2196F2E065
:10206000C030DF07B1F78FEF0E94A70F8FEF0E94FC
:10207000A70F8FEF0E94A70F982F8F71853059F40B
:102080008FEF0E94A70F8823D9F3E5E6F0E0808167
:1020900088608083902F892FDF91CF911F910F91BE
:1020A000FF90EF900895CF92DF92EF92FF920F93FF
:1020B0001F93CF93DF936B017C018A01E5E6F0E08B
:1020C0008081877F8083C0E0D0E08FEF0E94A70FE0
:1020D0002196CA30D105C9F7B701A601032E39E010
:1020E000440F551F661F771F3A95D1F7302D81E1B8
:1020F0000E94D10FF82E8823E9F48FEF0E94A70FDA
:102100008E3FD9F7C0E0D0E08FEF0E94A70FF80113
:1021100081938F012196F2E0C030DF07A9F78FEF9E
:102120000E94A70F8FEF0E94A70FE5E6F0E08081E5
:10213000886080838F2DDF91CF911F910F91FF9049
:10214000EF90DF90CF900895BF92CF92DF92EF9201
:10215000FF920F931F93B82E6A017B0105E610E0F2
:10216000F8018081886080838FEF0E94A70FF801BB
:102170008081877F80838B2DB701A6010E94D10FBC
:102180001F910F91FF90EF90DF90CF90BF90089537
:10219000FF920F931F9300E0FF241F2D8FEF0E94EB
:1021A000A70F1F5F1A30D1F78F2D40E050E060E09D
:1021B00070E00E94A4100F5F0B3001F1813069F7CD
:1021C00022C011E081E040E050E060E070E00E9459
:1021D000A4101F5F153691F08823A1F78BE340E030
:1021E00050E060E070E00E94A41080E140E052E026
:1021F00060E070E00E94A41080E001C08FEF1F91AA
:102200000F91FF90089581E040E050E060E070E0C1
:102210000E94A4108823A9F6E1CFEF92FF920F93BA
:102220001F93DF93CF93CDB7DEB760970FB6F894C7
:10223000DEBF0FBECDBF89E040E050E060E070E05F
:102240000E94A410882329F0282F30E040E050E0BD
:1022500084C0E5E6F0E08081877F808300E010E0C5
:102260000DC00150104051F4E5E6F0E08081886037
:10227000808321E030E040E050E06FC08FEF0E94AB
:10228000A70F8E3F71F78E010F5F1F4F0F2EF1E1E9
:10229000EF2EFF24F02DEC0EFD1E8FEF0E94A70FF6
:1022A000F80181938F01EE15FF05B9F78FEF0E94BA
:1022B000A70F8FEF0E94A70F8FEF0E94A70FE5E6F1
:1022C000F0E08081886080838FEF0E94A70FEF810C
:1022D000388529859A859370990F8B85881F882763
:1022E000881F8E5F890F19F461E070E006C061E01D
:1022F00070E0660F771F8150E1F78E8190E08F705C
:102300009070009719F401E010E006C001E010E0C1
:10231000000F111F0197E1F7F0E0E370F070FE2F5E
:10232000EE27E30FF11D80E090E02295269526959B
:10233000237030E02F5F3F4FEE0FFF1FEE0FFF1FA8
:102340002E0F3F1F40E050E00E94551B980140E0D7
:1023500050E00E94551B9B01AC01622F732F842F0C
:10236000952F60960FB6F894DEBF0FBECDBFCF910C
:10237000DF911F910F91FF90EF9008959C01E8E38A
:10238000F0E080818E7F808380818D7F808340E03C
:10239000C90180709078992324F4808184608083BF
:1023A00003C080818B7F8083808182608083808175
:1023B0008D7F80834F5F403119F0220F331FE8CFAC
:1023C00088E18A95F1F7E8E3F0E08081816080831D
:1023D00080818D7F808308951F93CF93DF93E2E305
:1023E000F0E08081806180838081806280838FEFD4
:1023F0008BBB80818F7D808310E0C6E6DEE080E0CD
:1024000090E0880F991F880F991F9093E30D809398
:10241000E20D0E94BE118091E20D9091E30D969520
:10242000879596958795FE013197F1F701969093E0
:10243000E30D8093E20D23E08F3F920710F31F5FBF
:102440001230E9F6DF91CF911F910895BF92CF929C
:10245000DF92EF92FF920F931F937B018C0184E236
:1024600091E060E048E020E038EF0E94F60C0D2E8D
:10247000D4E116950795F794E794DA95D1F7D02D26
:10248000C801B70128EE33E040E050E00E94941B01
:10249000C22E2093D90D3093DA0DC801B70128EE72
:1024A00033E040E050E00E94941B162F072FF82ED7
:1024B000E92E24E630E040E050E00E94941BB22E6A
:1024C0002093D70D3093D80D612F702F8F2D9E2D17
:1024D00024E630E040E050E00E94941B162F072FC6
:1024E000F82EE92E2AE030E040E050E00E94941BF4
:1024F000D22E2093D50D3093D60D612F702F8F2DB6
:102500009E2D2AE030E040E050E00E94941B162F00
:102510006093D30D7093D40D8C2D805D68E048E0FE
:102520002EEE3EE00E94DB0B8B2D805D69E048E0E3
:102530002EEE3EE00E94DB0B8D2D805D6AE048E0D0
:102540002EEE3EE00E94DB0B812F805D6BE048E0C9
:102550002EEE3EE00E94DB0B8DE291E06DE048E064
:1025600020E038EF0E94F60C80E391E060E049E063
:1025700020E038EF0E94F60C89E391E068E049E042
:102580002FEF3FEF0E94F60C1F910F91FF90EF90FD
:10259000DF90CF90BF900895E2E3F0E09FEF90834B
:1025A00091BB8081806180838081806280839BBBBE
:1025B00080818F7D808308950F931F9380E098E43E
:1025C0000197F1F70E94CC120E94BC09E5E6F0E009
:1025D0008081806180830E94CF0A80E090E00E9429
:1025E0008A0B10E0812F8E5E1F5F612F40E020EE8E
:1025F00037E00E94670C1530A9F782E491E060E0B3
:1026000041E020E038EF0E94F60C82E591E060E0C6
:1026100042E02EEE3EE00E94F60C80E061E34FE7E0
:1026200021E307E813EE0E94860D80E063E34FE7A5
:1026300023E30FEE1FE00E94860D83E691E060E049
:1026400044E02FEF3FEF0E94F60C84E791E060E05A
:1026500045E02FEF3FEF0E94F60C0E94C40F83E38A
:1026600097E00197F1F710E016C01F5F153199F45C
:102670000E947C038FE791E060E047E020E038EFC4
:102680000E94F60C8CE891E060E048E020E038EF32
:102690000E94F60C04C00E94C810882331F78CE910
:1026A00091E060E046E02FEF3FEF0E94F60C0E94C1
:1026B0000D110E942612EDE2F0E080818F7B808375
:1026C0001F910F9108958FEF8BBB8ABB82BB81BB9B
:1026D00010929B0088E980939A0086E080939D0089
:1026E000109298008FE28093990008950E946700ED
:1026F00020E031E0E2E3F0E0ABE3B0E043E357E0B9
:10270000808180618083808180628083832F809537
:102710008C9380818F7D8083330F1C9280818F7E8C
:102720008083CA010197F1F72F5F273049F7A2E3B1
:10273000B0E08C9180618C938C9180628C93832F1C
:1027400080952BE330E0F90180838C918F7D8C9311
:10275000E091DD0DF091DE0DE354FE4F8081F90133
:1027600080838C918F7E8C9383E397E00197F1F7C0
:102770000895282F64E60E94741B8093F00D109238
:10278000F10D822F0E94741B292F892F6AE00E946D
:10279000741B8093EB0D1092EC0D822F0E94741B22
:1027A0009093DD0D1092DE0D0895982FEBE9F0E087
:1027B000808185FFFDCF90939C0086E69EE0019787
:1027C000F1F708951F920F920FB60F9211248F9375
:1027D0009F9380E098E40197F1F79F918F910F907C
:1027E0000FBE0F901F9018951F920F920FB60F9269
:1027F0000BB60F9211242F933F934F935F936F93D8
:102800007F938F939F93AF93BF93EF93FF938091A9
:102810009C008093E80D9FEF97BB88BB90E00E94DF
:102820007A026091EB0D7091EC0D4091DD0D5091AD
:10283000DE0D8091F00D9091F10D0E94761320EA4B
:102840003FE048EB50E0CA010197F1F721503040DA
:10285000D1F7FF91EF91BF91AF919F918F917F91B0
:102860006F915F914F913F912F910F900BBE0F9001
:102870000FBE0F901F9018951F920F920FB60F92D8
:1028800011248F938091DB0D80939C008150809365
:10289000DB0D8091DD0181508093DD018091DD01B0
:1028A000882319F481E08093D20D8F910F900FBE91
:1028B0000F901F901895EF92FF921F93CF93DF9385
:1028C0000E9463131092D20D89E08093DB0D85E0A6
:1028D0008093DD01EFE5F0E080818068808310E087
:1028E0000F2EF8EEEF2EF3E0FF2EF02DC8EBD0E028
:1028F0008091DB0D0E94D5138091DB0D8150809378
:10290000DB0D9701CE010197F1F721503040D1F74F
:102910001F5F193069F7EFE5F0E080818F778083E2
:10292000DF91CF911F91FF90EF9008952F923F92EA
:102930004F925F926F927F928F929F92AF92BF92CF
:10294000CF92DF92EF92FF920F931F93CF93DF937B
:102950008FE084BB80EF85BBC1E0D0E00F2EF7E0B5
:10296000AF2EBB24F02D0F2EFBE08F2E9924F02DDF
:102970000F2EFDE06F2E7724F02D0F2EFCE04F2E52
:102980005524F02D0F2EFEE02F2E3324F02D01E0E4
:1029900010E0EE24FF24CC24DD246894C1F80E94CA
:1029A00095008091ED0D8F3F09F4B9C0873009F48F
:1029B00064C0883080F48330C1F1843028F48130E1
:1029C00011F1823048F576C0853009F442C0863076
:1029D00008F049C034C08B3009F47DC08C3038F425
:1029E000893009F45DC08A3008F06DC04FC08D3069
:1029F00009F47FC08D3008F475C08E3009F480C0B2
:102A00008F3069F684C00E94670381E00E946F00E6
:102A10000E94D202E801C3CF0E94670382E00E94B5
:102A20006F000E949D02E601BACF0E94670383E017
:102A30000E946F000E94EC11C3E0D0E0B0CF0E9472
:102A4000670384E00E946F000E94F904C4E0D0E0B4
:102A5000A6CF0E94670385E00E946F000E94530585
:102A6000C5E0D0E09CCF0E94670386E00E946F0023
:102A70000E947905C6E0D0E092CF0E94670387E00C
:102A80000E946F000E944406E50189CF0E946703FF
:102A900088E00E946F000E946E08C8E0D0E07FCFFF
:102AA0000E94670389E00E946F000E94DC12C9E067
:102AB000D0E075CF0E94670380E00E946F000E9403
:102AC0005B14E7016CCF0E9467038AE00E946F00ED
:102AD000CAE0D0E064CF0E9467038BE00E946F00E1
:102AE000E4015DCF0E9467038CE00E946F00E20169
:102AF00056CF0E9467038DE00E946F00E3014FCF25
:102B00000E9467038EE00E946F00E10148CF0E949F
:102B100067038FE00E946F00CFE0D0E040CF8C2FA2
:102B20000E946F003CCFEF92FF920F931F937B01A7
:102B30008C0120E030E040E05FE40E9463188823CD
:102B40008CF0C801B70120E030E040E05FE40E9473
:102B50000B170E9493189B01AC012050304040405D
:102B6000504806C0C801B7010E9493189B01AC01F0
:102B7000B901CA011F910F91FF90EF900895A0E055
:102B8000B0E0E5ECF5E10C94B61BDC012B01FA0199
:102B90009C91923008F439C1EB018881823008F4AD
:102BA00033C1943069F4843009F02FC111969C919F
:102BB00011978981981709F428C1A6ECBCE025C1BA
:102BC000843009F421C18230A9F4923009F01DC18A
:102BD0009A01AD0188E0EA010990AE01E90109928C
:102BE0009E018150C1F7E201898111969C91892350
:102BF000818308C1923009F407C112962D903C9050
:102C00001397EB018A819B811496AD90BD90CD9076
:102C1000DC901797EC80FD800E811F819101281BAD
:102C2000390BB90137FF04C066277727621B730B86
:102C3000603271050CF061C0121613066CF5370195
:102C40004801062E04C096948794779467940A945A
:102C5000D2F721E030E040E050E004C0220F331F03
:102C6000441F551F6A95D2F72150304040405040D4
:102C70002E213F21402351232115310541055105C6
:102C800021F021E030E040E050E079018A01E628BF
:102C9000F728082919293CC0232BD1F1260E371E0D
:102CA00035014601062E04C0969487947794679464
:102CB0000A94D2F721E030E040E050E004C0220F57
:102CC000331F441F551F6A95D2F7215030404040B2
:102CD00050402A213B214C215D2121153105410520
:102CE000510521F021E030E040E050E059016A0157
:102CF000A628B728C828D9280BC0821593052CF020
:102D00001C01AA24BB24650103C0EE24FF24870113
:102D100011969C91D20111968C91981709F445C097
:102D2000992339F0A80197012A193B094C095D093B
:102D300006C0A60195012E193F09400B510B57FD06
:102D400008C01182338222822483358346835783CD
:102D50001DC081E081833382228288279927DC018C
:102D6000821B930BA40BB50B84839583A683B78337
:102D70000DC0220F331F441F551F24833583468304
:102D80005783828193810197938382832481358144
:102D900046815781DA01C9010197A109B1098F5F05
:102DA0009F4FAF4FBF4328F30BC0918333822282E2
:102DB000EA0CFB1C0C1D1D1DE482F58206831783A3
:102DC00083E08083248135814681578157FF1AC073
:102DD000C901AA2797FDA095BA2F81709070A070A5
:102DE000B0705695479537952795822B932BA42B3A
:102DF000B52B84839583A683B783828193810196C3
:102E000093838283DF0101C0D201CD01CDB7DEB74C
:102E1000E2E10C94D21BA0E2B0E0E1E1F7E10C9416
:102E2000C21B69837A838B839C832D833E834F836C
:102E30005887E9E0EE2EF12CEC0EFD1ECE01019636
:102E4000B7010E94841A8E010F5E1F4FCE010596B6
:102E5000B8010E94841A8A8991E089278A8BC70168
:102E6000B801AE01475E5F4F0E94BF150E94AF19C7
:102E7000A096E6E00C94DE1BA0E2B0E0E2E4F7E10D
:102E80000C94C21B69837A838B839C832D833E833E
:102E90004F835887F9E0EF2EF12CEC0EFD1ECE018A
:102EA0000196B7010E94841A8E010F5E1F4FCE015A
:102EB0000596B8010E94841AC701B801AE01475EA9
:102EC0005F4F0E94BF150E94AF19A096E6E00C94D8
:102ED000DE1BA0E2B0E0EFE6F7E10C94B61B6983DD
:102EE0007A838B839C832D833E834F835887CE01C7
:102EF0000196BE01675F7F4F0E94841ACE0105963E
:102F0000BE016F5E7F4F0E94841A9985923088F0CF
:102F100089898230C8F0943019F4823051F404C0A9
:102F2000843029F4923081F486EC9CE0C6C0923063
:102F300049F420E09A858A89981321E02A87CE01F6
:102F40000996BBC0823049F420E09A858A8998139B
:102F500021E02A8BCE014196B0C02D843E844F845F
:102F600058886D887E888F88988CEE24FF2487018E
:102F7000AA24BB24650140E050E060E070E0E0E09E
:102F8000F0E0C10181709070892BE9F0E60CF71C2C
:102F9000081D191D9A01AB012A0D3B1D4C1D5D1D1D
:102FA00080E090E0A0E0B0E0E614F7040805190521
:102FB00020F481E090E0A0E0B0E0BA01A901480F60
:102FC000591F6A1F7B1FAA0CBB1CCC1CDD1C97FE63
:102FD00008C081E090E0A0E0B0E0A82AB92ACA2A9F
:102FE000DB2A3196E032F10549F0660C771C881C2B
:102FF000991C5694479437942794C3CFFA85EA894D
:103000002B893C898B859C85280F391F2E5F3F4F6C
:1030100017C0CA0181709070892B61F016950795D1
:10302000F794E79480E090E0A0E0B0E8E82AF92A7D
:103030000A2B1B2B76956795579547952F5F3F4F2A
:1030400077FDE7CF0CC0440F551F661F771F17FD94
:103050004160EE0CFF1C001F111F2150304040301A
:1030600090E0590790E0690790E4790760F32B8FAF
:103070003C8FDB01CA018F779070A070B0708034F4
:103080009105A105B10561F447FD0AC0E114F10401
:103090000105110529F0405C5F4F6F4F7F4F40786D
:1030A0001A8EFE1711F081E08A8F4D8F5E8F6F8F21
:1030B00078A383E0898FCE0149960E94AF19A0962C
:1030C000E2E10C94D21BA8E1B0E0E9E6F8E10C944F
:1030D000C21B69837A838B839C832D833E834F83BA
:1030E000588789E0E82EF12CEC0EFD1ECE010196EA
:1030F000B7010E94841A8E010F5E1F4FCE01059604
:10310000B8010E94841A8985823040F08989823012
:1031100028F0C701B8010E94FC1A01C08FEF689621
:10312000E6E00C94DE1BACE0B0E0E9E9F8E10C94D9
:10313000C61B69837A838B839C83CE010196BE0173
:103140006B5F7F4F0E94841A8D81823061F18230E3
:1031500050F1843021F48E81882351F12EC02F81CB
:10316000388537FD20C06E812F3131051CF0662374
:10317000F9F023C08EE190E0821B930B29853A85FC
:103180004B855C8504C056954795379527958A955C
:10319000D2F76623B1F050954095309521953F4F79
:1031A0004F4F5F4F0EC020E030E040E050E009C0DC
:1031B0002FEF3FEF4FEF5FE704C020E030E040E04B
:1031C00050E8B901CA012C96E2E00C94E21BA8E099
:1031D000B0E0EDEEF8E10C94BE1B7B018C016115B3
:1031E00071058105910519F482E0898360C083E04F
:1031F00089838EE1C82ED12CDC82CB82ED82FE82C7
:103200000F831887C801B7010E946019FC0131972C
:10321000F7FF3BC0222733272E1B3F0B57016801C6
:10322000022E04C0D694C794B794A7940A94D2F7F8
:1032300040E050E060E070E081E090E0A0E0B0E0CD
:1032400004C0880F991FAA1FBB1F2A95D2F70197A8
:10325000A109B1098E219F21A023B1230097A105C7
:10326000B10521F041E050E060E070E04A295B29BF
:103270006C297D294D835E836F8378878EE190E092
:103280008E1B9F0B9C838B8312C0309781F00E2E78
:1032900004C0EE0CFF1C001F111F0A94D2F7ED8230
:1032A000FE820F831887CE1ADF0ADC82CB821A8255
:1032B000CE0101960E94AF192896EAE00C94DA1B21
:1032C000EF92FF920F931F937B018C0180E0E81631
:1032D00080E0F80681E0080780E0180788F48FEFA7
:1032E000E816F1040105110531F028F088E090E0BE
:1032F000A0E0B0E017C080E090E0A0E0B0E012C035
:1033000080E0E81680E0F80680E0080781E0180712
:1033100028F088E190E0A0E0B0E004C080E190E017
:10332000A0E0B0E020E230E040E050E0281B390BA4
:103330004A0B5B0B04C016950795F794E7948A95A2
:10334000D2F7F701E253F34F8081281B310941097D
:103350005109C9011F910F91FF90EF900895DF92DD
:10336000EF92FF920F931F93FC01E480F58006819A
:103370001781D1808081823048F480E090E0A0E124
:10338000B0E0E82AF92A0A2B1B2BA5C0843009F4E7
:103390009FC0823021F4EE24FF24870105C0E11490
:1033A000F1040105110519F4E0E0F0E096C0628136
:1033B00073819FEF623879070CF05BC022E83FEF22
:1033C000261B370B2A3131052CF020E030E040E09D
:1033D00050E02AC0B801A701022E04C07695679577
:1033E000579547950A94D2F781E090E0A0E0B0E0CD
:1033F00004C0880F991FAA1FBB1F2A95D2F70197F7
:10340000A109B1098E219F21A023B1230097A10515
:10341000B10521F081E090E0A0E0B0E09A01AB01BD
:10342000282B392B4A2B5B2BDA01C9018F7790703F
:10343000A070B07080349105A105B10539F427FF63
:1034400009C0205C3F4F4F4F5F4F04C0215C3F4F8E
:103450004F4F5F4FE0E0F0E02030A0E03A07A0E0FF
:103460004A07A0E45A0710F0E1E0F0E079018A0190
:1034700027C06038710564F5FB01E158FF4FD801A2
:10348000C7018F779070A070B07080349105A1054E
:10349000B10539F4E7FE0DC080E490E0A0E0B0E0B3
:1034A00004C08FE390E0A0E0B0E0E80EF91E0A1F30
:1034B0001B1F17FF05C016950795F794E7943196E3
:1034C00087E016950795F794E7948A95D1F705C09C
:1034D000EE24FF248701EFEFF0E06E2F679566275B
:1034E0006795902F9F77D794DD24D7948E2F86955C
:1034F000492F462B582F5D29B701CA011F910F9103
:10350000FF90EF90DF900895FC01DB014081518135
:103510002281622F6F7770E0221F2227221F938162
:10352000892F880F822B282F30E0991F9927991F08
:1035300011969C93119721153105A9F54115510557
:103540006105710511F482E037C082E89FEF1396A0
:103550009C938E9312979A01AB0167E0220F331F61
:10356000441F551F6A95D1F783E08C930DC0220F3D
:10357000331F441F551F12968D919C9113970197ED
:1035800013969C938E931297203080E0380780E04A
:10359000480780E4580758F314962D933D934D93B4
:1035A0005C93179708952F3F310579F44115510524
:1035B0006105710519F484E08C93089564FF03C0DC
:1035C00081E08C9312C01C9210C02F57304013968C
:1035D0003C932E93129783E08C9387E0440F551F02
:1035E000661F771F8A95D1F7706414964D935D938B
:1035F0006D937C93179708951F93DC01FB019C91B9
:10360000923008F447C08081823008F443C094307F
:1036100051F411961C91843099F58181682F70E0E6
:10362000611B71093FC0843021F0923031F4823047
:10363000B9F18181882389F12DC011961C911197D0
:103640008230F1F081811817D9F412962D913C91B6
:103650001397828193818217930794F02817390773
:10366000BCF014968D919D910D90BC91A02D24815C
:10367000358146815781281739074A075B0718F4B7
:10368000112341F00AC082179307A407B50740F43D
:10369000112319F061E070E005C06FEF7FEF02C009
:1036A00060E070E0CB011F910895629FD001739F8D
:1036B000F001829FE00DF11D649FE00DF11D929FCE
:1036C000F00D839FF00D749FF00D659FF00D99270D
:1036D000729FB00DE11DF91F639FB00DE11DF91F31
:1036E000BD01CF0111240895991B79E004C0991FF1
:1036F000961708F0961B881F7A95C9F7809508954C
:10370000AA1BBB1B51E107C0AA1FBB1FA617B70707
:1037100010F0A61BB70B881F991F5A95A9F7809523
:103720009095BC01CD010895A1E21A2EAA1BBB1BE6
:10373000FD010DC0AA1FBB1FEE1FFF1FA217B3077D
:10374000E407F50720F0A21BB30BE40BF50B661F93
:10375000771F881F991F1A9469F760957095809557
:1037600090959B01AC01BD01CF0108952F923F922E
:103770004F925F926F927F928F929F92AF92BF9281
:10378000CF92DF92EF92FF920F931F93CF93DF932D
:10379000CDB7DEB7CA1BDB0B0FB6F894DEBF0FBE8A
:1037A000CDBF09942A88398848885F846E847D84D7
:1037B0008C849B84AA84B984C884DF80EE80FD80D9
:1037C0000C811B81AA81B981CE0FD11D0FB6F8944F
:0E37D000DEBF0FBECDBFED010895F894FFCF10
:1037DE007777772E6176726763632E636F6D00570E
:1037EE00656C636F6D6500CAB5CAB1CAB1D6D3D167
:1037FE00DDCABE0053442053697A653A004D42003B
:10380E00424D50204E756D3A0046696E64696E6782
:10381E002E00444D4156522D31323820426F617286
:10382E00640053686F7720424D502066726F6D2092
:10383E005344005374617274696E6720496E6974E3
:10384E002053440057616974696E672E2E2E00490D
:10385E006E6974204661696C75726500506C6561A5
:10386E00736520436865636B20534400496E697429
:10387E002053442053756363657373210000F8E091
:10388E00071F00E0FF0000FFFFFF071FF83F065B6A
:10389E004F666D7D077F6F777C395E7971E2E6E466
:1038AE00ECE8F8F0F2F2F0F8E8ECE4E6E2052010CD
:1038BE00121309500000000000000000000000007C
:1038CE00000000000000000000000000000F0808CB
:1038DE0008080808080000000000000000F80808AA
:1038EE00080808080800080808080808080F00005B
:1038FE0000000000000008080808080808F800008A
:10390E000000000000000808080808080808080859
:10391E0008080808080000000000000000FF000072
:10392E00000000000000000000183C7E7E7E3C1867
:10393E00000000000000FFFFFFE7C3818181C3E7A5
:10394E00FFFFFFFFFF00000000000000000000006E
:10395E000000000000000000000000000000000059
:10396E00000000000000001F050509091010384472
:10397E00444438000000001C2222221C08087F0844
:10398E000808080000000000000000000000000011
:10399E00000000000000031D11131D11111113175B
:1039AE0036706000000008085D2222226322222267
:1039BE005D080800000008080808080808FF080845
:1039CE00080808080800000103070F1F3F7F3F1F6C
:1039DE000F0703010000081C2A0808080808080839
:1039EE00082A1C080000002424242424242424242F
:1039FE00000024240000001F25454545251D050512
:103A0E0005050500000008080808080808FF000062
:103A1E0000000000000000000000000000FF080889
:103A2E0008080808080008080808080808F8080820
:103A3E00080808080800081C2A08080808080808CA
:103A4E00080808080000080808080808080F0808F1
:103A5E00080808080800000000000004027F0204A5
:103A6E00000000000000000000000010207F201069
:103A7E000000000000000000000000000000000038
:103A8E000000000000000000000000000000000028
:103A9E000000000000000000000000000000000018
:103AAE000000000000000000000000000000000008
:103ABE0000000000000000000000000000000000F8
:103ACE000000000000000000101010101010100078
:103ADE0000181800000012362448000000000000F4
:103AEE000000000000000000242424FE484848FE88
:103AFE004848480000000010385454503018141430
:103B0E00545438101000000044A4A8A8A8541A2A2F
:103B1E002A2A44000000000030484848506EA49401
:103B2E00888976000000606020C000000000000060
:103B3E000000000000000204080810101010101001
:103B4E0008080402000040201010080808080808A1
:103B5E001010204000000000001010D63838D6108B
:103B6E0010000000000000000010101010FE1010D9
:103B7E001010000000000000000000000000000017
:103B8E0000606020C000000000000000007F000008
:103B9E000000000000000000000000000000000017
:103BAE00006060000000000102020404080810100A
:103BBE00202040400000000018244242424242426F
:103BCE004224180000000000107010101010101089
:103BDE0010107C00000000003C4242420404081019
:103BEE0020427E00000000003C4242041804020203
:103BFE004244380000000000040C14242444447E87
:103C0E0004041E00000000007E4040405864020282
:103C1E0042443800000000001C24404058644242D8
:103C2E0042241800000000007E44440808101010C2
:103C3E0010101000000000003C42424224182442A2
:103C4E0042423C00000000001824424242261A0262
:103C5E0002243800000000000000001818000000C8
:103C6E000018180000000000000000001000000006
:103C7E000000101020000000020408102040201048
:103C8E000804020000000000000000FE000000FE1C
:103C9E00000000000000000040201008040204088C
:103CAE0010204000000000003C424262020408085E
:103CBE00001818000000000038445AAAAAAAAAB494
:103CCE0042443800000000001010182828243C44FC
:103CDE004242E70000000000F84444447844424267
:103CEE004244F800000000003E4242808080808006
:103CFE004244380000000000F84442424242424230
:103D0E004244F80000000000FC4248487848484011
:103D1E004242FC0000000000FC42484878484840FF
:103D2E004040E000000000003C44448080808E84CF
:103D3E004444380000000000E7424242427E4242C4
:103D4E004242E700000000007C101010101010100E
:103D5E0010107C00000000003E0808080808080843
:103D6E0008080888F0000000EE444850705048489B
:103D7E004444EE0000000000E0404040404040401F
:103D8E004042FE0000000000EE6C6C6C6C5454540B
:103D9E005454D60000000000C7626252524A4A4A8A
:103DAE004646E2000000000038448282828282820F
:103DBE008244380000000000FC424242427C4040F7
:103DCE004040E0000000000038448282828282B2CD
:103DDE00CA4C380600000000FC4242427C4848446F
:103DEE004442E300000000003E424240201804021C
:103DFE0042427C0000000000FE92101010101010C5
:103E0E001010380000000000E74242424242424297
:103E1E0042423C0000000000E7424244242428288D
:103E2E001810100000000000D692929292AAAA6C6E
:103E3E004444440000000000E742242418181824CB
:103E4E002442E70000000000EE4444282810101021
:103E5E0010103800000000007E8404080810202096
:103E6E004242FC0000001E10101010101010101016
:103E7E001010101E000000404020201010100808E6
:103E8E000404040202007808080808080808080854
:103E9E000808087800001C22000000000000000046
:103EAE000000000000000000000000000000000004
:103EBE0000000000FF006010000000000000000085
:103ECE000000000000000000000000003C421E2226
:103EDE0042423F0000000000C04040405864424251
:103EEE004264580000000000000000001C22404008
:103EFE0040221C0000000000060202021E22424266
:103F0E0042261B0000000000000000003C427E40E4
:103F1E0040423C00000000000F1110107E101010E7
:103F2E0010107C0000000000000000003E444438E9
:103F3E00403C42423C000000C04040405C62424275
:103F4E004242E700000000003030000070101010F8
:103F5E0010107C00000000000C0C00001C04040477
:103F6E000404044478000000C04040404E485068AD
:103F7E004844EE00000000007010101010101010D9
:103F8E0010107C000000000000000000FE494949AE
:103F9E004949ED000000000000000000DC624242D2
:103FAE004242E70000000000000000003C42424296
:103FBE0042423C000000000000000000D864424273
:103FCE0042447840E0000000000000001E22424201
:103FDE0042221E020700000000000000EE322020E8
:103FEE002020F80000000000000000003E42403C8F
:103FFE0002427C0000000000000010107C10101027
:10400E0010100C000000000000000000C6424242EA
:10401E0042463B000000000000000000E74224245E
:10402E00281010000000000000000000D79292AA95
:10403E00AA44440000000000000000006E2418187E
:10404E00182476000000000000000000E74224243F
:10405E0028181010E0000000000000007E44081038
:10406E0010227E0000000304040404040804040467
:10407E0004040403000008080808080808080808D3
:10408E000808080808006010101010100810101012
:10409E001010106000004C430000000000000000F3
:1040AE000000000000000000000000000000000002
:1040BE0000000000000008000FFC1080108020801F
:1040CE004FF88880088008800880FFFE00800080FE
:1040DE0000800080008007F004100410041007F028
:1040EE0004100410041007F004100810081010102B
:1040FE0020504020000000001FF010101010101073
:10410E0010101FF0101010101010101010101FF0C3
:10411E00101000000000001000107C10441047FE2C
:10412E0044107C104510449044907C1000100010F8
:10413E0000100050002008800C8008401020103025
:10414E002018400E9FE404200420042004200820A0
:10415E0010A0204040000C20F02010201128FDA4BB
:10416E00112232223A2054225422900410081010A8
:10417E0010601180160000083FFC20083FF8200850
:10418E003FF8010021083FFC21004110BFF801005B
:10419E000104FFFE00002204227E22447F442244BA
:1041AE003E7C22443E442244227CFFC400442444EC
:1041BE00228441148208000000000000000000006C
:1041CE0000000004FFFE00000000000000000000E0
:1041DE000000000000000000000000103FF800008A
:1041EE000000000000000000000000000004FFFEC0
:1041FE00000000000000000000087FFC000000002E
:10420E00000000103FF80000000000000000000455
:10421E00FFFE00000000000000047FFE4444444402
:10422E004444444444444444443C480450044004FC
:10423E007FFC40040000000000087FFC020002002A
:10424E00020002103FFC04100410041008100810A5
:10425E000814FFFE00000000040002000300010429
:10426E00FFFE0000000004400C2008101018100C77
:10427E00200C4004000000101FF810101010101039
:10428E00101010101FF01010101010101010101031
:10429E001FF01010000001000100010001000110CC
:1042AE0001F8010001000100010001000100010000
:1042BE000104FFFE00000004FFFE020002000200E7
:1042CE0002800240023002100200020002000200D0
:1042DE00020002000200080008100FF81100110081
:1042EE00210041000104FFFE010001000100010058
:1042FE000100010001000240074038402040207EAE
:10430E0020823F242420242024202450245044881A
:10431E004488850602040110111011101110111499
:10432E00FFFE111011101110111011F011101000CC
:10433E0010081FFC00000800080413FE10042404DB
:10434E00FC04080411FC2104FD00410001001D02C3
:10435E00E10240FE00000200020002107FF842104F
:10436E0042107FF0421042107FF042100200020411
:10437E00020401FC000000003FF00010002000408D
:10438E0001800104FFFE0100010001000100010097
:10439E000100050002000000000000000000000106
:1043AE0002020303030304040404040404040505C5
:1043BE00050505050505050505050505050506069D
:1043CE00060606060606060606060606060606067F
:1043DE00060606060606060606060606060607076D
:1043EE00070707070707070707070707070707074F
:1043FE00070707070707070707070707070707073F
:10440E00070707070707070707070707070707072E
:10441E00070707070707070707070707070708081C
:10442E0008080808080808080808080808080808FE
:10443E0008080808080808080808080808080808EE
:10444E0008080808080808080808080808080808DE
:10445E0008080808080808080808080808080808CE
:10446E0008080808080808080808080808080808BE
:10447E0008080808080808080808080808080808AE
:10448E00080808080808080808080808080808089E
:0E449E000808080808080808080808080808A0
:00000001FF
