:040000000C94460016
:14008C00CFEFD0E1CDBFDEBFCE51D0400AEA08830024E0E036
:1400A000F1E011E0E230F10711F00192FBCF0083ECE8F0E0FB
:1400B400A0E0B1E010E000E00BBFEC38F10721F0C89531963C
:1400C8000D92F9CF0E94E600FFCF0000000000000000000067
:1400DC00000008950000000000000000000000000000000073
:1400F0000000000000000000000000000000000000000000FC
:140104000000000000000895E9DFE8DFE7CFFCDFFBDFFADF77
:14011800F9CFFBDFFACF4A93402F01C0FADF242E3324415048
:14012C002220D1F749910895F2DFF1DFF0DFEFDFEEDFEDDF67
:14014000ECDFEBDFEADFE9CF4A935A93A80101C0F1DF1A0176
:14015400415050402220D1F73320C1F75991499108954A9323
:14016800402F03C008EE13E0EBDF242E332441502220C1F76A
:14017C00499108958FEF88BB87BB08950E940A01B801C0989A
:14019000C198442714C0CB01807090785C012FE030E08C01F6
:1401A4000E9418010030010711F0C29A01C0C298C19A660F0C
:1401B800771FC1984395403150F3A4DFC09AC1980C941101D0
:1401CC00D9DF20C022243324309201012092000111C0009111
:1401E000000110910101D0DF01E010E0ADDF80910001909128
:1401F4000101019690930101809300018091000190910101F0
:140208008C3FEFE09E0738F3DFCF08957A936A935A934A9359
:14021C00BA92AA920895A990B99049915991699179910895C2
:0E023000222321F0169507952A95FACF0895FE
:00000001FF
