:040000000C94BA01A1
:14008C009E158F229F22286E756C6C2070747220706173730B
:1400A00065642900696E7465676572206F6E6C79207072691F
:1400B4006E74662C2073656C6563742050726F6A6563742D00
:1400C8003E4F7074696F6E732D3E5461726765742C22465044
:1400DC00207072696E74662220746F207072696E7420666CF9
:1400F0006F6174696E6720706F696E74206E756D6265727314
:140104003E0000202020202020202020303030303020202039
:14011800202020202020202020202020202020904040404063
:14012C0040404040404040404040400C0C0C0C0C0C0C0C0C93
:140140000C40404040404040090909090909010101010101A3
:14015400010101010101010101010101010140404040404009
:140168000A0A0A0A0A0A02020202020202020202020202022B
:14017C00020202020202404040402000000000000000000043
:1401900000000000000000000000000000000000000000005B
:1401A400000000000000000000000000000000000000000047
:1401B800000000000000000000000000000000000000000033
:1401CC0000000000000000000000000000000000000000001F
:1401E00000000000000000000000000000000000000000000B
:1401F4000000000000000000000000000000000000000000F7
:140208000000002E202020202020202020202E2E2020202098
:14021C002020202020000200000000010000C8000000B6C1EC
:14023000D0B4CAFDBEDDB3C9B9A6210A00B6C1D0B4CAFDBE4E
:14024400DDCAA7B0DC210A000A00446174613D2563200D002B
:14025800444D4156522D4D313238BFAACABCB6C1D0B44D4D7F
:14026C00432F5344BFA8A3ACC7EBB2E9BFB4BDE1B9FB210A82
:1402800000D2AAD0B4C8EBB5C4D7D6B7FBCAC7A3BA20256349
:140294000A00256300C7EBCAE4C8EBD2AAD0B4C8EB4D4D4321
:1402A8002F5344BFA8B5C4D7D6B7FBCAFDBEDD210A00544517
:1402BC0053543030303954585400BFA8C8DDC1BF3D256C6400
:1402D0000D0A00B3F5CABCBBAF4D4D432F5344BFA8B3C9B92C
:1402E400A6210D0A00C7EBBCECB2E95344BFA8CAC7B7F1B448
:1402F800E6D4DABBF2D5DFB8B4CEBBCFB5CDB3210D0A004D7F
:14030C004D432F5344BFA8B3F5CABCBBAFCAA7B0DC210D0A53
:1403200000B5C8B4FDB3F5CABCBBAF4D4D432F5344BFA8A158
:14033400ADA1AD0D0A00444D4156522D4D31323820B3F5CA82
:14034800BCBBAFB3C9B9A6210D0A00444D4156522D31323826
:14035C00B6C1D0B44D4D432F5344BFA8CAFDBEDDCAB5D1E9ED
:030370000D0A0073
:14037400CFEFD0E1CDBFDEBFCE51D0400AEA08830024ECE639
:14038800F2E018E0E83AF10711F00192FBCF0083E7E0F2E003
:14039C00A0E0B1E013E000E00BBFE337F10721F0C895319658
:1403B0000D92F9CF0E94830FFFCF0E94E419249787E892E095
:1403C4009B838A8380E092E0998388830C811D812E813F8167
:1403D8000E948412289608950E94E419249787E892E09B8325
:1403EC008A8380E092E0998388830C811D812E813F810E94BB
:140400000813289608950E94F31AE884F984580169014427AC
:14041400552708C0F501D60101905F010D926D014F5F5F4F69
:140428004E155F05A8F30C94DD1A0E94F31AE884F9845801D6
:14043C006901442755270AC0F501D601019011905F010D9293
:140450001D926D014F5F5F4F4E155F0598F30C94DD1A0E9494
:14046400F31A488568017901AA240FC0EA2DFF27EE0DFF1DD6
:140478002080EA2DFF27EC0DFD1D3080321411F0002704C09E
:14048C00A394A41678F301E00C94DD1A0E94FC1A580144270C
:1404A000552706C02224F50121925F014F5F5F4F42175307A8
:1404B400B8F30C94011B4A935A9347E852E080E092E0FA01D5
:1404C8009487838780E2858786E090E09787868782E0808B1F
:1404DC0080E092E0928B818B22243324348A238A81EF90E029
:1404F000978B868B7C968DEF808380E08183828383830DEFC9
:1405040010E020E030E06ADF5991499108954A935A9347E840
:1405180052E00DEF10E020E030E04BDFFA012384348430925B
:14052C0086022092850225842092840226843784309283026D
:1405400020928202208820928102218832883092800220923B
:140554007F022388348830927E0220927D0226883788309209
:140568007C0220927B02248C358C468C578C309278022092BE
:14057C00770250927A02409279025991499108954A935A931C
:1405900047E852E00DEF10E020E030E00EDFFA0123843484B3
:1405A4003092860220928502258420928402268437843092B8
:1405B8008302209282022088209281022188328830928002F0
:1405CC0020927F022388348830927E0220927D0226883788A1
:1405E00030927C0220927B02248C358C468C578C3092780236
:1405F4002092770250927A024092790224A035A046A057A0A7
:140608003092740220927302509276024092750224A435A43B
:14061C0046A457A43092700220926F025092720240927102F3
:1406300020A831A830926E0220926D02599149910895409091
:14064400790250907A022090770230907802009182021091B2
:14065800830222273327020D131D241D351D0895249720908C
:14066C006C02222059F420907B0230907C0244245524288287
:1406800039824A825B820CC040907502509076022090730272
:1406940030907402288239824A825B82288039804A805B8008
:1406A800009181021127222733275A924A923A922A920E945D
:1406BC009D1A1801290160908202709083028824992420911D
:1406D000790230917A020091770210917802060D171D281DAD
:1406E400391D020D131D241D351D24960895BADF18012901A7
:1406F80020917F023091800200E210E00E948D1A2091850226
:14070C00309186020E94091A38018824992481019201060D01
:14072000171D281D391D089520917F023091800200E210E012
:140734000E948D1A20918502309186020C94091A2091710200
:140748003091720200916F021091700208954A935A93A80143
:14075C00CADF180129019A01225030400091840211270E942F
:140770008D1A38018824992481019201060D171D281D391D35
:1407840059914991089520907B0230907C02222011F43320FB
:1407980021F0222420926C0203C081E080936C0208950E94F2
:1407AC00061BB80147E852E0209082023090830244245524A4
:1407C0002091790230917A020091770210917802020D131D58
:1407D400241D351D1B01232C332444245524020D131D241D5B
:1407E800351DE7DDFB01F070EE0FFF1FE40FF51F0081118156
:1407FC000C940B1B0E94E4190E94101B87E892E05C0187E012
:1408100090E00E811F81288539858A930E948F1B209082022D
:1408240030908302442455248090790290907A02609077020A
:1408380070907802620C731C841C951C600E711E821E931E96
:14084C0083019401B4DD4FE750E060E070E00E811F8128851C
:140860003985042315232623372382E090E08A930E947C1B9C
:14087400F801EA0DFB1D00811181228133810E94171B249670
:1408880008950E94101B5901B801249747E852E0209082028F
:14089C0030908302442455248090790290907A026090770292
:1408B00070907802620C731C841C951C1B01232C3324442442
:1408C4005524620C731C841C951C688279828A829B820881C2
:1408D80019812A813B816DDDFB01F070EE0FFF1FE40FF51F43
:1408EC00B182A082088119812A813B8173DD24960C94171B3D
:140900000E94E4190E94101B249787E892E05C0187E090E0A7
:140914000A851B852C853D858A930E948F1B209082023090D0
:140928008302442455248090790290907A02609077027090C5
:14093C007802620C731C841C951C600E711E821E931E6882A7
:1409500079828A829B82088119812A813B812DDD4FE750E075
:1409640060E070E00A851B852C853D8504231523262337234B
:1409780082E090E08A930E947C1BF801EA0DFB1D2E843F84C6
:14098C00488859882082318242825382088119812A813B812E
:1409A0001FDD24960E94171B249608950E94101B5901B80182
:1409B400249747E852E020907B0230907C0240908202509074
:1409C8008302420C531C1B01232C3324420C531C12014424DF
:1409DC005524288239824A825B82088119812A813B81E5DC35
:1409F000FB01F070EE0FFF1FE40FF51FB182A08208811981FD
:140A04002A813B81EBDC24960C94171B0E94E4190E94101BB8
:140A1800249787E892E05C0187E090E00A851B852C853D8558
:140A2C008A930E948F1B20907B0230907C02409082025090AE
:140A40008302420C531C120144245524200E311E421E531E1E
:140A5400288239824A825B82088119812A813B81AADC4FE73A
:140A680050E060E070E00A851B852C853D8504231523262370
:140A7C00372382E090E08A930E947C1BF801EA0DFB1D2E842A
:140A90003F84488859882082318242825382088119812A8122
:140AA4003B819CDC24960E94171B249608950E94F11A44270D
:140AB800552780E290E05C01D3DD68016627772728C08601CC
:140ACC00060F171F2227332772DCEE24FF2418C000E210E0FB
:140AE00097010E948D1A87E892E0F801E80FF91F2080332441
:140AF400222019F0822D853E11F48A0110C04F5F5F4FC701AD
:140B080001967C01C7018031E0E09E0718F36F5F7F4F6A15C1
:140B1C007B05A8F28A010C94E61A0E94F11A68014427552783
:140B30001091840200E10103500186010CDE6801662777274F
:140B440028C08601060F171F2227332734DCEE24FF2418C023
:140B580000E210E097010E948D1A87E892E0F801E80FF91FED
:140B6C0020803324222019F0822D853E11F48A0110C04F5FB3
:140B80005F4FC70101967C01C7018031E0E09E0718F36F5F20
:140B94007F4F6A157B05A8F28A010C94E61A0E94E4190E947A
:140BA800F11A219760E270E05BDD58014427552743C08501E3
:140BBC00040F151F22273327FADBCC24DD2432C08BE088830D
:140BD00000E210E096010E948D1A980187E892E0280F391F56
:140BE4000B851C853CDC0023F1F000E210E096010E948D1AFE
:140BF800180187E892E0280E391E4D845E8400E210E05A92F1
:140C0C004A923A922A920E949B1B00E110E09A010E948D1A63
:140C20007801EC0CFD1C0E2D10C0C60101966C01C6018031E8
:140C3400E0E09E0708F4C8CF4F5F5F4F4617570708F4B9CF19
:140C4800002721960E94E61A249608950E94E4190E94F11A75
:140C5C00219760E270E002DD58014427552743C08501040F7F
:140C7000151F22273327A1DBCC24DD2432C08BE0888300E2E2
:140C840010E096010E948D1A980187E892E0280F391F0B85F3
:140C98001C85E3DB0023F1F000E210E096010E948D1A18011A
:140CAC0087E892E0280E391E4D845E840EE110E05A924A926C
:140CC0003A922A920E949B1B00E110E09A010E948D1A780112
:140CD400EC0CFD1C0E2D10C0C60101966C01C6018031E0E0ED
:140CE8009E0708F4C8CF4F5F5F4F4617570708F4B9CF0027FE
:140CFC0021960E94E61A249608950E94FC1A20917B0230918D
:140D10007C0200E011E00E948D1A58014427552709C08A01A3
:140D240042DD0030010711F48A0107C04F5F5F4F4A155B05F2
:140D3800A0F3002711270C94011B0E94061B28974090750230
:140D4C0050907602209073023090740240E850E060E070E0F8
:140D60005A924A923A922A928A019B010E949D1A0C831D8380
:140D74002E833F8380E0888389838A838B8320C00881198163
:140D88002A813B8139DD8894002310072007300729F4088180
:140D9C0019812A813B8121C041E050E060E070E0288039801F
:140DB0004A805B80240E351E461E571E288239824A825B821E
:140DC4002C803D804E805F80688079808A809B806214730412
:140DD8008404950498F200E010E020E030E028960C940B1BF8
:140DEC000E94FC1A5901A801269738DC0A831B832C833D83CD
:140E00001A0136942794369427943694279436942794442447
:140E140055240A811B812C813D81020D131D241D351DC9DA4A
:140E280080E290E099838883CA018F70907000E210E0AF92E0
:140E3C00BF929C010E948D1A18013F912F9187E892E0280EAB
:140E5000391E8101D8DA26960C94011B0E94FC1A5901A801D0
:140E6400269700DC1A0136942794369427943694279436946D
:140E780027944424552438014901620C731C841C951C6A820D
:140E8C007B828C829D820A811B812C813D818FDA80E290E05B
:140EA000998388839A012F70307000E210E00E948D1A980189
:140EB40087E892E0280F391F8501A3DA0A811B812C813D8125
:140EC8008BDA26960C94011B0E94FC1A5901A8012697C6DB20
:140EDC001A013694279436942794369427943694279444246B
:140EF000552438014901620C731C841C951C6A827B828C82AD
:140F04009D820A811B812C813D8155DA80E290E09983888300
:140F18009A012F70307000E210E00E948D1A980187E892E056
:140F2C00280F391F850169DA0A811B812C813D8151DA2696E0
:140F40000C94011B0E941E1BA90168012697AC84BD8486013E
:140F540000DC0A831B832C833D830A811B812C813D8129DA7E
:140F680080E290E0998388839A012F70307000E210E00E942E
:140F7C008D1A980187E892E0280F391F85013DDA0A811B81ED
:140F90002C813D8125DA26960C94251B0E94FC1A5901A8018C
:140FA400269760DB1A013694279436942794369427943694CD
:140FB80027944424552438014901620C731C841C951C6A82CC
:140FCC007B828C829D820A811B812C813D81EFD980E290E0BB
:140FE000998388839A012F70307000E210E00E948D1A980148
:140FF40087E892E0280F391F850103DA0A811B812C813D8184
:14100800EBD926960C94011B0E941E1BC22EA801AE8000E214
:14101C001C2D010310019A012C5B374000E012E00E948D1AAE
:141030002801420C531C2A2C3324420C531C520182010C94E6
:14104400251B0E94F51AE22EC02EAE8000E21E2D0103100139
:141058002C2D332700E018E00E948D1A2801420C531C22E0C8
:14106C0030E00A2D11270E94ED19400E511E520182010C9416
:14108000D61A0E94F31A7901A801A6973CDE1D8F0C8F5801A3
:1410940065012FEF3FEFF7DB2FEF3FEF850184DC9E012E5F66
:1410A8003F4F8A017ADD402F55279E012E5F3F4F8A0198DE1E
:1410BC0082E0888327E00AED17E0A4DFA801842F8F7F8AA3A4
:1410D0001A01232C33242BA28AE0888324E105E1B2DFA801E4
:1410E400842F8F7F8CA31A01232C33242DA28BE090E0998381
:1410F80088839E012E5F3F4F870181D982E090E09983888344
:14110C009E012E5E3F4F8E010E5D1F4F76D982E090E0998371
:1411200088839E01205F3F4F8E010C5D1F4F6BD980E28D87E4
:14113400AC8CBD8CDD8ECC8E8501F3DC6801CE010296998320
:14114800888396018501FADEA6960C94DD1A0E94F51AA22E3F
:14115C006801EC9784E091E0FE01B6960BE010E0FA93EA938E
:141170009A938A930E949B1B8FE091E0FE01F1960BE010E088
:14118400FA93EA939A938A930E949B1B82E0888325E00CED40
:1411980017E03ADF78018E2D8F7F8AA31701232C33242BA239
:1411AC008AE0888324E105E148DF78018E2D8F7F8CA317011F
:1411C000232C33242DA220E230E08E010E5F1F4F63D98BE083
:1411D40090E0998388839E012E5F3F4F860111D9AD8682E0B0
:1411E80090E0998388839E012E5E3F4F8E010E5D1F4F05D95D
:1411FC0082E090E0998388839E01205F3F4F8E010C5D1F4FD4
:14121000FAD879DD5801BD8EAC8E2FEF3FEF35DB2FEF3FEF1C
:141224008501C2DB44DC68019E012E5F3F4F14DE8D8580319B
:1412380051F58BE090E0998388839E012E5F3F4F8E010A5DAA
:14124C001F4FDBD8CE0102969983888322273327850172DE66
:141260008BE090E0998388839E012E5F3F4F8E010F5C1F4F56
:14127400C8D8222433243D8E2C8ECE0102969983888321E015
:1412880030E085015BDEEC960C94D61A0E94F71A5801AA9724
:14129C0082E0888325E00CED17E0B4DE68018C2D8F7F8EA3E9
:1412B0001601232C33242FA28AE0888324E105E1C2DE680133
:1412C4008C2D8F7F88A71601232C332429A620E230E08E01F3
:1412D8000C5F1F4FDDD88BE090E0998388839E012C5F3F4FBA
:1412EC0085018BD880E28F8782E090E0998388839E01245E73
:141300003F4F8E010A5D1F4F7ED882E090E0998388839E01F9
:14131400265E3F4F8E01085D1F4F73D810DD0AA31BA32CA3DF
:141328003DA32AA03BA04CA05DA01201398E288E2AA03BA00E
:14133C003F8E2E8E8FEF888389838A838B830AA11BA12CA130
:141350003DA1D6DA8FEF888389838A838B830AA11BA12CA117
:141364003DA154DBA4DB58019E012C5F3F4FAEDDAA960C946D
:14137800D11A0E94F71A5801A0979E0185010DDCA02EBB2478
:14138C0085EE8883CA8CDB8C22273327860177DA22273327F4
:1413A000860104DB9E01850159DDA0960C94D11AAA92BA922F
:1413B4005801A6979E012C5F3F4F850149DCA02EBB2485EE0C
:1413C8008C8380E190E0A0E0B0E02E8C3F8C44245524280E85
:1413DC00391E4A1E5B1E088D198D222733272A920E947C1BF2
:1413F0000AA31BA32CA33DA380E0888389838A838B830AA192
:141404001BA12CA13DA17ADA80E0888389838A838B830AA1DC
:141418001BA12CA13DA1F8DA9E012C5F3F4F850153DDA696DD
:14142C00B990A99008950E941E1B20906C02222029F4A09005
:141440007B02B0907C0204C0A0907302B0907402209082020A
:1414540030908302442455248090790290907A0260907702CE
:1414680070907802620C731C841C951C63014427552712C08B
:14147C008601040F151F222733270E94DD0186010A0D1B1D95
:14149000040F151F222733270E94F0014F5F5F4F4A155B05B0
:1414A40058F30C94251B0E94E4190E94F11A5901EE97FE01DF
:1414B800EC5AFF4FC080D180DDAACCAA20908402332439AE8A
:1414CC0028AE2091850230918602022D11270E948D1A1DAF39
:1414E0000CAF9E0185015DDB202E33243FAA2EAADE01A05BA0
:1414F400BF4F2D903D904D905C9028A639A64AA65BA62CAC0D
:141508003DAC44245524DE01A45BBF4F0D911D912D913C9142
:14151C005A924A923A922A920E94231A1BAF0AAFEA8CFB8C0C
:1415300080E088A389A38AA38BA32BC0870135D958012FEF9D
:141544003FEF8701A0D92FEF3FEF87012DDAC5018F3FEFEF17
:141558009E0719F4D4DB680101C065019601870190D996016F
:14156C0087011EDA760141E050E060E070E028A039A04AA008
:141580005BA0240E351E461E571E28A239A24AA25BA22AAC9A
:141594003BAC4424552468A079A08AA09BA062147304840480
:1415A800950408F4C7CF2FEF3FEF87016AD92FEF3FEF870119
:1415BC00F7D92CAC3DAC44245524DE01A45BBF4F0D911D9171
:1415D0002D913C915A924A923A922A920E94251A89E090E072
:1415E4008A930E948F1B08A319A32AA33BA32CAC3DAC44244F
:1415F8005524FE01E45BFF4F00811181228133815A924A92A8
:14160C003A922A920E94251A4FEF51E060E070E0180129011F
:1416200024223522462257225101870194D828A039A04AA067
:141634005BA038014901620C731C841C951C6CA27DA28EA279
:141648009FA280E088A389A38AA38BA3D5C0DE01A85BBF4FB6
:14165C000C90002039F00CA11DA12EA13FA10E94DD011EC01D
:141670002CA03DA04EA05FA02CA63DA64EA65FA641E050E0D1
:1416840060E070E02CA43DA44EA45FA4240E351E461E571EBE
:141698002CA23DA24EA25FA20CA51DA52EA53FA50E94DD01F6
:1416AC00AA24BB246DC0FE01E85BFF4F0080002061F087E860
:1416C00092E0F501E80FF91FACA9BDA92D90BDABACAB2082C6
:1416D4000BC087E892E0F501E80FF91F2080ECA9FDA92192C3
:1416E800FDABECAB41E050E060E070E0DE01A05BBF4F2D9029
:1416FC003D904D905C90241A350A460A570A28AA39AA4AAA6D
:141710005BAA28A839A84AA85BA8DE01A05BBF4F2D923D92A4
:141724004D925C9228A839A84AA85BA8889422203204420464
:14173800520429F5DE01A85BBF4F0C90002009F469C00CA1AA
:14174C001DA12EA13FA10E94F00128A439A44AA45BA4DE0114
:14176000A45BBF4F6D907D908D909C90620C731C841C951CC7
:141774006C8E7D8E8E8E9F8E9E010EA91FA96CDB4BC0C501DD
:1417880001965C01C5018030A2E09A0708F48DCFDE01A85B86
:14179C00BF4F0C900020F1F02CA03DA04EA05FA028AA39AA43
:1417B0004AAA5BAA41E050E060E070E028A839A84AA85BA8A5
:1417C400240E351E461E571E2CA23DA24EA25FA208A919A9A2
:1417D8002AA93BA90E94F00141E050E060E070E028A039A031
:1417EC004AA05BA0240E351E461E571E28A239A24AA25BA218
:1418000028AC39AC4424552468A079A08AA09BA062147304C7
:141814008404950408F41DCFEE960E94E61A249608950E9498
:14182800E4190E94F11A6901EF972797FE01E45AFF4FA080A9
:14183C00B180FE01EE5BFF4FB182A082209084023324FE01F0
:14185000EC5BFF4F318220822091850230918602022D1127B2
:141864000E948D1A58019E01285F3F4F8601F0D9C02EDD24DB
:14187800DE01A85ABF4F2D903D904D905C902AAA3BAA4CAA6B
:14188C005DAA150144245524DE01AC5ABF4F0D911D912D914D
:1418A0003C915A924A923A922A920E94231A78012AA03BA01A
:1418B400442455246C8C7D8C88249924430166247724620CFE
:1418C800731C841C951C6C827D828E829F8280E08EA38FA34B
:1418DC0088A789A76FC00C811D812E813F810E9400040EAB71
:1418F0001FAB28AF39AF8FEF888389838A838FE08B830C81AF
:141904001D812E813F810E9480048FEF888389838A838FE08B
:141918008B830C811D812E813F8176D84FEF5FEF6FEF7FE07C
:14192C002EA83FA848AC59AC241635064606570631F401DAD3
:141940000EA71FA728AB39AB08C02EA83FA848AC59AC2EA60F
:141954003FA648AA59AA2EA43FA448A859A8288239824A82CE
:141968005B820C811D812E813F810E9480042EA43FA448A829
:14197C0059A8288239824A825B820C811D812E813F8140D896
:141990002EA43FA448A859A82C823D824E825F8241E050E02E
:1419A40060E070E02EA03FA048A459A4240E351E461E571EAB
:1419B8002EA23FA248A659A61701442455246EA07FA088A42B
:1419CC0099A4621473048404950408F484CF8FEF88838983D8
:1419E0008A838FE08B830C811D812E813F810E9480048FEF2B
:1419F400888389838A838FE08B830C811D812E813F8104D8C8
:141A0800150144245524DE01AC5ABF4F0D911D912D913C9109
:141A1C005A924A923A922A920E94251A89E090E08A930E94ED
:141A30008F1B0EA31FA328A739A7150144245524FE01EC5A9A
:141A4400FF4F00811181228133815A924A923A922A920E94E4
:141A5800251A4FEF51E060E070E018012901242235224622F4
:141A6C00572251010C811D810E94AB032EA03FA048A459A48A
:141A800038014901620C731C841C951C6AA67BA68CA69DA6DB
:141A940080E08EA38FA388A789A7EAC0DE01A05BBF4F0C90EE
:141AA800002039F00AA51BA52CA53DA50E94DD011EC02AA493
:141ABC003BA44CA45DA42AAE3BAE4CAE5DAE41E050E060E0EF
:141AD00070E02AAC3BAC4CAC5DAC240E351E461E571E2AA6C6
:141AE4003BA64CA65DA60AAD1BAD2CAD3DAD0E94DD01AA2488
:141AF800BB247CC0FE01E05BFF4F00800020B1F087E892E015
:141B0C00F501E80FF91FEF93FF93FE01EE5BFF4FA081B181C3
:141B2000FF91EF912D90DE01AE5BBF4FAD93BC93208211C0EC
:141B340087E892E0F501E80FF91F2080DE01AE5BBF4FED91A3
:141B4800FC912192DE01AE5BBF4FED93FC9341E050E060E0B3
:141B5C0070E0DE01A85ABF4F2D903D904D905C90241A350A66
:141B7000460A570ADE01DE962D923D924D925C92DE01DE96AF
:141B84002D903D904D905C90DE01A85ABF4F2D923D924D929E
:141B98005C92DE01DE962D903D904D905C9088942220320411
:141BAC0042045204F1F4DE01A05BBF4F0C90002009F46BC0D8
:141BC0000AA51BA52CA53DA50E94F0012AA83BA8FE01EC5A62
:141BD400FF4F40805180420C531C5DA24CA29E01285F3F4FC0
:141BE800860172D954C0C50101965C01C5018030A2E09A07B0
:141BFC0008F47ECFDE01A05BBF4F0C90002021F12AA43BA429
:141C10004CA45DA4DE01DE962D923D924D925C9241E050E0D0
:141C240060E070E0DE01DE962D903D904D905C90240E351EF1
:141C3800461E571E2AA63BA64CA65DA6FE01FE960081118173
:141C4C00228133810E94F00141E050E060E070E02EA03FA00C
:141C600048A459A4240E351E461E571E2EA23FA248A659A68B
:141C7400DE01AC5BBF4F2D903C90442455246EA07FA088A4A5
:141C880099A4621473048404950408F405CFEF9627960E9449
:141C9C00E61A249608950E941E1B4427552709C087E892E071
:141CB000FA01E80FF91F222420824F5F5F4F4030E2E05E073B
:141CC40098F30E94940358010E94340368014427552709C0FD
:141CD8008601040F151F222733270E94F0014F5F5F4F4A1539
:141CEC005B05A0F3209082023090830244245524809079020C
:141D000090907A026090770270907802620C731C841C951C02
:141D14005301C0907B02D0907C024427552709C08501040F73
:141D2800151F222733270E94F0014F5F5F4F4C155D05A0F38B
:141D3C0028EF3FEF002711270E9445042FEF3FEF01E010E0E7
:141D50000E9445046EDB0C94251B0E942C1B60E270E00E944E
:141D6400340358012224332430920101209200013092030101
:141D7800209202014427552755C08501040F151F2227332736
:141D8C000E94DD01CC24DD2443C000E210E096010E948D1A1D
:141DA00087E892E0F801E80FF91F20803324222009F431C01F
:141DB400822D853E71F100E210E096010E948D1AF8013B96CB
:141DC80087E892E0E80FF91F8081803149F4809100019091F5
:141DDC0001010196909301018093000100E210E096010E9416
:141DF0008D1AF8013B9687E892E0E80FF91F8081803249F48E
:141E0400809102019091030101969093030180930201C601F6
:141E180001966C01C6018031E0E09E0708F4B7CF4F5F5F4FF7
:141E2C004617570708F4A7CF0C94351B000000000000000085
:141E40000000000008950000000000000000000000000000F1
:141E540000000000000000000000000000000000000000007A
:141E680000000000000000000895E9DFE8DFE7CFFCDFFBDFCF
:141E7C00FADFF9CFFBDFFACF4A93402F01C0FADF242E33247F
:141E900041502220D1F749910895F2DFF1DFF0DFEFDFEEDF21
:141EA400EDDFECDFEBDFEADFE9CF4A935A93A80101C0F1DF44
:141EB8001A01415050402220D1F73320C1F759914991089564
:141ECC004A93402F03C008EE13E0EBDF242E332441502220C4
:141EE000C1F749910895969804EF11E0E0DF969A969804EF9D
:141EF40011E0DBDF969A969804EF11E0D6DF969A08952B97A9
:141F080044270E94BE150CE412E00E94792203E312E00E944C
:141F1C0079220AE112E00E9479228FEF82BB81BB1AC00E9489
:141F300027110093200180912101909122010196909322015D
:141F4400809321018233E0E09E0749F404E012E00E947922EA
:141F580002EE11E00E947922FFCF20902001222011F70CEC76
:141F6C0011E00E9479220E94441410931D0100931C01309305
:141F80001F0120931E012883398398010FEB11E00E94792233
:141F94000E9489020E94510E03EB11E00E94AB0844275527F0
:141FA80009C087E896E0FA01E80FF91F81E480834F5F5F4FA9
:141FBC0080E092E08417950790F787E896E09987888780E00D
:141FD0008C838E838F8382E08D8380E0888389838A838B83C7
:141FE40023EB31E001E00E94550A4427552709C087E896E053
:141FF800FA01E80FF91F82E480834F5F5F4F80E092E0841799
:14200C00950790F787E896E09987888780E08C838E838F83F7
:1420200082E08D8380E088838A838B8382E0898323EB31E027
:1420340001E00E94550A4427552709C087E896E0FA01E80F2F
:14204800F91F83E480834F5F5F4F80E092E08417950790F716
:14205C0087E896E09987888780E08C838E838F8382E08D8358
:1420700080E088838A838B8384E0898323EB31E001E00E94C4
:14208400550A4427552709C087E896E0FA01E80FF91F84E4E2
:1420980080834F5F5F4F80E092E08417950790F787E896E060
:1420AC009987888780E08C838E838F8382E08D8380E0888382
:1420C0008A838B8386E0898323EB31E001E00E94550A442713
:1420D400552709C087E896E0FA01E80FF91F85E480834F5FAA
:1420E8005F4F80E092E08417950790F787E896E09987888792
:1420FC0080E08C838E838F8382E08D8380E088838A838B8346
:1421100088E0898323EB31E001E00E94550AE3DEFFCF02E9CC
:1421240011E00E9479229E01265F3F4F0FE811E00E94A22279
:142138002A8533270AE711E00E9479222A842092870601E598
:14214C0011E00E94792241E050E00AC087E896E0FA01E80F5F
:14216000F91F2090870620824F5F5F4F4030E2E05E0790F3FE
:1421740087E896E09B838A8320901A0130901B01398228823B
:14218800209125013091260100912301109124010E9408134C
:14219C0087E894E09B838A8320901A0130901B013982288215
:1421B000209125013091260100912301109124010E948412A9
:1421C400442755270DC087E894E0FA01E80FF91F208133276B
:1421D80007E411E00E9479224F5F5F4F20901A0130901B01D7
:1421EC004215530560F305E411E00E9479224427552717C008
:1422000087E894E0FA01E80FF91F208087E896E0FA01E80F66
:14221400F91F3080321431F006E311E00E94792244270AC03B
:1422280041E04F5F5F4F20901A0130901B014215530510F3CC
:14223C00413021F407E211E00E9479226CCF2B9608954A937B
:142250005A930E946F1580916400886080936400809165001D
:14226400886080936500442755270FEF0E9483154F5F5F4F8B
:1422780089E090E084179507B4F703D05991499108950E94C1
:14228C002C1B239761E0442780916500877F8093650085E92F
:1422A0008A8380E090E0A0E0B0E0A883B9839C0100E42FD254
:1422B4005FD0013009F44DC004E057C0809165008860809340
:1422C80065000FEF0E94831580916500877F8093650044230A
:1422DC0071F5AA2428C08FEF8A8380E090E0A0E0B0E0A8833C
:1422F000B9839C0107E70DD23DD00130E9F78FEF8A8380E02B
:1423040090E0A0E0B0E0A883B9839C0109E6FFD12FD0C02E95
:14231800002351F4809165008860809365000FEF0E9483153B
:14232C0000271FC0A3948A2D8A30A8F241E08FEF8A8380E049
:1423400090E0A0E0B0E0A883B9839C0101E4E1D111D0A02EBF
:142354006A2D613009F4B2CF809165008860809365000FEFFB
:142368000E948315002723960C94351B0E94061B6627772769
:14237C000CC00FEF0E948315402F002309F40AC0413009F482
:1423900007C06F5F7F4F80E490E0861797077CF7042F0C9481
:1423A4000B1B0E941E1BC02E4427552709C00FEF0E9483154E
:1423B800A02E0C1509F407C04F5F5F4F88EE93E084179507E2
:1423CC0094F70A2D0C94251B0E94101B6627772727C00FEF7E
:1423E0000E948315402F4F71A42EBB24C501853EE0E09E07E1
:1423F40071F0853EE0E09E0784F0C5018B3EE0E09E0739F0BB
:142408008D3EE0E09E0729F006C0AA2406C000E119C001E181
:14241C0017C082E1A82EAA2009F407C06F5F7F4F80E490E09E
:1424300086179707A4F6662777270FEF0E948315402F6F5F23
:142444007F4F4423C1F3042F0C94171B0E94E4190E94101B2A
:142458002397AA24A39480916500877F809365008FEF8A8332
:14246C0029843A844B845C8440E052E060E070E05A924A9298
:142480003A922A928A019B010E949D1A28833983980100E65A
:142494003ED18FEF8A8341E050E060E070E029843A844B847F
:1424A8005C84240E351E461E571E40E052E060E070E05A9214
:1424BC004A923A922A928A019B010E949D1A28833983980128
:1424D00001E61FD18FEF8A8340E050E060E070E068837983CF
:1424E4009A0106E614D144DF0023E9F7AA2480916500886026
:1424F800809365000A2D23960E94171B249608950E94E4199E
:14250C000E94F11A2797EF88F88C80E08B838C838D838E83B7
:1425200082E0A82E0D891E8932D1002309F060C0809165007D
:14253400877F809365008FEF8A8329883A884B885C8840E040
:1425480052E060E070E05A924A923A922A928A019B010E94A4
:14255C009D1A28833983980101E5D5D005DF002309F03DC02C
:142570000EEF19DFC02E8C2D0E3FA1F580E08B838C838D834B
:142584008E8319C00FEF0E948315C02EEB81FC81EE0DFF1D33
:14259800C08241E050E060E070E02B803C804D805E80240EC8
:1425AC00351E461E571E2B823C824D825E822D883E884424F2
:1425C00055246B807C808D809E806214730484049504D0F2AC
:1425D4000FEF0E9483150FEF0E948315AA2408C083E0A82EB4
:1425E80005C082E0A82E02C0AA24A3948091650088608093AA
:1425FC0065000FEF0E9483150A2D27960E94E61A2496089541
:142610000E94E4190E94F11A2797CD88DE88EF88F88C80E096
:142624008B838C838D838E8382E0A82E8601ADD0002309F00C
:142638005CC080916500877F809365008FEF8A8329883A8880
:14264C004B885C8840E052E060E070E05A924A923A922A9291
:142660008A019B010E949D1A28833983980108E550D00027B2
:1426740098DE002309F038C00FEF0E9483150EEF0E94831559
:1426880080E08B838C838D838E8317C0EB81FC81EE0DFF1DC9
:14269C0000810E94831541E050E060E070E02B803C804D805A
:1426B0005E80240E351E461E571E2B823C824D825E821601A9
:1426C400442455246B807C808D809E80621473048404950401
:1426D800E8F20FEF0E9483150FEF0E94831576DEAA2405C0BD
:1426EC0082E0A82E02C0AA24A3948091650088608093650005
:142700000FEF0E9483150A2D27960E94E61A249608953A93D3
:142714002A930E941E1B402F2697A888842F8064888343E0F8
:1427280050E01A01220C331C220C331C220C331C0C851D85A8
:14273C002E853F852A920E948F1BC02EE4E0F0E0E41BF50B89
:14275000CE01E80FF91FC082415050404030E0E05E071CF78C
:14276400AD8244275527CE01FA01E80FF91F00810E948315B7
:142778004F5F5F4F4630E0E05E079CF326960E94251B229671
:14278C000895AA92BA925801239780916500877F809365000D
:1427A0008FEF8A8315014424552448825982910100E5AFDFF9
:1427B400DFDD002361F049DD8FEF8A8315014424552448826F
:1427C8005982910100E5A1DFD1DD80916500886080936500A7
:1427DC000FEF0E94831500272396B990A99008950E94F11A05
:1427F000C22E602F2397ED84FE84AA244FEF0C2D1127C5DF88
:14280400002309F036C080916500877F809365008FEF8A832F
:1428180080E090E0A0E0B0E0A883B9839C01062F74DFA4DDBF
:14282C000023D1F40EEFB9DD602F0E3F69F40AC00FEF0E947A
:142840008315602FEA2DFF27EE0DFF1D6083A394AC14A0F39C
:142854000FEF0E9483150FEF0E948315442701C042E08091A1
:1428680065008860809365000FEF0E94831580916500886001
:14287C0080936500042F23960C94E61A0E94F11A2B970024B1
:14289000112418860F820A86098680916500877F80936500BD
:1428A4008FEF8A8340E050E060E070E0688379839A0109E446
:1428B8002CDF5CDDC02EDD240FEF0E948315A02EBB24CC2008
:1428CC0009F096C0DD2009F093C006C00FEF0E948315C02E74
:1428E000AC2CBB24C5018E3FE0E09E07A9F785E090E06C0153
:1428F40009C00FEF0E948315E02EAE2CBB24C60101976C013C
:14290800CC20A9F7DD2099F70FEF0E948315E02EAE2CBB24A3
:14291C00C5018F7090708A870FEF0E948315E02EAE2CBB24D2
:142930002AE030E08501037010700E94751B18870F830FEF9F
:142944000E948315E02EAE2CBB241501220C331C220C331C6E
:142958000F801884020C131C18860F820FEF0E948315E02E8E
:14296C00AE2CBB2426E030E085010E94881B0F801884000E84
:14298000111E18860F820FEF0E948315E02EAE2CBB24C50120
:14299400837090701C01220C331C29860FEF0E948315E02EAD
:1429A800AE2CBB2427E030E085010E94881B29843324200E4E
:1429BC00311E29860FEF0E948315E02EAE2CBB240FEF0E946A
:1429D0008315E02EAE2CBB240FEF0E948315E02EAE2CBB2495
:1429E4000FEF0E948315E02EAE2CBB240FEF0E948315E02E9A
:1429F800AE2CBB2484E090E06C0109C00FEF0E948315E02EC2
:142A0C00AE2CBB24C60101976C01CC20A9F7DD2099F70FEF1A
:142A20000E948315E02EAE2CBB2480916500877F80936500AD
:142A34008F81988501961C01442455242B823C824D825E82B2
:142A480082E090E05C018985992702966C0105C0AA0CBB1C26
:142A5C00C60101976C0181E090E08C159D05B0F31501442465
:142A700055240B811C812D813E815A924A923A922A920E9451
:142A84009D1A0B831C832D833E8382E090E05C01CA84DD246B
:142A980005C0AA0CBB1CC60101976C0181E090E08C159D05F8
:142AAC00B0F31501442455240B811C812D813E815A924A921E
:142AC0003A922A920E949D1A0B831C832D833E830B811C815A
:142AD4002D813E812B960C94E61AC19AB99ABB98BA9AB89A79
:142AE800C09A82E58DB981E080938708089582E58DB970987E
:142AFC00089581E58DB9709A08950FB9779BFECF0FB10895D2
:142B10000E94FC1AA8018A01012F11271070F3DFA02EBB245E
:142B2400BA2CAA248A011070ECDF202E3324A228B328850143
:142B38000C94011B4A93402F2090A4083090A508222011F471
:142B4C00332021F04A3011F40DE0F2DF20909B0025FEFCCF9B
:142B600040939C00042F11274991089520909B0027FEFCCFD5
:142B740000919C001127089588E180939A00222420929800A5
:142B88008FE28093990008950E94E4190E94F11A6297002416
:142B9C0011241D860C86F9C3EE8DFF8D8081853259F0008176
:142BB000EC8DFD8D0E943E1B8C859D8501969D878C87E4C36B
:142BC400002411241B860A868FEF9FEF9F878E876627772701
:142BD80048E858E080E2C82E8E8D9F8D01969F8F8E8FAA2432
:142BEC00BB24EE8DFF8DE080FF24C7018032E0E09E07F1F0AC
:142C00008332E0E09E0791F08032E0E09E07E4F0C7018B32B5
:142C1400E0E09E0769F08D32E0E09E0739F08033E0E09E0789
:142C280069F00EC061600FC064600DC068608BE2C82E09C05C
:142C3C00686080E2C82E05C0606103C081E090E05C01AA2023
:142C500011F4BB2009F006C08E8D9F8D01969F8F8E8FC5CF14
:142C6400EE8DFF8D008111270E946E2000300107B9F00E8DF0
:142C78001F8D0E94C01B1B870A8705C08E8D9F8D01969F8F1B
:142C8C008E8FEE8DFF8D008111270E946E2058010030010796
:142CA00089F715C0EE8DFF8D80818A3281F488A199A1029697
:142CB40099A388A3FC013297208031803B862A868E8D9F8DD6
:142CC80001969F8F8E8FEE8DFF8D80818E3209F03AC0CF018B
:142CDC0001969F8F8E8FFC01008111270E946E205801003093
:142CF0000107C1F00E8D1F8D0E94C01B5801BF86AE8605C0BC
:142D04008E8D9F8D01969F8F8E8FEE8DFF8D008111270E9430
:142D18006E2058010030010789F715C0EE8DFF8D80818A326F
:142D2C0081F488A199A1029699A388A3FC01329720803180A5
:142D40003F862E868E8D9F8D01969F8F8E8FEE8DFF8D8081D5
:142D54008C3629F4CF0101969F8F8E8F6260EE8DFF8DA080F1
:142D6800BB24C5018835E0E09E0709F490C088E58A159B0597
:142D7C0094F0C5018534E0E09E0709F4FDC28534E0E09E0701
:142D90000CF440C0C5018335E0E09E0709F46EC139C0C50161
:142DA4008336E0E09E0709F443C18436E0E09E0709F43BC0E5
:142DB8008536E0E09E0709F4E1C28636E0E09E0709F4DCC28B
:142DCC008936E0E09E0709F42CC08F36E0E09E0709F45BC0A4
:142DE0008037E0E09E0709F456C08336E0E09E078CF0C50150
:142DF4008337E0E09E0709F4FEC18537E0E09E0709F447C0CB
:142E08008837E0E09E0709F442C000C0EE8DFF8D0081EC8DD2
:142E1C00FD8D0E943E1B8C859D8501969D878C87AFC261FF4B
:142E30001EC088A199A1049699A388A3FC0134972080318033
:142E4400428053802E823F82488659868AE090E09B838A83C2
:142E58002E803F80488459844882598291018A010E94711C5F
:142E6C00BFC088A199A1029699A388A3FC013297208031805A
:142E8000398A288A8AE090E09983888391018A010E94061CE7
:142E9400ABC061FF10C088A199A1049699A388A3FC01349763
:142EA80020803180428053802E823F82488659860BC088A11E
:142EBC0099A1029699A388A3FC01329720803180398A288A3D
:142ED000EE8DFF8D80818537D9F461FF0FC08AE090E09B8336
:142EE4008A832E803F80488459844882598291018A010E9453
:142EF800C71F78C08AE090E099838883288939898A010E9407
:142F0C002E206EC0EE8DFF8D80818F3609F560FF04C080E3E4
:142F2000FA018193AF0161FF0FC088E090E09B838A832E80FE
:142F34003F80488459844882598291018A010E94C71F52C0C5
:142F480088E090E099838883288939898A010E942E2048C080
:142F5C00EE8DFF8D8081803739F480E3FA01819388E7819380
:142F7000AF010CC060FF0AC080E3FA018193AF01EE8DFF8D7F
:142F84002080FA012192AF0161FF0FC080E190E09B838A8310
:142F98002E803F80488459844882598291018A010E94C71FC5
:142FAC0009C080E190E099838883288939898A010E942E2062
:142FC000EE8DFF8D8081883589F448E858E00AC0FA0100810D
:142FD40011270E94A0205801FA01A0824F5F5F4FFA012080E2
:142FE800222091F748E858E08E859F858F3FEFEF9E0721F406
:142FFC00002411241F860E860E841F84002019F4112009F49F
:1430100004C108E818E00E94D8195801B98AA88A0E841F8469
:143024000A141B040CF0F7C005011F860E86F3C088A199A153
:14303800029699A388A3FC013297208031802C8281E090E0EF
:14304C000A841B848015910544F41F860E8622242D82AE0103
:143060004C5F5F4FDAC00C81EC8DFD8D0E943E1B8C859D85AB
:1430740001969D878C8788C188A199A1029699A388A3FC01D2
:143088003297E080F1808E859F858F3FEFEF9E0721F40024D9
:14309C0011241F860E860A841B84002011F4112051F0870166
:1430B0000E94B31B58012A843B84201A310A3B862A860E845E
:1430C4001F84002041F4112031F487010E94B31B5801BF8614
:1430D800AE860A841B84002011F4112031F063FF04C0C00125
:1430EC0001979B878A8764FF26C063FF0AC00C2DEC8DFD8D54
:143100000E943E1B8C859D8501969D878C8762FD4CC00FC085
:1431140000E3EC8DFD8D0E943E1B8C859D8501969D878C87C5
:143128008A859B8501979B878A87222433240A841B8420149B
:14313C00310454F334C062FD17C00FC000E2EC8DFD8D0E9483
:143150003E1B8C859D8501969D878C878A859B8501979B8728
:143164008A87222433240A841B842014310454F363FF19C091
:143178000C2DEC8DFD8D0E943E1B8C859D8501969D878C870B
:14318C000EC0F7010691EC8DFD8D0E943E1B8C859D8501960A
:1431A0009D878C87C70101967C01F7012690222051F0AE84A5
:1431B400BF84C50101979F878E87AA2031F7BB2021F762FFE5
:1431C800E1C00FC000E2EC8DFD8D0E943E1B8C859D850196D9
:1431DC009D878C878A859B8501979B878A87222433240A8483
:1431F0001B842014310454F3C9C088A199A1029699A388A391
:14320400FC013297408151814030450721F482E990E07C0134
:143218003ACF8E859F858F3FEFEF9E0721F4002411241F86FE
:14322C000E860A841B84002011F4112051F08A010E94D81918
:1432400058012A843B84201A310A3B862A860E841F84002079
:1432540041F4112031F48A010E94D8195801BF86AE860A845D
:143268001B84002011F4112031F063FF04C0C00101979B879B
:14327C008A8764FF26C063FF0AC00C2DEC8DFD8D0E943E1B81
:143290008C859D8501969D878C8762FD4BC00FC000E3EC8D94
:1432A400FD8D0E943E1B8C859D8501969D878C878A859B8561
:1432B80001979B878A87222433240A841B842014310454F3BD
:1432CC0033C062FD17C00FC000E2EC8DFD8D0E943E1B8C8505
:1432E0009D8501969D878C878A859B8501979B878A872224AA
:1432F40033240A841B842014310454F363FF18C00C2DEC8DA6
:14330800FD8D0E943E1B8C859D8501969D878C870DC0FA0163
:14331C000081EC8DFD8D0E943E1B8C859D8501969D878C871D
:143330004F5F5F4FFA012080222051F0AE84BF84C50101973C
:143344009F878E87AA2039F7BB2029F762FF1CC00FC000E257
:14335800EC8DFD8D0E943E1B8C859D8501969D878C878A8553
:14336C009B8501979B878A87222433240A841B84201431042F
:1433800054F304C084EA90E07C0181CE8E8D9F8D01969F8F78
:143394008E8FEE8DFF8D2080222009F001CC0C851D8562962E
:1433A8000E94E61A24960895E02FF12FAA27BB270190002085
:1433BC0011F01196FBCF0A2F1B2F08953A932A931A930A9397
:1433D00008956894DA92D12E04C0E894DA92D12ED32617FF2B
:1433E40004C0109500950F5F1F4F37FF04C0309520952F5FF9
:1433F8003F4F0E940A1AD7FE04C0109500950F5F1F4FD99055
:14340C000895689401C0E894EA92FA928A93EE24FF2480E11B
:14342000000F111FEE1CFF1CE216F30618F0E21AF30A0395AA
:143434008A95A1F716F40E2D1F2D8991F990E9900895E89407
:1434480001C0689430D0CC2409C0E89401C068942AD037FD93
:14345C000E94471BB7FD52D0772488249924AA24BB2442D0BF
:14347000C1F045D0B1F0E8E2000F111F221F331F771C881C0E
:14348400991CAA1CBB1C88169906AA06BB0628F0881A990AD7
:14349800AA0ABB0A0395EA9559F726F4082D192D2A2D3B2DEC
:1434AC0013C07A928A929A92AA92BA92CA92EA938A939A933A
:1434C000AA93BA938B859C85AD85BE85C32E0EF0CB2608954B
:1434D400C7FC0E94471BB991A99199918991E991C990B99039
:1434E800A99099908990799024960895E02FE12BE22BE32BBF
:1434FC000895E82FE92BEA2BEB2B089580959095A095B09578
:143510008F5F9F4FAF4FBF4F08950A921A928A939A93029FEF
:14352400C001129F900D039F900D8C01999189911990099032
:1435380008950E94501B7A920E94691B59F177240E946F1B92
:14354C0019F48C019D0124C00A921A92089FB02CA12C289FF0
:14356000902C812C189FA00C911C871C099FA00C911C871C97
:14357400199F900C811C0A9F900C811C389F800C299F800CB9
:143588001A9F800C0B9F800C199009900B2D1A2D292D382D38
:14359C0079900C945E1BA990B990C990D9900895A990B99096
:1435B000C990D990E990F9900895A990B990C990D990E990E9
:1435C400F990499159910895A990B990C990D990E990F990C3
:1435D800499159916991799108957A936A935A934A93FA921A
:1435EC00EA92DA92CA92BA92AA9208955A934A93BA92AA9210
:143600000895A990B9904991599108957A936A935A934A9362
:143614000895499159916991799108957A936A935A934A93CC
:14362800BA92AA920895A990B9904991599169917991089582
:14363C005A934A93DA92CA92BA92AA920895A990B990C990E8
:14365000D9904991599108957A936A935A934A93DA92CA9200
:14366400BA92AA920895A990B990C990D9904991599169912B
:14367800799108950A92D8950A923196D895F02DE99109908E
:14368C00099400951095209530950F5F1F4F2F4F3F4F089554
:1436A0008A929A92AA92BA92EA938A939A93AA93BA938985E7
:1436B4009A85AB85BC850895B991A99199918991E991B9904A
:1436C800A9909990899024960895EE27E02BE12BE22BE32BD5
:1436DC000895EE27E82BE92BEA2BEB2B0895222321F0000FD4
:1436F000111F2A95FACF08950F920990002031F0000F111FB7
:14370400221F331F0A94F8CF0F900895222321F016950795E0
:143718002A95FACF08950F920990002031F0369527951795CA
:14372C0007950A94F8CF0F900895AA93BA93EA93FA930A921C
:14374000AF81B885ED81FE810030010729F001900D92015049
:143754001040F8CF0990F991E991B991A99124960895E02FC3
:14376800F12FAA27BB27C895002019F031961196FACF0A2F84
:14377C001B2F08950E94101B580103C0C50101965C01F501B9
:14379000008111270E94822000300107A9F766277727F5012F
:1437A40080818D3229F461E0CF0101965C0107C0F501808171
:1437B8008B3219F4CF0101965C01442755270EC00AE010E0E0
:1437CC009A010E948D1AA801F50121905F013324420D531D3F
:1437E00040535040F501008111270E946E200030010751F753
:1437F4006030670731F08A01009510950F5F1F4F01C08A01B5
:143808000C94171B0E94E4190E94F11AA901EE84FF845A0194
:14381C00AA2051F4BB2041F480E3EA85FB858083222421823B
:143830008F0153C04030E0E05E076CF4C7018A30E0E09E0705
:1438440041F4CC24C394C5018095909501965C0101C0CC244F
:143858006A857B85970185010E94071AA80189E090E0801773
:14386C00910734F0CA01C096FB018193BF0106C0CA01895A27
:143880009F4FFB018193BF01970185010E94091A5801AA2070
:1438940019F7BB2009F7CC2021F08DE2FB018193BF012B01CD
:1438A800615070402224F2012082AA84BB840CC0F501C08061
:1438BC00FB012080F50121925F011B0161507040F101C082A2
:1438D000A616B70688F30A851B850E94E61A249608950E9426
:1438E400E4190E94F11A2497288839884A885B8828823982E0
:1438F8004A825B82288839884A885B88889422203204420413
:14390C00520441F480E3EE85FF858083222421828F0194C0F2
:1439200040E050E060E070E0288839884A885B882416350618
:1439340046065706ECF48C899D898A30A0E09A07B9F4AA2465
:14394800A39441E050E060E070E0288039804A805B80209499
:14395C00309440945094240E351E461E571E288239824A824C
:143970005B8201C0AA24CE84DF842C883D88442437FC40943A
:14398400552447FC5094088119812A813B815A924A923A9271
:143998002A920E94251A780189E090E08017910734F0C70111
:1439AC00C096F60181936F0106C0C701895A9F4FF6018193CC
:1439C0006F012C883D88442437FC4094552447FC5094088172
:1439D40019812A813B815A924A923A922A920E94231A088324
:1439E80019832A833B83288039804A805B808894222032042A
:1439FC004204520409F0BBCFAA2021F08DE2F60181936F01D3
:143A10002601C20101976C012224F2012082EE84FF840DC016
:143A2400F701A080F6012080F70121927F011601C101019743
:143A38006C01F101A082EC14FD0480F30E851F8524960E94F2
:143A4C00E61A249608950E94E4190E94F51A609780E088835D
:143A600089838A838B8305C08E899F8901969F8B8E8BEE89D6
:143A7400FF89008111270E9482200030010791F7EE89FF89FA
:143A88002080222079F00A8C1B8C002011F41120C9F081E032
:143A9C0090E08015910524F484E28015910584F4088C198C21
:143AB000002011F4112029F0F0010E881F881182008200E070
:143AC40010E020E030E02CC1002411241D860C86EE89FF8974
:143AD80080818D3249F4CF0101969F8B8E8B81E090E09D873E
:143AEC008C8709C0EE89FF8980818B3221F4CF0101969F8B87
:143B00008E8BEE89FF8980818033D1F421803324822D8835BC
:143B140011F0883799F48A8D9B8D8031E0E09E0721F00C01DD
:143B28008030890749F480E190E09B8F8A8F8E899F89029621
:143B3C009F8B8E8B0A8C1B8C002081F4112071F4EE89FF89CB
:143B50008081803321F488E090E05C0103C08AE090E05C0169
:143B6400BB8EAA8E8A8D9B8D8A30E0E09E0724F089E390E07E
:143B78005C0105C08A8D9B8D0197C0965C0165018AE090E04D
:143B8C000A8C1B8C801591050CF098C0C0010B978F599F4F30
:143BA0009F878E8791C0EE89FF89008111270E946E20580144
:143BB4000030010761F0EE89FF8920803324C214D3042CF0B5
:143BC80080819927C0977C0120C08AE090E00A8C1B8C8015C8
:143BDC0091050CF079C0EE89FF89008111270E94B320580184
:143BF0007501C5010136E0E01E070CF46BC00E841F840016F3
:143C040011060CF465C0815690400A967C01288039804A8081
:143C18005B802C823D824E825F822A8C3B8C442437FC4094B3
:143C2C00552447FC5094088119812A813B815A924A923A92C6
:143C40002A920E949D1A180129013701882477FC80949924F0
:143C540087FC9094260C371C481C591C288239824A825B8249
:143C68002C803D804E805F80688079808A809B80621473043F
:143C7C0084049504F4F482E090E09093A7088093A6080C8436
:143C90001D84002011F4112039F080E0888789878A8780E808
:143CA4008B8706C08FEF888789878A878FE78B8708851985D3
:143CB8002A853B8533C08E899F8901969F8B8E8BEE89FF897E
:143CCC002080222009F069CF088C198C002011F4112029F029
:143CE000F0010E881F88118200820C841D84002011F4112006
:143CF40059F0088119812A813B810E94471B088719872A8705
:143D08003B8708C0288039804A805B80288639864A865B86F9
:143D1C00088519852A853B8560960E94D61A249608950E9478
:143D3000E4190E94F51A2A9780E0888389838A838B8305C0B9
:143D4400888999890196998B888BE889F989008111270E941C
:143D580082200030010791F7E889F9892080222079F00C8823
:143D6C001D88002011F41120C9F081E090E08015910524F47B
:143D800084E28015910584F40A881B88002011F4112029F082
:143D9400F001088819881182008200E010E020E030E0EEC056
:143DA800E889F98980818B3221F4CF010196998B888BE88932
:143DBC00F98980818033D1F421803324822D883511F08837D4
:143DD00099F48C899D898031E0E09E0721F00C0180308907A3
:143DE40049F480E190E09D8B8C8B888999890296998B888B7C
:143DF8000C881D88002081F4112071F4E889F98980818033AC
:143E0C0021F488E090E05C0103C08AE090E05C01BD8AAC8AE1
:143E20008C899D898A30E0E09E0724F089E390E05C0105C022
:143E34008C899D890197C0965C0165018AE090E00C881D887B
:143E4800801591050CF085C0C0010B978F599F4F9987888792
:143E5C007EC0E889F989008111270E946E20580100300107A7
:143E700061F0E889F98920803324C214D3042CF08081992779
:143E8400C0977C0120C08AE090E00C881D88801591050CF03C
:143E980066C0E889F989008111270E94B32058017501C5013A
:143EAC000136E0E01E070CF458C008841984001611060CF478
:143EC00052C0815690400A967C01288039804A805B802C8264
:143ED4003D824E825F822C883D88442437FC4094552447FCC6
:143EE8005094088119812A813B815A924A923A922A920E9466
:143EFC009D1A180129013701882477FC8094992487FC9094E9
:143F1000260C371C481C591C288239824A825B822C803D80C8
:143F24004E805F80688079808A809B806214730484049504C8
:143F380058F482E090E09093A7088093A6080FEF1FEF2FEF9A
:143F4C003FEF1AC0888999890196998B888BE889F9892080C5
:143F6000222009F07CCF0A881B88002011F4112029F0F00132
:143F74000888198811820082088119812A813B812A960E9407
:143F8800D61A249608953A932A930E94F11A5801CE84DF8499
:143F9C00A5011601442437FC4094552447FC50940A851B8516
:143FB0002C853D855A924A923A922A920E94251AB80189E037
:143FC40090E08017910734F0CB01C096FA018193AF0106C07F
:143FD800CB01895A9F4FFA018193AF011601442437FC4094F3
:143FEC00552447FC50940A851B852C853D855A924A923A92EB
:144000002A920E94231A0A871B872C873D872A843B844C842A
:144014005D848894222032044204520409F0BDCF2A01415046
:1440280050402224F201208265010CC0F601E080FA012080F5
:14403C00F60121926F011A0141505040F101E082C416D50611
:1440500088F385010E94E61A229608950E94F11A69015801F4
:14406400EA84FB84A501970186010E94071AB80189E090E041
:144078008017910734F0CB01C096FA018193AF0106C0CB016E
:14408C00895A9F4FFA018193AF01970186010E94091A680143
:1440A000CC2019F7DD2009F72A01415050402224F2012082EC
:1440B40065010CC0F601E080FA012080F60121926F011A019F
:1440C80041505040F101E082C416D50688F385010C94E61A19
:1440DC0087E091E0F801E80FF91F0691112704701070089590
:1440F00087E091E0F801E80FF91F069111270270107008957E
:1441040087E091E0F801E80FF91F069111270071107008956A
:1441180087E091E0F801E80FF91F0691112701701070089556
:14412C0087E091E0F801E80FF91F069111270870107008953B
:144140004A935A93A8018A010E9478200030010731F08A014F
:14415400015610400F5B1F4F01C08A015991499108954A934E
:144168005A93A8018A010E948C200030010731F08A0101549B
:14417C0010400F591F4F01C08A015991499108950E94E419BD
:144190000E94F11A59016E857F854427552712C086010E943B
:1441A40082200030010729F00C2DFB010E943E1B0FC0EA85A6
:1441B800FB85C192FB87EA8741E050E0F5010E943E1BE02EDD
:1441CC00FF246701002331F72224EA85FB8520822090A108D9
:1441E0003090A208240E351E3092A2082092A1080E94E61A73
:1441F400249608950E94E4190E94F11A6901A888B9884427CE
:1442080055273FC0C5018031E0E09E0769F48B010E9496200A
:14421C000030010709F02CC0062FEE85FF850E943E1B36C054
:14423000C5018830E0E09E0781F48B010E946E20003001072E
:1442440021F06833E0E07E07BCF0062FEE85FF850E943E1BA2
:1442580021C08B010E946E2078010030010751F46D32E0E060
:14426C007E0731F0062FEE85FF850E943E1B10C0EA85FB85B2
:144280006193FB87EA8741E050E0F6010E943E1BE02EFF24CF
:14429400B701002309F0B8CF2224EA85FB8520822090A1088B
:1442A8003090A208240E351E3092A2082092A1080E94E61AAA
:1442BC00249608950E94E4190E94F11A2F97EF8CF8A022242C
:1442D00033243092A2082092A108F7C06532E0E07E0709F030
:1442E400CBC0ED8DFE8D80818C3641F481E090E06C01CF0130
:1442F80001969E8F8D8F02C0CC24DD24C70102967C01FC0145
:14430C003297A080B180ED8DFE8D408155274336E0E05E07A3
:1443200029F14436E0E05E0709F464C084E690E0841795079E
:144334002CF04835E0E05E0769F195C04F36E0E05E0711F15C
:144348004037E0E05E0721F14337E0E05E0709F47FC045375C
:14435C00E0E05E07C1F04837E0E05E07B9F07FC0E98DFA8DEE
:144370000E943E1BF50100838091A1089091A2080196909386
:14438400A2088093A10872C048E050E005C04AE050E002C054
:1443980040E150E05B834A830B8C1C8C19820882298D3A8D34
:1443AC008E010C5F1F4F22DFCC2011F4DD2079F05983488396
:1443C000222733278E010C5F1F4F0E94971EF501008311837A
:1443D400228333834BC059834883222733278E010C5F1F4FBD
:1443E8000E94971EF501118300833EC08AE090E09B838A835A
:1443FC000B8C1C8C19820882298D3A8D8E010C5F1F4FF4DE92
:14441000CC2011F4DD2089F08AE090E099838883222733278D
:144424008E010C5F1F4F0E94291DF5010083118322833383CC
:144438001BC08AE090E099838883222733278E010C5F1F4F89
:14444C000E94291DF501118300830CC00B8C1C8C1982088237
:14446000298D3A8D850192DE03C0002711273CC08D8D9E8D72
:1444740001969E8F8D8F27C08B010E94822000300107B1F0C4
:14448800E98DFA8D0E943E1BA02EBB24B501002339F08B01ED
:14449C000E94822058010030010781F7062FEB8DFC8D0E94E7
:1444B0003E1B0BC0E98DFA8D0E943E1BA02E2A2C3324261625
:1444C400370609F00BC0ED8DFE8DA190FE8FED8FBB24B5010F
:1444D8006030670709F0FECE0091A1081091A2082F960E9421
:1444EC00E61A249608950E94E419AA92BA922297CE0106961A
:144500005C01B982A8822C813D810CE810E00E94C8155801BE
:144514002296B990A99024960895AA922090A308222029F010
:14452800A22C22242092A30803C00E94B615A02E0A2DA990A0
:14453C0008950093A30808950E94E419AA92BA9224972224CB
:144550002092A308CE0108965C01BB82AA822E803F8039829F
:14456400288220E930E00EE810E00E94602158012496B9901B
:06457800A99024960895AD
:00000001FF
