:040000000C944F000D
:11008C00003F065B4F666D7D077F6F777C395E7971BB
:14009E00CFEFD0E1CDBFDEBFCE51D0400AEA08830024E1E122
:1400B200F1E011E0E032F10711F00192FBCF0083ECE8F0E0E9
:1400C600A0E0B1E010E000E00BBFED39F10721F0C895319628
:1400DA000D92F9CF0E94BC01FFCF000000000000000000007E
:1400EE00000008950000000000000000000000000000000061
:140102000000000000000000000000000000000000000000E9
:140116000000000000000895E9DFE8DFE7CFFCDFFBDFFADF65
:14012A00F9CFFBDFFACF4A93402F01C0FADF242E3324415036
:14013E002220D1F749910895F2DFF1DFF0DFEFDFEEDFEDDF55
:14015200ECDFEBDFEADFE9CF4A935A93A80101C0F1DF1A0164
:14016600415050402220D1F73320C1F75991499108954A9311
:14017A00402F03C008EE13E0EBDF242E332441502220C1F758
:14018E00499108958FEF8BBB8ABB82BB81BB88BB87BB82B9A4
:1401A2001B9A13980895AA92BA925801F1DF949A959A2224F8
:1401B6002BBA959881E091E0F501E80FF91F20802BBA94989B
:1401CA0001E010E0C5DFB990A9900895009118011127033177
:1401DE00E0E01E0709F459C083E190E080179107FCF00730EC
:1401F200E0E01E0709F443C087E090E08017910734F00330B7
:14020600E0E01E0709F435C05CC00B30E0E01E0709F437C0DD
:14021A000B30E0E01E070CF452C00F30E0E01E0791F14DC0EB
:14022E000F31E0E01E0709F43CC08FE190E08017910774F02B
:140242000731E0E01E0759F10731E0E01E070CF43AC00B31EE
:14025600E0E01E0731F135C00332E0E01E0749F10332E0E04F
:14026A001E076CF10732E0E01E0729F128C0222420921F01C6
:14027E0027C081E080931F0123C082E080931F011FC083E037
:1402920080931F011BC084E080931F0117C085E080931F0144
:1402A60013C086E080931F010FC087E080931F010BC088E03C
:1402BA0080931F0107C089E080931F0103C08AE080931F013A
:1402CE0008950E94C1016627442706C004E029DF0B9B01C00A
:1402E20048C043954331C0F30B9BFECF442709C004E01DDF7A
:1402F60013DF12DF11DF0B9901C039C043954530A8F30B9937
:14030A00FECF442726C0AA2417C00B9BFECF05C008DF639505
:14031E00663108F028C00B99F9CF20900001269420920001CA
:14033200683020F0822D8068809300016627A3948A2D883031
:1403460030F385E191E0E42FFF27E80FF91F2090000120820E
:14035A0043954430C0F23ADF00911F0111271FDF969802E37E
:14036E0010E0F4DE969A0C94C8010CDF01C0A9DFFECF089582
:140382007A936A935A934A93BA92AA920895A990B990499112
:080396005991699179910895D4
:00000001FF
