:100000000C9446000C9465000C9465000C946500FB
:100010000C9465000C9465000C9465000C946500CC
:100020000C9465000C9465000C9465000C946500BC
:100030000C9465000C9465000C9465000C946500AC
:100040000C9465000C9465000C9465000C9465009C
:100050000C9465000C9465000C9465000C9465008C
:100060000C9465000C9465000C9465000C9465007C
:100070000C9465000C9465000C9465000C9465006C
:100080000C9465000C9465000C94650011241FBE4F
:10009000CFEFD0E1DEBFCDBF1CE0A0E0B1E0E4E1F6
:1000A000F5E200E00BBF02C007900D92AC39B1073A
:1000B000D9F71CE0ACE9BCE001C01D92AD3DB10731
:1000C000E1F70E940D020C9488120C9400008FEF4F
:1000D00082BB81BB949A959A8BBB959808952F9279
:1000E0003F924F925F926F927F928F929F92AF92C8
:1000F000BF92CF92DF92EF92FF920F931F93DF9305
:10010000CF93CDB7DEB7AE970FB6F894DEBF0FBE74
:10011000CDBF81E0898380919E0C90919F0C9E01C0
:100120002E5F3F4FAE014F5F5F4F892B09F04BC0F1
:1001300010929D0C10929C0CC9016CE97CE00E940D
:10014000620688A780919C0C90919D0C90939F0CC7
:1001500080939E0C6AE070E00E944D11CB01C09626
:1001600068E070E049E050E02FEF3FEF0E94820D21
:1001700080919E0C90919F0C6AE070E00E944D115E
:10018000C09669E070E049E050E02FEF3FEF0E9439
:10019000820D80E091E06AE070E049E050E02FEFEE
:1001A0003FEF0E94B70E80E197E228EB30E0F901C3
:1001B0003197F1F70197D9F781E090E090939D0C8A
:1001C00080939C0C06C0C9016CE97CE00E94620629
:1001D00088A78E899F89A0E0B0E06C01BB24AA2487
:1001E0008C8D9D8DA0E0B0E0A80EB91ECA1EDB1E4E
:1001F00080E092E00E9483112C011AA6992419A68E
:100200008FE990E09DA38CA322243324B2C0C601C1
:10021000B501A10192010E94E3042114310471F49B
:1002200099A5992359F4F2018285682E7724848C4C
:10023000869486948694F1E0F9A702C06624772418
:100240007201E60CF71C83E0881631F591E09916EF
:1002500071F0991628F0E2E09E1609F065C012C010
:10026000F701808186958695869590E012C0F7010A
:1002700080818695869590E025E0880F991F2A95C4
:10028000E1F707C0F7018081887F8CA71BA68BA5AB
:100290009CA5082B192B48C092E0891681F499205F
:1002A000E9F0E1E09E1609F03FC0F701F081FBA301
:1002B0001AA288A5082F10E0EAA1FBA133C0F4E040
:1002C0008F1699F581E0981669F0981638F092E04B
:1002D000991661F0E3E09E1639F50CC0F701F08144
:1002E000F8A722C0F701F081FFA31EC0F701F0813B
:1002F000FEA31AC02FA12695269530E088A58695E5
:100300008695869590E0082B192B85E0220F331FE8
:100310008A95E1F7022B132B8EA1887F8EA71DA64D
:10032000EDA5FEA50E2B1F2B93940894611C711C48
:10033000981499F48AA56CA1A8010E941E0FFAA531
:10034000FF5FFAA7F7FF06C08CA19DA101979DA3AF
:100350008CA31AA6992400E010E00894E11CF11C7B
:1003600090E0691692E0790608F46DCF0894211C9C
:10037000311C8091B30C9091B40C2816390608F406
:1003800046CFC2010E943012C601B5010E94180575
:100390005B016C0180E092E00E9483119C012C01C2
:1003A000EFEFAE16EFEFBE06EFEFCE06EFE0DE06A4
:1003B000C1F0F8EFAF16FFEFBF06FFEFCF06FFE08B
:1003C000DF0679F08091CC0C882309F01DCF8FEFE8
:1003D000A8168FEFB80680E0C80680E0D80609F0BE
:1003E00013CFC9010E943012AE960FB6F894DEBF4B
:1003F0000FBECDBFCF91DF911F910F91FF90EF9076
:10040000DF90CF90BF90AF909F908F907F906F9034
:100410005F904F903F902F9008950F931F93CF932D
:10042000DF9380E098E40197F1F70E94600B0E944F
:10043000D902809165008061809365000E94540C10
:1004400080E090E00E94090D10E0812F8E5E1F5F1A
:10045000612F40E020EE37E00E941D0E1530A9F715
:1004600088E091E060E070E041E050E020E038EFAB
:100470000E94B70E88E191E060E070E042E050E059
:100480002EEE3EE00E94B70E80E061E34FE721E3ED
:1004900007E813EE0E945E0F80E063E34FE723E37B
:1004A0000FEE1FE00E945E0F89E291E060E070E0D5
:1004B00044E050E02FEF3FEF0E94B70E8AE391E057
:1004C00060E070E045E050E02FEF3FEF0E94B70E94
:1004D0000E94D60483E397E00197F1F710E018C07B
:1004E0001F5F1531A9F485E491E060E070E047E01A
:1004F00050E020E038EF0E94B70E82E591E060E026
:1005000070E048E050E020E038EF0E94B70EEBCFFB
:100510000E949F04882321F782E691E060E070E06A
:1005200046E050E02FEF3FEF0E94B70E0E94540AC2
:10053000882359F083E791E060E070E047E050E005
:1005400020E038EF0E94B70EF5CF0E94300908EB8B
:1005500010E0C1E0D0E00E946F0080E197E2F80176
:100560003197F1F70197D9F780E197E2F8013197D8
:10057000F1F70197D9F780E197E2F8013197F1F7A8
:100580000197D9F720919C0C30919D0C80919E0C85
:1005900090919F0C2817390738F42F5F3F4F309305
:1005A0009D0C20939C0CD7CFD0939D0CC0939C0C9A
:1005B000D2CFC19AB99ABB98BA9AB89AC09A6C9A93
:1005C0006898699A6B986D986E9A8EB18FEF809348
:1005D000AA0C0895779BFECF8FB908958FB9779BAA
:1005E000FECF8FB108959FB9779BFECF3FB18FB9F2
:1005F000779BFECF2FB1932F80E030E0282B392B53
:10060000C9010895EF92FF920F931F937A018B0116
:1006100080640E94EE02812F9927AA27BB270E949F
:10062000EE02C801AA27BB270E94EE02BB27A12F1A
:10063000902F8F2D0E94EE028E2D0E94EE0285E9F2
:100640000E94EE0210E003C0193031F01F5F8FEFFF
:100650000E94EE028F3FC1F31F910F91FF90EF9028
:100660000895EF92FF920F931F93CF93DF938B0127
:100670009C017A0180916500877F8093650049E045
:10068000000F111F221F331F4A95D1F788E1B901CE
:10069000A8010E940203882311F0982F2AC08FEF2F
:1006A0000E94EE028EEF0E94EE02C0E0D0E0F70161
:1006B00081917F010E94EE022196F2E0C030DF07B7
:1006C000B1F78FEF0E94EE028FEF0E94EE028FEFE4
:1006D0000E94EE02982F8F71853059F48FEF0E949F
:1006E000EE028823D9F380916500886080936500CD
:1006F00090E0892FDF91CF911F910F91FF90EF90A4
:100700000895CF92DF92EF92FF920F931F93CF93B2
:10071000DF937B018C016A0180916500877F809364
:100720006500C0E0D0E08FEF0E94EE022196CA3053
:10073000D105C9F759E0EE0CFF1C001F111F5A9597
:10074000D1F781E1B801A7010E940203182F882385
:10075000E9F48FEF0E94EE028E3FD9F7C0E0D0E0BF
:100760008FEF0E94EE02F60181936F012196F2E075
:10077000C030DF07A9F78FEF0E94EE028FEF0E94D3
:10078000EE0280916500886080936500812FDF9183
:10079000CF911F910F91FF90EF90DF90CF90089530
:1007A000BF92CF92DF92EF92FF920F931F93B82EDA
:1007B0006A017B0105E610E0F80180818860808392
:1007C0008FEF0E94EE02F8018081877F80838B2D5E
:1007D000B701A6010E9402031F910F91FF90EF90B5
:1007E000DF90CF90BF900895EF92FF920F931F93E9
:1007F000DF93CF93CDB7DEB760970FB6F894DEBF27
:100800000FBECDBF89E040E050E060E070E00E94A4
:10081000D003882329F0282F30E040E050E080C04A
:1008200080916500877F8093650000E010E00DC037
:100830000150104051F480916500886080936500FC
:1008400021E030E040E050E06BC08FEF0E94EE020C
:100850008E3F71F78E010F5F1F4F41E1E42EF12CA7
:10086000EC0EFD1E8FEF0E94EE02F80181938F01C6
:10087000EE15FF05B9F78FEF0E94EE028FEF0E9491
:10088000EE028FEF0E94EE028091650088608093F7
:1008900065008FEF0E94EE02EF81988529858A8599
:1008A0008370880F4B85441F4427441F4E5F480FB9
:1008B00061E070E003C0660F771F41504423D9F711
:1008C0008E81482F50E04F70507001E010E004C05E
:1008D000000F111F4150504041155105C9F7F0E07C
:1008E000E370F070FE2FEE27E90FF11D80E090E03D
:1008F000229526952695237030E02F5F3F4FEE0F0F
:10090000FF1FEE0FFF1F2E0F3F1F40E050E00E9421
:100910002E11980140E050E00E942E119B01AC0185
:10092000B901CA0160960FB6F894DEBF0FBECDBF05
:10093000CF91DF911F910F91FF90EF9008950F934A
:100940001F9300E010E08FEF0E94EE021F5F1A304D
:10095000D1F780E040E050E060E070E00E94D0031A
:100960000F5F0B30F9F0813069F710E081E040E073
:1009700050E060E070E00E94D0031F5F153691F0F8
:100980008823A1F78BE340E050E060E070E00E9434
:10099000D00380E140E052E060E070E00E94D003CC
:1009A00080E001C08FEF1F910F9108950E94D9023E
:1009B000E4E6F0E0808188608083E5E6F0E0808115
:1009C000886080830895CF92DF92EF92FF920F9319
:1009D0001F937A01690162507040804090402091DD
:1009E000B30C3091B40C40E050E00E942E1100E0B6
:1009F00010E0E60EF71E081F191F6091B50C7091EC
:100A0000B60C8091B70C9091B80C6E0D7F1D801FB5
:100A1000911FE091A201F091A301A6010995811116
:100A200081E01F910F91FF90EF90DF90CF9008959C
:100A3000CF92DF92EF92FF920F931F93DF93CF93AA
:100A4000CDB7DEB7C050D2400FB6F894DEBF0FBEB0
:100A5000CDBF7B018C018091CC0C882351F0A80183
:100A6000970167E056954795379527956A95D1F791
:100A700004C05527412F302F2F2D82E0E816F104B6
:100A80000105110508F447C08091B90C9091BA0C8A
:100A9000A091BB0CB091BC0C280F391F4A1F5B1FE3
:100AA000E091A201F091A301CA01B9016E0108947D
:100AB000C11CD11CA6010995882369F58091CC0C35
:100AC0008823A9F08FE790E0A0E0B0E0E822F922C7
:100AD0000A231B23C701880F991F880F991FC80E6F
:100AE000D91ED6012D913D914D915C9118C08FEF8B
:100AF00090E0A0E0B0E0E822F9220A231B23C7011E
:100B0000880F991FC80ED91ED6018D919C919C010A
:100B100040E050E004C028EF3FEF4FEF5FE0B90145
:100B2000CA01C050DE4F0FB6F894DEBF0FBECDBF76
:100B3000CF91DF911F910F91FF90EF90DF90CF90B9
:100B40000895CF93DF939C01EB0140E050E0F90161
:100B5000E40FF51FDE01A40FB51F8C9180834F5F5A
:100B60005F4F4830510599F78885F901808789855D
:100B700081878A8582878B8583878C8584878D850D
:100B800085878E8586878F8587878889808B8989E9
:100B9000818B8A89828B8B89838B8C899D89958BAC
:100BA000848B8E89868B8F89878B888D808F898DAA
:100BB000818F8A8D9B8D938F828F8C8D9D8DAE8D35
:100BC000BF8D848F958FA68FB78FDF91CF910895BA
:100BD0009C01E199FECF3FBB2EBB872F9927AA2707
:100BE000BB278DBB0FB6F894E29AE19A0FBEE1994C
:100BF000FECF2F5F3F4F3FBB2EBB21503040CB017C
:100C0000AA27BB278DBB0FB6F894E29AE19A0FBED4
:100C1000E199FECF2E5F3F4F3FBB2EBB22503040AD
:100C2000BB27A72F962F852F8DBB0FB6F894E29A7E
:100C3000E19A0FBEE199FECF2D5F3F4F3FBB2EBB28
:100C40004DBB0FB6F894E29AE19A0FBE0895E19970
:100C5000FECF9FBB8EBBE09A2DB3E199FECF0196EC
:100C60009FBB8EBB0197E09A7DB3E199FECF0296C0
:100C70009FBB8EBB0297E09A6DB3E199FECF0396BE
:100C80009FBB8EBBE09A8DB330E040E050E0542F24
:100C9000432F322F2227270F311D411D511D542F65
:100CA000432F322F2227260F311D411D511D542F56
:100CB000432F322F2227280F311D411D511DB9010D
:100CC000CA0108952F923F924F925F926F927F9246
:100CD0008F929F92AF92BF92CF92DF92EF92FF924C
:100CE0000F931F93DF93CF93CDB7DEB729970FB63E
:100CF000F894DEBF0FBECDBF9D838C831B01FA012C
:100D0000E081E13019F0E23051F405C020E529839B
:100D1000BDE44B2E04C03EE43983A9E44A2E662488
:100D200077241B821A828A819B810E942706EA818E
:100D3000FB813496FB83EA836F3FFFEF7F07FFEF72
:100D40008F07FFEF9F0709F423C161157105810526
:100D5000910509F071C08091CC0C882321F0CC243E
:100D6000DD2476016BC080E092E00E9483118C014B
:100D7000009709F417C1FF24C12CF2E0DF2EC80E42
:100D8000D91E44C08091AB0C9091AC0CA091AD0CDD
:100D9000B091AE0C280F391F4A1F5B1FE091A201D2
:100DA000F091A301CA01B901A8010995882309F0AE
:100DB0007DC05801F50180818E3201F18823F1F068
:100DC000853EE1F083858F30C9F080858234B1F4AF
:100DD0008185841599F48285F9818F1779F48C8146
:100DE0009D81B5010E94A1050894611C711CF1014F
:100DF000808191816816790609F483C020E230E091
:100E0000A20EB31EAC14BD04A9F6F3942F2D30E04E
:100E100040E050E08091CF0C9091D00CA091D10C8B
:100E2000B091D20C281739074A075B0708F4AACFFC
:100E3000C8010E94301277CF6B017C01C701B60157
:100E400062507040804090402091B30C3091B40CBF
:100E500040E050E00E942E114B015C018091B50CE6
:100E60009091B60CA091B70CB091B80C880E991E59
:100E7000AA1EBB1E80E092E00E9483118C010097A5
:100E800009F490C0552480509E4F9F838E8349C0A3
:100E9000C501B401650D711D811D911DE091A20177
:100EA000F091A301A8010995882321F0C8010E94AF
:100EB000301278C019870887E885F98580818E32DD
:100EC00021F1882311F1853E01F183858F30E9F00E
:100ED00080858234D1F481858415B9F48285F981C5
:100EE0008F1799F48C819D81688579850E94A10571
:100EF0000894611C711CF10180819181681679064A
:100F000021F4C8010E9430124BC028853985205E2B
:100F10003F4F398728878E819F812817390761F6CF
:100F20005394252D30E08091B30C9091B40C281788
:100F3000390708F4ADCFC8010E943012C701B601CD
:100F40000E9418056B017C019FEFC9169FEFD9061F
:100F50009FEFE9069FE0F90609F4E5CEE8EFCE162B
:100F6000EFEFDE06EFEFEE06EFE0FE0609F4DBCE74
:100F70008091CC0C882309F061CFFFEFCF16FFEFF3
:100F8000DF06F0E0EF06F0E0FF0609F057CFCBCE2A
:100F9000F10180819181892B19F4F10171826082C4
:100FA00080E001C081E029960FB6F894DEBF0FBE45
:100FB000CDBFCF91DF911F910F91FF90EF90DF9008
:100FC000CF90BF90AF909F908F907F906F905F90E9
:100FD0004F903F902F9008952F923F924F925F92A3
:100FE0007F928F929F92AF92BF92CF92DF92EF92B9
:100FF000FF920F931F93CF93DF932A016115710521
:101000008105910509F074C08091CC0C882321F0F2
:10101000CC24DD2476016EC080E092E00E94831132
:101020008C01009709F407C1FF24C12CF2E0DF2EE8
:10103000C80ED91E47C08091AB0C9091AC0CA0910A
:10104000AD0CB091AE0C280F391F4A1F5B1FE09109
:10105000A201F091A301CA01B901A8010995882351
:1010600009F081C0E80188818E3239F1882329F1A5
:10107000853E19F18B8584FF20C0F20120813181EA
:10108000F2E020303F0709F4D8C04C895D8960E068
:1010900070E0BA01552744278A8D9B8DA0E0B0E00F
:1010A000480F591F6A1F7B1FC9010E94E805F20102
:1010B00080819181049691838083A096CC15DD0573
:1010C00091F6F3942F2D30E040E050E08091CF0C6A
:1010D0009091D00CA091D10CB091D20C2817390767
:1010E0004A075B0708F4A7CFC8010E943012A5C0C9
:1010F0006B017C01C701B601625070408040904096
:101100002091B30C3091B40C40E050E00E942E11BD
:101110004B015C018091B50C9091B60CA091B70C7D
:10112000B091B80C880E991EAA1EBB1E80E092E0FA
:101130000E9483118C01009709F47DC07724212C33
:1011400092E0392E200E311E42C0C501B401670D58
:10115000711D811D911DE091A201F091A301A801D3
:101160000995882321F0C8010E94301264C0E8016B
:1011700088818E3239F1882329F1853E19F18B85DA
:1011800084FF20C0F20120813181F2E020303F074E
:1011900009F453C04C895D8960E070E0BA015527BD
:1011A00044278A8D9B8DA0E0B0E0480F591F6A1F2D
:1011B0007B1FC9010E94E805F2018081918104969C
:1011C00091838083A096C215D30591F67394272D41
:1011D00030E08091B30C9091B40C2817390708F4D3
:1011E000B4CFC8010E943012C701B6010E94180591
:1011F0006B017C016F3FFFEF7F07FFEF8F07FFE081
:101200009F07D9F088EFC8168FEFD8068FEFE80652
:101210008FE0F80691F08091CC0C882309F06ACF1A
:10122000EFEFCE16EFEFDE06E0E0EE06E0E0FE06C2
:1012300009F060CF02C081E001C080E0DF91CF9172
:101240001F910F91FF90EF90DF90CF90BF90AF90E4
:101250009F908F907F905F904F903F902F90089538
:10126000EF92FF920F931F93DF93CF9300D0CDB7F0
:10127000DEB78091CC0C882359F04091D50C509169
:10128000D60C6091D70C7091D80C80E090E006C02D
:1012900080E090E040E050E060E070E00E94E8050F
:1012A00084E090E04FEF5FEF6FEF7FEF0E94E80583
:1012B00084E090E09A83898300E010E07E01089446
:1012C000E11CF11CC8010E9427066F3F2FEF720737
:1012D0002FEF82072FEF920729F1A7010E94EC0759
:1012E00089819A810E9427066F5F7F4F8F4F9F4FA2
:1012F00041F089819A814FEF5FEF6FEF7FEF0E949E
:10130000E80589819A818050924049F48CEF91E000
:101310004FEF5FEF6FEF7FEF0E94E80503C00C5FB8
:101320001F4FD0CF80E00F900F90CF91DF911F9192
:101330000F91FF90EF900895CF92DF92EF92FF927E
:101340000F931F937B018C0184E891E060E070E0D3
:1013500048E050E020E038EF0E94B70EA4E1169577
:101360000795F794E794AA95D1F7C801B70128EE3D
:1013700033E040E050E00E94611169013093A70C16
:101380002093A60CC801B70128EE33E040E050E0FE
:101390000E946111162F072FF82EE92E24E630E067
:1013A00040E050E00E9461113093A50C2093A40C02
:1013B000612F702F8F2D9E2D24E630E040E050E00D
:1013C0000E946111162F072FF82EE92E2AE030E037
:1013D00040E050E00E9461113093A30C2093A20CD6
:1013E000612F702F8F2D9E2D2AE030E040E050E0DD
:1013F0000E9461117093A10C6093A00CC601C0966D
:1014000068E070E048E050E02EEE3EE00E94820D81
:101410008091A40C9091A50CC09669E070E048E022
:1014200050E02EEE3EE00E94820D8091A20C909141
:10143000A30CC0966AE070E048E050E02EEE3EE07B
:101440000E94820D8091A00C9091A10CC0966BE03F
:1014500070E048E050E02EEE3EE00E94820D8DE804
:1014600091E06DE070E048E050E020E038EF0E944D
:10147000B70E80E991E060E070E049E050E020E0E4
:1014800038EF0E94B70E89E991E068E070E049E02A
:1014900050E02FEF3FEF0E94B70E1F910F91FF908A
:1014A000EF90DF90CF9008958F929F92AF92BF926E
:1014B000CF92DF92EF92FF920F931F93DF93CF9320
:1014C000CDB7DEB7C050D2400FB6F894DEBF0FBE26
:1014D000CDBF0E94F4037B018C010E949C098FEF19
:1014E000E816F1040105110508F4D5C0E091A20148
:1014F000F091A30160E070E080E090E04E0108947C
:10150000811C911CA4010995882309F0C4C0FE0127
:10151000E154FE4FA084B184C284D38489E016953F
:101520000795F794E7948A95D1F7AE14BF04C006E7
:10153000D106F0F4E091A201F091A301C601B5013A
:10154000A4010995882309F0A6C0D4018C91893E95
:1015500091F08B3E81F0E091A201F091A30160E057
:1015600070E080E090E0A4010995882309F093C021
:10157000AA24BB246501F4018081893E19F08B3EC9
:1015800009F089C0F4013B9683859485009759F052
:101590001092CC0C9093CE0C8093CD0C82E090E016
:1015A000A0E0B0E00DC081E08093CC0C818D928DE5
:1015B0009093CE0C8093CD0C81A192A1A3A1B4A154
:1015C0008093D50C9093D60CA093D70CB093D80CE5
:1015D000D4011B968D919C911C979093D40C809371
:1015E000D30C82818093B30C1092B40CE380F4800E
:1015F00000E010E0EA0CFB1C0C1D1D1DE092B90C74
:10160000F092BA0C0093BB0C1093BC0C268137816E
:1016100040E050E02093AF0C3093B00C4093B10CFD
:101620005093B20CB4E05695479537952795BA95E7
:10163000D1F72093CF0C3093D00C4093D10C509322
:10164000D20C858190E06091CD0C7091CE0CFC01A4
:10165000E69FC001E79F900DF69F900D1124A0E03A
:10166000B0E08E0D9F1DA01FB11F8093AB0C909317
:10167000AC0CA093AD0CB093AE0C820F931FA41FC3
:10168000B51F8093B50C9093B60CA093B70CB09394
:10169000B80C80E001C081E0C050DE4F0FB6F89476
:1016A000DEBF0FBECDBFCF91DF911F910F91FF9095
:1016B000EF90DF90CF90BF90AF909F908F90089564
:1016C0008FEF8BBB8ABB8093620080936100E5E65D
:1016D000F0E09FE090839093640082BB81BB949A7A
:1016E000959A8BBB959888BB87BB80818B7F8083C5
:1016F0000895E2E6F0E090819D7F90839081977F4E
:1017000090831BBA90819B7F90839081946090839B
:101710008BBB80818B7F808380818460808380818C
:101720008860808380818D7F80830895A2E6B0E009
:101730009C919D7F9C939C91977F9C9344E0942FD8
:101740009A95F1F71BBA942F9A95F1F79C919B7F8C
:101750009C93942F9A95F1F79C9194609C93942F6D
:101760009A95F1F78BBB842F8A95F1F78C918B7F3B
:101770008C93842F8A95F1F78C9184608C93842FBD
:101780008A95F1F78C9182608C93842F8A95F1F77A
:101790009FEF9BBB842F8A95F1F7E5E6F0E080810F
:1017A0008F7E8083842F8A95F1F7842F8A95F1F7B5
:1017B0008081806180832BB330E0842F8A95F1F79C
:1017C0009BBB80818F7E80834A95F1F78081806109
:1017D00080834BB38C9188608C938C918D7F8C939C
:1017E000942F80E0280F391FC9010895E2E6F0E048
:1017F00090819D7F90839081977F90831BBA908189
:101800009B7F90839081946090838BBB80818B7F42
:1018100080838081846080838081886080838081F0
:101820008D7F80838081826080838081877F8083B9
:101830007BBB80818B7F808380818460808380817B
:101840008860808380818D7F8083808182608083B7
:101850008081877F80836BBB80818B7F8083808149
:101860008460808380818860808380818D7F808395
:1018700008959BBBE2E6F0E090819B7F908390818E
:10188000946090838BBB80818B7F80838081846018
:10189000808308958BBBE2E6F0E080818B7F8083BC
:1018A00080818460808308950F931F93979800E050
:1018B00018E4C8010197F1F7979AC8010197F1F769
:1018C00080E061E070E00E94F60BC8010197F1F73B
:1018D00083E060E370E00E94F60B81E06DE171E06F
:1018E0000E94F60B8AE066E071E00E94F60B87E04A
:1018F00067E370E00E94F60B88E067E077E00E9403
:10190000F60B8CE061E070E00E94F60B82E060E094
:1019100074E00E94F60B8AE067E071E00E94F60B2B
:1019200082E161E070E00E94F60B8AE061E071E024
:101930000E94F60B81E165E075E00E94F60B84E100
:101940006FE07CE20E94F60B12E0812F8A95F1F79E
:101950008AE062E071E00E94F60B80E160E17AE1EA
:101960000E94F60B812F8A95F1F78AE060E071E022
:101970000E94F60B83E166E176E00E94F60B812F70
:101980008A95F1F78AE061E071E00E94F60B80E34E
:1019900063E070E00E94F60B81E364E074E00E9473
:1019A000F60B82E363E073E00E94F60B83E366E0EC
:1019B00074E00E94F60B84E364E074E00E94F60B8E
:1019C00085E363E073E00E94F60B86E367E074E072
:1019D0000E94F60B87E364E076E00E94F60B812F0D
:1019E0008A95F1F780E160E17AE10E94F60B1A95A1
:1019F000F1F78AE060E071E00E94F60B83E166E1B6
:101A000076E00E94F60B85EF8A95F1F71F910F9112
:101A100008950F931F938C0184E460E07FE70E9498
:101A2000F60B85E460E57FEE0E94F60B81E260E054
:101A300070E50E94F60B82E20E94790B80916200B1
:101A4000877F809362008091620082608093620051
:101A500020E030E51BBB809162008B7F80936200A9
:101A6000809162008460809362000BBB8091620071
:101A70008B7F80936200809162008460809362001B
:101A80002150304039F784E460E07FE50E94F60B96
:101A900085E460E17FE40E94F60B81E260E070E1A2
:101AA0000E94F60B82E20E94790B80916200877F90
:101AB000809362008091620082608093620020E0E7
:101AC00038E11BBB809162008B7F80936200809124
:101AD00062008460809362000BBB809162008B7F08
:101AE0008093620080916200846080936200215044
:101AF000304039F7809162008860809362001F91C6
:101B00000F9108959F92AF92BF92CF92DF92EF9282
:101B1000FF920F931F93B82EC62E042F922EA32E42
:101B2000DD2488E098E0C89EB001C99E700DD89E63
:101B3000700D11246050794F84E40E94F60B10E080
:101B400055E0E52EF12CE00EF11E102F00270E0DB2
:101B50001F1D00511A4F34E0000F111F3A95E1F795
:101B600085E4B8010E94F60BFE2CEE24FF0CEC0C71
:101B7000FD1C93E0EE0CFF1C9A95E1F781E2B701A2
:101B80000E94F60B82E20E94790B80916200877FAF
:101B900080936200809162008260809362002B2DAE
:101BA00030E084E0220F331F8A95E1F72A553E4F3B
:101BB00040E050E0F901E40FF51FE08190E0E7FF1D
:101BC0000DC0ABBA809162008B7F809362008091E0
:101BD00062008460809362009BBA0CC01BBA809143
:101BE00062008B7F809362008091620084608093AA
:101BF00062001BBA809162008B7F809362008091AB
:101C000062008460809362009F5F983011F0EE0F55
:101C1000D6CF4F5F5F4F4031510561F68091620032
:101C20008860809362001F910F91FF90EF90DF908A
:101C3000CF90BF90AF909F9008959F92AF92BF9228
:101C4000CF92DF92EF92FF920F931F93B82EC62E82
:101C5000042F922EA32EDD2480E190E1C89EB001D6
:101C6000C99E700DD89E700D11246050714F84E490
:101C70000E94F60B10E0B5E0EB2EF12CE00EF11E09
:101C8000102F00270E0D1F1D00511A4FF4E0000FFA
:101C9000111FFA95E1F785E4B8010E94F60BFE2CBE
:101CA000EE24EC0CFD1C74E0EE0CFF1C7A95E1F7C1
:101CB00081E2B7010E94F60B82E20E94790B8091CB
:101CC0006200877F809362008091620082608093CF
:101CD00062002B2D30E065E0220F331F6A95E1F79B
:101CE0002A55364F40E050E0F901E40FF51FE0813E
:101CF00090E0E7FF0DC0ABBA809162008B7F8093CC
:101D00006200809162008460809362009BBA0CC084
:101D10001BBA809162008B7F809362008091620089
:101D20008460809362001BBA809162008B7F8093F5
:101D30006200809162008460809362009F5F9830AF
:101D400011F0EE0FD6CF4F5F5F4F4032510561F675
:101D5000809162008860809362001F910F91FF90D4
:101D6000EF90DF90CF90BF90AF909F900895EF924B
:101D7000FF920F931F93CF93DF93EC01162F042F45
:101D8000790110C0612F402F97010E94820D1F5FC3
:101D9000103138F00F5F0A3018F010E000E001C099
:101DA00010E021968881882369F7DF91CF911F91F8
:101DB0000F91FF90EF9008950F931F938C0184E48F
:101DC00060E07FE70E94F60B85E460E57FEE0E940D
:101DD000F60B81E260E070E50E94F60B82E20E9461
:101DE000790B80916200877F80936200809162000E
:101DF00082608093620020E030E51BBB809162002E
:101E00008B7F809362008091620084608093620087
:101E10000BBB809162008B7F809362008091620097
:101E20008460809362002150304039F780916200D5
:101E30008860809362001F910F910895DF92EF9266
:101E4000FF920F931F93F82E062FD42EE52E84E4D5
:101E500060E07FE70E94F60B85E460E57FEE0E947C
:101E6000F60B10E0005B1F4F102F00270F0D111D08
:101E700081E2B8010E94F60B82E20E94790BE2E651
:101E8000F0E08081877F8083808182608083EBBAED
:101E900080818B7F8083808184608083DBBA8081B6
:101EA0008B7F808380818460808380818860808351
:101EB0001F910F91FF90EF90DF9008952F923F9226
:101EC0004F925F926F927F928F929F92AF92BF924A
:101ED000CF92DF92EF92FF920F931F93DF93CF93F6
:101EE00000D000D0CDB7DEB7282E362E1A83098356
:101EF000842F90E08219910997FF04C066246A94A8
:101F0000762C03C051E0652E712C30E02319310985
:101F100037FF04C088248A94982C03C041E0842EA3
:101F2000912C9C838B8397FF05C0909581959F4F43
:101F30009C838B83A90137FF03C0509541955F4F68
:101F40008B819C81841795071CF0AA24BB2408C0B0
:101F5000CA014B815C819C838B8321E0A22EB12C32
:101F60002A01440C551C8201EB81FC810E1B1F0BC6
:101F7000CC24DD247F01F094E194F108F394EE1A6F
:101F8000FF0A1DC0822D632D49815A810E941E0FB8
:101F900017FD09C0F1E0AF16B10411F4260C01C021
:101FA000380C0E0D1F1D81E0A816B10411F4380C79
:101FB00001C0260C040D151D0894C11CD11CEB8119
:101FC000FC81CE16DF06F4F20F900F900F900F9069
:101FD000CF91DF911F910F91FF90EF90DF90CF9005
:101FE000BF90AF909F908F907F906F905F904F9039
:101FF0003F902F900895DF92EF92FF920F931F93DF
:10200000CF93DF93D82EE42EF22EE801062F09C0DD
:10201000812F602FAE010E941E0F1F5FE116C0F7D7
:102020000F5FF01610F01D2DF9CFDF91CF911F91AA
:102030000F91FF90EF90DF9008959F92AF92BF9223
:10204000CF92DF92EF92FF920F931F93C82EB62E7E
:10205000F42EE22ED42ED80E922E960E8D2D692DB2
:10206000A8010E941E0FAE2CAB188D2D6A2DA80161
:102070000E941E0FDF2CDC188D2D692DA8010E94F7
:102080001E0F8D2D6A2DA8010E941E0FDF2CDB0C68
:10209000AE2CAC0C8D2D6A2DA8010E941E0FEC18E1
:1020A0008D2D6E2DA8010E941E0FFB188F2D6A2DFD
:1020B000A8010E941E0F8F2D6E2DA8010E941E0FD9
:1020C0001F910F91FF90EF90DF90CF90BF90AF9056
:1020D0009F9008956F927F928F929F92AF92BF923E
:1020E000CF92DF92EF92FF920F931F93CF93DF93E4
:1020F000682E762E4901E42EFF24CC27DD27CE1949
:10210000DF09CE19DF092396CC24DD2466E0A62E54
:10211000B12C8C2D6E2D462D272D30E084010E9490
:102120001D10D7FF03C0CA0DDB1D0FC0C6018E19DD
:102130009F092A96C80FD91FC80FD91FC80FD91FCA
:10214000C80FD91F0894E108F1080894C11CD11CDC
:1021500084E090E0A80EB91EEC14FD04D4F6DF91E3
:10216000CF911F910F91FF90EF90DF90CF90BF9094
:10217000AF909F908F907F906F900895982F562FDB
:10218000842F805D692F452F0E94820D08958F92C4
:102190009F92AF92BF92CF92DF92EF92FF920F93F6
:1021A0001F93CF93DF935C017B016A018901C0E03B
:1021B000D0E070E8872E912CAE014A0D5B1D940192
:1021C0000C2E02C0359527950A94E2F7C9018C219F
:1021D0009D218217930729F4CA01B70141E050E01D
:1021E00004C0CA01B70140E050E098010E94BE104F
:1021F0002196C830D10501F7DF91CF911F910F9142
:10220000FF90EF90DF90CF90BF90AF909F908F9016
:102210000895AF92BF92CF92DF92EF92FF920F9309
:102220001F937C016B018A015901E4E056954795A3
:10223000EA95E1F70E94BE100F701070C701019679
:10224000B601A80195010E94BE101F910F91FF9049
:10225000EF90DF90CF90BF90AF900895629FD00134
:10226000739FF001829FE00DF11D649FE00DF11D51
:10227000929FF00D839FF00D749FF00D659FF00D00
:102280009927729FB00DE11DF91F639FB00DE11DED
:10229000F91FBD01CF0111240895AA1BBB1B51E1F9
:1022A00007C0AA1FBB1FA617B70710F0A61BB70BC6
:1022B000881F991F5A95A9F780959095BC01CD016B
:1022C0000895A1E21A2EAA1BBB1BFD010DC0AA1F77
:1022D000BB1FEE1FFF1FA217B307E407F50720F08F
:1022E000A21BB30BE40BF50B661F771F881F991F0A
:1022F0001A9469F760957095809590959B01AC0153
:10230000BD01CF010895CF93DF93BC0182309105C9
:1023100010F462E070E0A091DB0CB091DC0CED01F8
:10232000E0E0F0E040E050E021C08881998186172C
:10233000970769F48A819B81309719F09383828390
:1023400004C09093DC0C8093DB0CFE0134C0681752
:10235000790738F44115510519F08417950708F4E9
:10236000AC01FE018A819B819C01E9012097E9F67D
:1023700041155105A9F1CA01861B970B049708F472
:10238000BA01E0E0F0E02AC08D919C91119784178A
:102390009507F9F46417750781F412968D919C9155
:1023A0001397309719F09383828304C09093DC0CC9
:1023B0008093DB0CFD0132964FC0CA01861B970B40
:1023C000FD01E80FF91F6193719302978D939C9320
:1023D00043C0FD01828193819C01D9011097A1F630
:1023E0008091D90C9091DA0C892B41F48091980C52
:1023F0009091990C9093DA0C8093D90C40919A0C9F
:1024000050919B0C4115510541F44DB75EB7809139
:10241000960C9091970C481B590B2091D90C309138
:10242000DA0C24173507B0F4CA01821B930B861708
:10243000970780F0AB014E5F5F4F8417950750F010
:10244000420F531F5093DA0C4093D90CF90161935A
:10245000719302C0E0E0F0E0CF01DF91CF910895E9
:10246000CF93DF93009709F450C0EC0122971B82B1
:102470001A82A091DB0CB091DC0C109709F140E0BE
:1024800050E0AC17BD0708F1BB83AA83FE01219180
:102490003191E20FF31FAE17BF0779F48D919C9134
:1024A0001197280F391F2E5F3F4F398328831296CB
:1024B0008D919C9113979B838A834115510571F4EB
:1024C000D093DC0CC093DB0C20C012968D919C91B4
:1024D0001397AD01009711F0DC01D3CFFA01D3833C
:1024E000C28321913191E20FF31FCE17DF0769F408
:1024F00088819981280F391F2E5F3F4FFA01318360
:1025000020838A819B8193838283DF91CF91089579
:04251000F894FFCF6D
:102514002020202020202000444D4156522D3132CD
:102524003820426F6172640053686F7720424D50C7
:102534002066726F6D205344005374617274696E27
:102544006720496E69742053440057616974696E49
:10255400672E2E2E00496E6974204661696C75726F
:102564006500506C6561736520436865636B205337
:102574004400496E69742053442053756363657342
:10258400732100496E697420464154204661696C88
:102594007572650053442053697A653A004D4200D0
:1025A400424D50204E756D3A0046696E64696E67FF
:1025B4002E00810331030000000000000000000031
:1025C400000000000000000000000000000F0808E8
:1025D40008080808080000000000000000F80808C7
:1025E400080808080800080808080808080F000078
:1025F40000000000000008080808080808F80000A7
:102604000000000000000808080808080808080876
:1026140008080808080000000000000000FF00008F
:10262400000000000000000000183C7E7E7E3C1884
:10263400000000000000FFFFFFE7C3818181C3E7C2
:10264400FFFFFFFFFF00000000000000000000008B
:102654000000000000000000000000000000000076
:10266400000000000000001F05050909101038448F
:10267400444438000000001C2222221C08087F0861
:10268400080808000000000000000000000000002E
:10269400000000000000031D11131D111111131778
:1026A40036706000000008085D2222226322222284
:1026B4005D080800000008080808080808FF080862
:1026C400080808080800000103070F1F3F7F3F1F89
:1026D4000F0703010000081C2A0808080808080856
:1026E400082A1C080000002424242424242424244C
:1026F400000024240000001F25454545251D05052F
:1027040005050500000008080808080808FF00007F
:1027140000000000000000000000000000FF0808A6
:1027240008080808080008080808080808F808083D
:10273400080808080800081C2A08080808080808E7
:10274400080808080000080808080808080F08080E
:10275400080808080800000000000004027F0204C2
:10276400000000000000000000000010207F201086
:102774000000000000000000000000000000000055
:102784000000000000000000000000000000000045
:102794000000000000000000000000000000000035
:1027A4000000000000000000000000000000000025
:1027B4000000000000000000000000000000000015
:1027C4000000000000000000101010101010100095
:1027D4000018180000001236244800000000000011
:1027E4000000000000000000242424FE484848FEA5
:1027F400484848000000001038545450301814144D
:10280400545438101000000044A4A8A8A8541A2A4C
:102814002A2A44000000000030484848506EA4941E
:10282400888976000000606020C00000000000007D
:10283400000000000000020408081010101010101E
:1028440008080402000040201010080808080808BE
:102854001010204000000000001010D63838D610A8
:1028640010000000000000000010101010FE1010F6
:102874001010000000000000000000000000000034
:1028840000606020C000000000000000007F000025
:102894000000000000000000000000000000000034
:1028A4000060600000000001020204040808101027
:1028B400202040400000000018244242424242428C
:1028C40042241800000000001070101010101010A6
:1028D40010107C00000000003C4242420404081036
:1028E40020427E00000000003C4242041804020220
:1028F4004244380000000000040C14242444447EA4
:1029040004041E00000000007E404040586402029F
:1029140042443800000000001C24404058644242F5
:1029240042241800000000007E44440808101010DF
:1029340010101000000000003C42424224182442BF
:1029440042423C00000000001824424242261A027F
:1029540002243800000000000000001818000000E5
:102964000018180000000000000000001000000023
:102974000000101020000000020408102040201065
:102984000804020000000000000000FE000000FE39
:1029940000000000000000004020100804020408A9
:1029A40010204000000000003C424262020408087B
:1029B400001818000000000038445AAAAAAAAAB4B1
:1029C40042443800000000001010182828243C4419
:1029D4004242E70000000000F84444447844424284
:1029E4004244F800000000003E4242808080808023
:1029F4004244380000000000F8444242424242424D
:102A04004244F80000000000FC424848784848402E
:102A14004242FC0000000000FC424848784848401C
:102A24004040E000000000003C44448080808E84EC
:102A34004444380000000000E7424242427E4242E1
:102A44004242E700000000007C101010101010102B
:102A540010107C00000000003E0808080808080860
:102A640008080888F0000000EE44485070504848B8
:102A74004444EE0000000000E0404040404040403C
:102A84004042FE0000000000EE6C6C6C6C54545428
:102A94005454D60000000000C7626252524A4A4AA7
:102AA4004646E2000000000038448282828282822C
:102AB4008244380000000000FC424242427C404014
:102AC4004040E0000000000038448282828282B2EA
:102AD400CA4C380600000000FC4242427C4848448C
:102AE4004442E300000000003E4242402018040239
:102AF40042427C0000000000FE92101010101010E2
:102B04001010380000000000E742424242424242B4
:102B140042423C0000000000E742424424242828AA
:102B24001810100000000000D692929292AAAA6C8B
:102B34004444440000000000E742242418181824E8
:102B44002442E70000000000EE444428281010103E
:102B540010103800000000007E84040808102020B3
:102B64004242FC0000001E10101010101010101033
:102B74001010101E00000040402020101010080803
:102B84000404040202007808080808080808080871
:102B94000808087800001C22000000000000000063
:102BA4000000000000000000000000000000000021
:102BB40000000000FF0060100000000000000000A2
:102BC4000000000000000000000000003C421E2243
:102BD40042423F0000000000C0404040586442426E
:102BE4004264580000000000000000001C22404025
:102BF40040221C0000000000060202021E22424283
:102C040042261B0000000000000000003C427E4001
:102C140040423C00000000000F1110107E10101004
:102C240010107C0000000000000000003E44443806
:102C3400403C42423C000000C04040405C62424292
:102C44004242E70000000000303000007010101015
:102C540010107C00000000000C0C00001C04040494
:102C64000404044478000000C04040404E485068CA
:102C74004844EE00000000007010101010101010F6
:102C840010107C000000000000000000FE494949CB
:102C94004949ED000000000000000000DC624242EF
:102CA4004242E70000000000000000003C424242B3
:102CB40042423C000000000000000000D864424290
:102CC40042447840E0000000000000001E2242421E
:102CD40042221E020700000000000000EE32202005
:102CE4002020F80000000000000000003E42403CAC
:102CF40002427C0000000000000010107C10101044
:102D040010100C000000000000000000C642424207
:102D140042463B000000000000000000E74224247B
:102D2400281010000000000000000000D79292AAB2
:102D3400AA44440000000000000000006E2418189B
:102D4400182476000000000000000000E74224245C
:102D540028181010E0000000000000007E44081055
:102D640010227E0000000304040404040804040484
:102D740004040403000008080808080808080808F0
:102D8400080808080800601010101010081010102F
:102D94001010106000004C43000000000000000010
:102DA400000000000000000000000000000000001F
:102DB40000000000000008000FFC1080108020803C
:102DC4004FF88880088008800880FFFE008000801B
:102DD40000800080008007F004100410041007F045
:102DE40004100410041007F0041008100810101048
:102DF40020504020000000001FF010101010101090
:102E040010101FF0101010101010101010101FF0E0
:102E1400101000000000001000107C10441047FE49
:102E240044107C104510449044907C100010001015
:102E340000100050002008800C8008401020103042
:102E44002018400E9FE404200420042004200820BD
:102E540010A0204040000C20F02010201128FDA4D8
:102E6400112232223A2054225422900410081010C5
:102E740010601180160000083FFC20083FF820086D
:102E84003FF8010021083FFC21004110BFF8010078
:102E94000104FFFE00002204227E22447F442244D7
:102EA4003E7C22443E442244227CFFC40044244409
:102EB4002284411482080000000000000000000089
:102EC40000000004FFFE00000000000000000000FD
:102ED4000000000000000000000000103FF80000A7
:102EE4000000000000000000000000000004FFFEDD
:102EF400000000000000000000087FFC000000004B
:102F0400000000103FF80000000000000000000472
:102F1400FFFE00000000000000047FFE444444441F
:102F24004444444444444444443C48045004400419
:102F34007FFC40040000000000087FFC0200020047
:102F4400020002103FFC04100410041008100810C2
:102F54000814FFFE00000000040002000300010446
:102F6400FFFE0000000004400C2008101018100C94
:102F7400200C4004000000101FF810101010101056
:102F8400101010101FF0101010101010101010104E
:102F94001FF01010000001000100010001000110E9
:102FA40001F801000100010001000100010001001D
:102FB4000104FFFE00000004FFFE02000200020004
:102FC40002800240023002100200020002000200ED
:102FD400020002000200080008100FF8110011009E
:102FE400210041000104FFFE010001000100010075
:102FF4000100010001000240074038402040207ECB
:1030040020823F2424202420242024502450448837
:1030140044888506020401101110111011101114B6
:10302400FFFE111011101110111011F011101000E9
:1030340010081FFC00000800080413FE10042404F8
:10304400FC04080411FC2104FD00410001001D02E0
:10305400E10240FE00000200020002107FF842106C
:1030640042107FF0421042107FF04210020002042E
:10307400020401FC000000003FF0001000200040AA
:1030840001800104FFFE01000100010001000100B4
:1030940001000500020000F8E0071F00E0FF000047
:0C30A400FFFFFF071FF82000DD0C0000FC
:00000001FF
